S013000050726F6A6563745F4C574D2E73726563EB
S1130000FBC1000029C2000027C2000025C2000075
S113001023C2000021C200001FC200001DC2000054
S11300201BC2000019C2000017C2000015C2000064
S113003013C200000C94B0270FC200000DC20000D0
S11300400BC2000009C2000007C2000005C2000084
S113005003C200000C945723FFC10000FDC100003F
S1130060FBC10000F9C10000F7C10000F5C10000A8
S1130070F3C10000F1C10000EFC10000EDC10000B8
S1130080EBC10000E9C10000E7C10000E5C10000C8
S11300900C9401280C94E527DFC10000DDC10000A9
S11300A0DBC10000D9C100000C949F27D5C100001A
S11300B0D3C10000D1C10000CFC10000CDC10000F8
S11300C0CBC10000C9C10000C7C10000C5C1000008
S11300D0C3C10000C1C10000BFC10000BDC1000018
S11300E0BBC10000B9C10000B7C10000B5C1000028
S11300F0B3C10000B1C10000AFC10000ADC1000038
S1130100ABC10000A9C10000A7C10000A5C1000047
S1130110A3C10000A1C100009FC100009DC1000057
S11301209BC1000099C1000097C1000095C1000067
S113013093C100009F0CA20CB10CAC0CB60CBB0C10
S1130140C00CCE0CE20CF10CF40CF80C0B0DFC0CF6
S1130150FF0C050D6E616E00696E660000407A103A
S1130160F35A00A0724E18090010A5D4E80000E864
S11301707648170000E40B54020000CA9A3B0000C2
S113018000E1F505000080969800000040420F0051
S11301900000A08601000000102700000000E80312
S11301A0000000006400000000000A0000000000DD
S11301B00100000000002C76D888DC674F0823DF9C
S11301C0C1DFAE59E1B1B796E5E3E453C63AE6516F
S11301D0997696E8E6C28426EB898C9B62ED407C96
S11301E06FFCEFBC9C9F40F2BAA56FA5F490055A32
S11301F02AF75C936B6CF9676DC11BFCE0E40D4757
S1130200FEF520E6B500D0ED902E03009435770579
S11302100080841E080000204E0A000000C80C3331
S11302203333330F986E12831141EF8D2114893BC0
S1130230E65516CFFEE6DB18D1844B381BF77C1D40
S1130240901DA4BBE424203284725E228100C9F193
S113025024ECA1E53D27444843502049500D0A00B1
S11302605354415449432049500D0A003D3D3D3DFE
S11302703D3D3D3D3D3D3D3D3D3D3D3D3D3D3D3DAA
S11302803D3D3D3D3D3D3D3D3D3D3D3D3D3D3D3D9A
S11302903D3D3D0D0A002057495A6E657420636840
S11302A069703A20202573200D0A000D0A3D3D3D5A
S11302B03D3D3D3D3D3D3D3D3D3D3D3D3D3D3D3D6A
S11302C03D3D3D3D3D3D3D3D3D3D3D3D3D3D3D3D5A
S11302D03D3D3D3D0D0A004341414141550A0D005C
S11302E02D2D4D51545420436F6E6E6563746564B7
S11302F0204552524F523A20256C640D0A00537522
S113030062736372696265642028257329202564F9
S11303100D0A002B2B4D51545420436F6E6E6563B0
S113032074656420535543434553533A20256C6404
S11303300D0A003E3E547279696E6720636F6E6EDB
S113034065637420746F204D5154542062726F6B36
S113035065723A2025642E25642E25642E2564209A
S11303602E2E0D0A003E3E20467265652052414DF8
S11303702069733A2025642062797465730D0A003C
S1130380436F6E6E656374696F6E2077697468205D
S11303904D5154542042726F6B6572207761732003
S11303A06C6F737421210D0A5265626F6F7420742F
S11303B0686520626F6172642E2E0D0A00202D2064
S11303C04552524F520D0A00202D204F4B0D0A006A
S11303D03E3E4D51545420707562206D7367202544
S11303E06C7520003C3C4D515454205375623A20A6
S11303F05B25735D2025730011241FBECFEFD1E868
S1130400DEBFCDBF00E00CBF84B78093AB2714BE22
S11304100FB6F894A895809160008861809360007D
S1130420109260000FBE1DE0A0E0B2E0E0E6F3E74A
S113043000E00BBF02C007900D92AC36B107D9F7AC
S113044027E2ACE6BDE001C01D92AB3AB207E1F78A
S11304500E94DE250C94AE39D3CDBF92CF92DF92A9
S1130460EF92FF920F931F93CF93DF93893008F09D
S113047059C0B82E082F10E0E801CC0FDD1FCC0FB7
S1130480DD1F2196CC0FDD1FCC0FDD1FCC0FDD1F30
S11304906E01D3940D2C000CEE08FF0840E1C70157
S11304A0B601C8D4C701B6015ED48111FBCFBE0129
S11304B07E5F072E000C880B990B4FE1BBD481E0C3
S11304C090E002C0880F991FBA94E2F78095909546
S11304D02091860D3091870D282339233093870D81
S11304E02093860D2091840D3091850D82239323D2
S11304F09093850D8093840DF801EE0FFF1FEC5847
S1130500F24F11821082F801E459F24F1082BE01B9
S11305107D5F072E000C880B990B25D48111F7CF32
S113052081E001C08FEFDF91CF911F910F91FF9078
S1130530EF90DF90CF90BF9008954F925F926F92AB
S11305407F92AF92BF92CF92DF92EF92FF920F937E
S11305501F93CF93DF9300D01F92CDB7DEB7F82E51
S1130560562E3A01E22E28E0281708F4C5C081E08F
S1130570681739F0681708F4C1C024E02617A8F4F6
S1130580BDC024E030E0AE014F5F5F4F60E07FE02C
S113059080E090E0C1D489819A81AB81BC81892BB0
S11305A08A2B8B2B11F48DEFB2C0E2FCA9C0EE2094
S11305B0A9F081E0581621F022E0521629F00EC06D
S11305C08E2D817259F49EC0E5FE03C0EE200CF01E
S11305D09BC0E4FE03C0EE200CF098C08F2D3DDFDD
S11305E0CF2CD12C8601000F111F000F111F0F5F9C
S11305F01F4F000F111F000F111F000F111F4E2D51
S1130600407F4529B801012E000C880B990B12D4A8
S11306106114710491F46090040270900502C301A6
S113062001969093050280930402409631F480E091
S113063090EC9093050280930402B8017C5F072E2E
S1130640000C880B990B472DF5D3B8017B5F072E5F
S1130650000C880B990B462DEDD328015394052CDF
S1130660000C6608770841E0C301B201E3D3C3017B
S1130670B20179D38111FBCF81E090E00F2C02C04D
S1130680880F991F0A94E2F7809590952091860D22
S11306903091870D28233923E0FAAA24A0F8B12C3D
S11306A00F2C02C0AA0CBB1C0A94E2F7A22AB32A9C
S11306B0B092870DA092860D2091840D3091850D06
S11306C0822393239093850D8093840DF601EE0F7E
S11306D0FF1FEC58F24F11821082F601E459F24FD9
S11306E01082B8017D5F072E000C880B990B3BD359
S11306F08823B9F38F2D0BC08FEF09C08BEF07C090
S11307008AEF05C08AEF03C08AEF01C08AEF0F9019
S11307100F900F900F90DF91CF911F910F91FF9049
S1130720EF90DF90CF90BF90AF907F906F905F90ED
S11307304F9008958F929F92AF92BF92CF92DF9283
S1130740EF92FF921F93CF93DF93893008F0ACC0F0
S11307506A017B01182FC82FD0E0CC0FDD1FCC0F0E
S1130760DD1F2196CC0FDD1FCC0FDD1FCC0FDD1F4D
S1130770BE010D2E000C880B990BF5D28F708130C1
S113078009F094C04E018DEF981A092C000CAA08A8
S1130790BB08C501B401E7D2833109F089C0F70170
S11307A0408150E060E070E0762F652F542F44279D
S11307B08181480F511D611D711D762F652F542FA6
S11307C044278281480F511D611D711D762F652FAD
S11307D0542F44278381480F511D611D711D4150C1
S11307E05109610971094E3F5F4F6F4F7F4F08F008
S11307F061C0C114D10409F45FC0BE01745F072E47
S1130800000C880B990B24E030E0A70107D4BE014B
S1130810705F072E000C880B990B4D2D0BD3BE0176
S11308207F5E072E000C880B990B4C2D03D36E01B1
S1130830D3940D2C000CEE08FF0844E0C701B60168
S1130840F9D2C701B6018FD28111FBCF81E090E0CC
S113085002C0880F991F1A95E2F72091860D3091F6
S1130860870D82239323892BC1F028C06E01EEEFFC
S1130870DE1A0D2C000CEE08FF08C701B60173D276
S113088083FF06C048E0C701B601D4D283EF19C084
S1130890C501B40168D2882399F0C501B40163D2BB
S11308A0873121F781E00DC08FEF0BC08BEF09C0BA
S11308B08DEF07C084EF05C085EF03C080E001C061
S11308C08CEFDF91CF911F91FF90EF90DF90CF904D
S11308D0BF90AF909F908F900895CF92DF92EF9248
S11308E0FF921F93CF93DF93893008F05DC0182FD8
S11308F0C82FD0E0CC0FDD1FCC0FDD1F2196CC0F0D
S1130900DD1FCC0FDD1FCC0FDD1FBE010D2E000C33
S1130910880B990B28D28F70813009F047C06E0183
S1130920D3940D2C000CEE08FF0848E0C701B60173
S113093081D2C701B60117D28111FBCF81E090E0CB
S1130940012E02C0880F991F0A94E2F79C0120959A
S113095030954091840D5091850D24233523309397
S1130960850D2093840D2091860D3091870D82236F
S11309709323892B71F01CC0BE017E5F072E000CEF
S1130980880B990BF0D183FF04C0812F66DD83EFC0
S113099010C0BE017D5F072E000C880B990BE3D1BC
S11309A08111EACF81E005C08FEF03C08BEF01C056
S11309B080E0DF91CF911F91FF90EF90DF90CF9077
S11309C008952F923F924F925F926F927F928F92EF
S11309D09F92AF92BF92CF92DF92EF92FF920F93CA
S11309E01F93CF93DF9300D000D0CDB7DEB789300B
S11309F008F0C7C05E834D831B01F82EC82ED12C8E
S1130A00CC0CDD1CCC0CDD1C2FEFC21AD20ACC0C92
S1130A10DD1CCC0CDD1CCC0CDD1CB6010D2C000C3B
S1130A20880B990BA0D18F70813009F0AEC04D8135
S1130A305E81452B09F4AEC026015DEF551A052CE5
S1130A40000C66087708C301B2018DD1873119F013
S1130A508C3109F0A4C081E090E04C010F2C02C05D
S1130A60880C991C0A94E2F754018091840D9091AA
S1130A70850D88219921892B61F1C6019E5F9C0116
S1130A80990F440B550B29833A834B835C83CA012A
S1130A90B90169D184FF14C040E169817A818B81F5
S1130AA09C81C8D12091840D3091850DC40180951D
S1130AB09095822393239093850D8093840D09C090
S1130AC083FF72C08F2DC9DC63EF7FEF8FEF9FEF41
S1130AD072C0B601715E072E000C880B990B43D1CE
S1130AE0082F10E0102F0027110F110F4D815E8188
S1130AF00417150708F08A018F2D17D39A83898369
S1130B00C301B20130D1873149F08C3139F08F2DD6
S1130B10A4DC69EF7FEF8FEF9FEF4DC08091860DCE
S1130B209091870D8A219B21892B31F089819A81AB
S1130B308017910708F43CC029813A8120173107B6
S1130B40D8F2A801B1018F2DA0D3D3940D2C000CA1
S1130B50EE08FF0840E2C701B6016CD1C701B60137
S1130B6002D18111FBCF8091840D9091850D882A4B
S1130B70992A9092850D8092840DB80180E090E0CE
S1130B801AC06FEF7FEFCB0116C06BEF7FEF8FEFD3
S1130B909FEF11C062EF7FEF8FEF9FEF0CC069EF03
S1130BA07FEF8FEF9FEF07C060E070E0CB0103C0E1
S1130BB060E070E0CB0126960FB6F894DEBF0FBE5E
S1130BC0CDBFDF91CF911F910F91FF90EF90DF90F8
S1130BD0CF90BF90AF909F908F907F906F905F90D9
S1130BE04F903F902F9008957F928F929F92AF9253
S1130BF0BF92CF92DF92EF92FF920F931F93CF9306
S1130C00DF93893008F090C0EA014B01782EC82E9A
S1130C10D12C8601000F111F000F111F0F5F1F4FF2
S1130C20000F111F000F111F000F111FB801012E1B
S1130C30000C880B990B97D08F70813009F078C025
S1130C40209709F47AC0B801725E072E000C880B55
S1130C50990B89D0A82EB12CBA2CAA24BB0CBB0C9E
S1130C60AC16BD0608F05E01872DB7D2EC01B801C1
S1130C707D5F072E000C880B990B75D0873121F10D
S1130C808C31D9F42097A9F5872D4FD27C01B80176
S1130C90715E072E000C880B990B65D090E0982F9D
S1130CA08827990F990FE816F90671F4872DD5DB7B
S1130CB069EF7FEF8FEF9FEF48C0872DCEDB69EFA1
S1130CC07FEF8FEF9FEF41C081E090E00C2C02C0DA
S1130CD0880F991F0A94E2F72091860D3091870DB1
S1130CE082239323892B11F0209761F1209709F433
S1130CF0BBCFCA15DB0508F0E501AE01B401872DB1
S1130D004BD36801D3940D2C000CEE08FF0840E48B
S1130D10C701B6018FD0C701B60125D08111FBCF21
S1130D20BE0180E090E011C06FEF7FEFCB010DC0FA
S1130D306BEF7FEF8FEF9FEF08C062EF7FEF8FEFD6
S1130D409FEF03C060E070E0CB01DF91CF911F9172
S1130D500F91FF90EF90DF90CF90BF90AF909F9056
S1130D608F907F900895DF92EF92FF920F931F93DD
S1130D70CF93DF9300D0CDB7DEB7F62EE72ED82E73
S1130D8006E012E0D8011896ED91FC911997199597
S1130D90D8011C96ED91FC911D971995F801848951
S1130DA09589892B31F0E0911C02F0911D02309756
S1130DB0C1F406E012E0D8015296ED91FC915397EC
S1130DC08D2D1995D8015296ED91FC9153978E2D46
S1130DD01995D8015296ED91FC9153978F2D199541
S1130DE008C0D982EA82FB8263E070E0CE010196FA
S1130DF0199506E012E0D8015096ED91FC915197B7
S1130E001995F82ED8011E96ED91FC911F9719950E
S1130E10D8011A96ED91FC911B9719958F2D0F907F
S1130E200F900F90DF91CF911F910F91FF90EF9052
S1130E30DF9008954F925F926F927F92BF92CF920C
S1130E40DF92EF92FF920F931F93CF93DF9300D023
S1130E501F92CDB7DEB76B017C01B42E06E012E021
S1130E60D8011896ED91FC9119971995D8011C9603
S1130E70ED91FC911D97199526013701689442F86C
S1130E80D8015696ED91FC9157973097E1F452961C
S1130E90ED91FC9153978E2D1995D8015296ED91B1
S1130EA0FC9153978D2D1995D8015296ED91FC9193
S1130EB05397842D1995D8015296ED91FC9153972F
S1130EC08B2D199509C0E982DA824B82BC8264E0D9
S1130ED070E0CE010196199506E012E0D8011E9645
S1130EE0ED91FC911F971995D8011A96ED91FC91FB
S1130EF01B9719950F900F900F900F90DF91CF9142
S1130F001F910F91FF90EF90DF90CF90BF907F9053
S1130F106F905F904F9008959F92AF92BF92CF923F
S1130F20DF92EF92FF920F931F93CF93DF9300D042
S1130F30CDB7DEB7F62EE72E982E5A01690106E0EA
S1130F4012E0D8011896ED91FC9119971995D801E2
S1130F501C96ED91FC911D971995F801848995894A
S1130F60892B31F0E0911C02F0911D02309751F56C
S1130F7006E012E0D8015296ED91FC915397892D29
S1130F801995D8015296ED91FC9153978E2D199590
S1130F90D8015296ED91FC9153978F2D199500E04D
S1130FA010E00CC07501E00EF11EE0911602F09104
S1130FB017021995F70180830F5F1F4F0C151D054C
S1130FC088F30FC09982EA82FB8263E070E0CE016D
S1130FD001961995E0911A02F0911B02B601C50120
S1130FE0199506E012E0D8011E96ED91FC911F9729
S1130FF01995D8011A96ED91FC911B9719950F90AC
S11310000F900F90DF91CF911F910F91FF90EF9070
S1131010DF90CF90BF90AF909F9008954F925F92D2
S11310206F927F928F929F92AF92BF92CF92DF92F4
S1131030EF92FF920F931F93CF93DF9300D0CDB71E
S1131040DEB76B017C014A01590106E012E0D801C8
S11310501896ED91FC9119971995D8011C96ED916C
S1131060FC911D97199526013701689442F8D8011F
S11310705696ED91FC915797309731F55296ED9134
S1131080FC9153978E2D1995D8015296ED91FC91B0
S113109053978D2D1995D8015296ED91FC91539744
S11310A0842D199500E010E00BC0E0911802F09136
S11310B01902D401A00FB11F8C9119950F5F1F4F16
S11310C00A151B0590F30FC0E982DA824B8263E0B4
S11310D070E0CE0101961995E0911C02F0911D0279
S11310E0B501C401199506E012E0D8011E96ED91F0
S11310F0FC911F971995D8011A96ED91FC911B97B5
S113110019950F900F900F90DF91CF911F910F9130
S1131110FF90EF90DF90CF90BF90AF909F908F9013
S11311207F906F905F904F9008957F928F929F92DF
S1131130AF92BF92CF92DF92EF92FF920F931F93E1
S1131140CF93DF93782E00E010E0C72CD12CCC0C89
S1131150DD1CCC0CDD1C8FEFC81AD80ACC0CDD1CAE
S1131160CC0CDD1CCC0CDD1C460180EE981A092C3D
S1131170000CAA08BB08C501B401F5DDC82FD0E0F6
S1131180DC2FCC278FEDD81A0D2C000CEE08FF08AD
S1131190C701B601E8DDC80FD11D209761F0C50174
S11311A0B401E1DD082F10E0102F0027C701B601BC
S11311B0DADD080F111D0C171D0739F6C801DF9180
S11311C0CF911F910F91FF90EF90DF90CF90BF9040
S11311D0AF909F908F907F9008957F928F929F926F
S11311E0AF92BF92CF92DF92EF92FF920F931F9331
S11311F0CF93DF93782E00E010E0C72CD12CCC0CD9
S1131200DD1CCC0CDD1C8FEFC81AD80ACC0CDD1CFD
S1131210CC0CDD1CCC0CDD1C46018AED981A092C83
S1131220000CAA08BB08C501B4019DDDC82FD0E09D
S1131230DC2FCC2789EDD81A0D2C000CEE08FF0802
S1131240C701B60190DDC80FD11D209761F0C5011B
S1131250B40189DD082F10E0102F0027C701B60163
S113126082DD080F111D0C171D0739F6C801DF9127
S1131270CF911F910F91FF90EF90DF90CF90BF908F
S1131280AF909F908F907F9008952F923F924F92AE
S11312905F926F927F928F929F92AF92BF92CF9202
S11312A0DF92EF92FF920F931F93CF93DF9300D0BF
S11312B01F92CDB7DEB74115510509F456C03A0166
S11312C07A836983282E312C220C331C220C331C84
S11312D061012FEFC21AD20ACC0CDD1CCC0CDD1C30
S11312E0CC0CDD1C46013CED931A092C000CAA0819
S11312F0BB08C501B40137DD082F10E0102F00270B
S11313008BEDD81A0D2C000CEE08FF08C701B601AE
S11313102ADD080F111DC801A0E0B0E04427582FB2
S1131320692F7A2FC10102961C01220C331C220C56
S1131330331C220C331CC101330CAA0BBB0B1A0146
S11313402B01280E391E4A1E5B1EC201B1019301F6
S113135049815A8163DE060D171D412FC501B40171
S113136069DD402FC701B60165DD0F900F900F9026
S11313700F90DF91CF911F910F91FF90EF90DF902D
S1131380CF90BF90AF909F908F907F906F905F9021
S11313904F903F902F9008952F923F924F925F92DB
S11313A06F927F928F929F92AF92BF92CF92DF9271
S11313B0EF92FF920F931F93CF93DF9300D01F926E
S11313C0CDB7DEB74115510509F456C03A017A8309
S11313D06983282E312C220C331C220C331C61010E
S11313E02FEFC21AD20ACC0CDD1CCC0CDD1CCC0CA9
S11313F0DD1C460138ED931A092C000CAA08BB0821
S1131400C501B401B0DC082F10E0102F002787EDD0
S1131410D81A0D2C000CEE08FF08C701B601A3DC96
S1131420080F111DC801A0E0B0E04427582F692F10
S11314307A2FC10103961C01220C331C220C331C8D
S1131440220C331CC101330CAA0BBB0B1A012B0158
S1131450280E391E4A1E5B1EC201B1019301498147
S11314605A815ADD060D171D412FC501B401E2DC76
S1131470402FC701B601DEDC0F900F900F900F9044
S1131480DF91CF911F910F91FF90EF90DF90CF905C
S1131490BF90AF909F908F907F906F905F904F9090
S11314A03F902F9008950895089508950895FB019D
S11314B080810895FB014083089580E00895089594
S11314C008950895009719F06115710559F4E6E03F
S11314D0F2E085E59AE09587848786E59AE0978728
S11314E086870895E6E0F2E09587848777876687A4
S11314F00895209106023091070231FFFACF009738
S113150019F06115710559F4E6E0F2E08DE59AE011
S1131510918B808B8FE59AE0938B828B0895E6E024
S1131520F2E0918B808B738B628B0895209106027D
S11315303091070231FFFACF009719F06115710558
S113154059F4E6E0F2E080E69AE0958B848B81E63C
S11315509AE0978B868B0895E6E0F2E0958B848B76
S1131560778B668B0895CF93DF93CDB7DEB7629701
S11315700FB6F894DEBF0FBECDBF26E030E0AE015B
S1131580435F5F4F60E079E080E090E0C5DC24E0F9
S113159030E0AE014F5F5F4F60E071E080E090E0CB
S11315A0BBDC24E030E0AE014B5F5F4F60E075E0F0
S11315B080E090E0B1DC24E030E0AE01475F5F4FB3
S11315C060E07FE080E090E0A7DC40E860E070E06D
S11315D0CB0130DC60E070E0CB01C5DB26E030E01D
S11315E0AE01435F5F4F60E079E080E090E016DD9C
S11315F024E030E0AE014F5F5F4F60E071E080E0D7
S113160090E00CDD24E030E0AE014B5F5F4F60E022
S113161075E080E090E002DD24E030E0AE01475F59
S11316205F4F60E07FE080E090E0F8DC62960FB608
S1131630F894DEBF0FBECDBFDF91CF910895FF9226
S11316400F931F93CF93DF93EC018B018CDF2097D3
S113165069F430C0FE01E80FF11D87FDFA95208181
S1131660920F91310CF05BC08F5F02C090E080E07C
S1131670883084F3F12C1BC06F2D0F2C000C770BDA
S1131680FE01E60FF71F660F771F660F771F6F5F68
S11316907F4F660F771F660F771F660F771F715E88
S11316A0072E000C880B990B4081C4DBF39487E070
S11316B08F1514F70115110569F480E033C0F801A2
S11316C0E80FF11D87FDFA952081920F91314CF5B9
S11316D08F5F02C090E080E088308CF3C0E01BC0D4
S11316E06C2F0C2E000C770BF801E60FF71F660F1A
S11316F0771F660F771F6F5F7F4F660F771F660F29
S1131700771F660F771F725E072E000C880B990BEC
S1131710408190DBCF5FC8301CF380E003C08FEFC3
S113172001C08FEFDF91CF911F910F91FF9008952A
S1131730CF93C92F482F407F60E075E180E090E0AF
S113174079DB4C2F60E077E180E090E073DBCF91B0
S11317500895CF9360E075E180E090E004DBC82F4A
S1131760C07F60E077E180E090E0FDDA90E0982FC0
S113177088278C0F911DCF910895CF93C92F482F9F
S113178060E076E180E090E055DB4C2F60E078E1AA
S113179080E090E04FDBCF910895CF9360E076E155
S11317A080E090E0E0DAC82F60E078E180E090E04B
S11317B0DADA90E0982F88278C0F911DCF91089545
S11317C060E07EE280E090E0CEDA80FD02C080E05E
S11317D0089581E0089560E07EE280E090E0C3DA5D
S11317E08873803311F481E0089580E0089560E007
S11317F07EE280E090E0B7DA482F4F7760E07EE247
S113180080E090E017DB60E07EE280E090E0ABDA1D
S1131810482F406860E07EE280E090E00BCB0895C2
S1131820FC018081813011F440E401C040E08181F9
S1131830813011F448630EC08381813039F4828190
S1131840813011F4486106C0486004C0828181304F
S113185009F4406160E07EE280E090E0EBDAC7CF1B
S11318600895CF93DF93EC0160E07EE280E090E0A6
S11318707ADA86FB992790F998838873803211F07D
S1131880883319F491E0998301C01982883121F0D9
S1131890803211F0803119F491E09A8301C01A82E8
S11318A0883121F0803211F0883019F481E08B8383
S11318B001C01B82DF91CF910895CF93C82F60E0C0
S11318C07EE280E090E04FDA86FF1DC0877CC13065
S11318D019F4482F406302C0482F486360E07EE259
S11318E080E090E0A7DA83DF60E07EE280E090E0D1
S11318F03ADAC13021F4807341F48FEF09C0887360
S113190031F48FEF05C08FEF03C080E001C080E0A9
S1131910CF9108950F931F93CF93DF9300E010E0CE
S1131920980190E08031910540F4EB01FC01882797
S1131930E656FF4F8F4F0C94B3368FEF71C013DE12
S113194080E06EC0CD2B21F08B019B01285F3F4FBF
S1131950B901C80174DE64C088819981E9DE80E040
S11319605FC0F7DE9983888380E05AC088819981BB
S113197004DF80E055C011DF9983888380E050C084
S1131980498160E073E180E090E054DA488160E0EE
S113199074E180E090E04EDA80E042C060E073E100
S11319A080E090E0E0D9082F10E0102F002760E0DD
S11319B074E180E090E0D7D9080F111D19830883E2
S11319C080E02EC0E6E0F2E082818883838189830F
S11319D084818A8385818B8386818C831D8280E0C8
S11319E01FC005DF80E01CC0CB011ADF80E018C0F7
S11319F0CB0137DF80E014C088815FDF11C0EBDEEC
S1131A008F3F59F0888380E00BC0DADE8F3F39F0D6
S1131A10888380E005C080E003C08FEF01C08FEFB2
S1131A20DF91CF911F910F910895CF93DF93EC0134
S1131A3026E030E0AC0160E079E080E090E0EEDAAE
S1131A40AE01425F5F4F24E030E060E071E080E08F
S1131A5090E0E4DAAE01465F5F4F24E030E060E0FE
S1131A6075E080E090E0DADAAE014A5F5F4F24E08F
S1131A7030E060E07FE080E090E0D0DA8A89E9E855
S1131A80FDE080838B8981838C8982838D89838324
S1131A908E898093880DDF91CF910895CF93DF9342
S1131AA0EC0126E030E0AC0160E079E080E090E019
S1131AB033DAAE01425F5F4F24E030E060E071E072
S1131AC080E090E029DAAE01465F5F4F24E030E029
S1131AD060E075E080E090E01FDAAE014A5F5F4F9E
S1131AE024E030E060E07FE080E090E015DAE9E8AF
S1131AF0FDE080818A8B81818B8B82818C8B8381B9
S1131B008D8B8091880D8E8BDF91CF910895FC0190
S1131B1073836283518340830895FC0180819181A2
S1131B20A281B3818F3F2FEF9207A105B10539F050
S1131B30BC01CD016F5F7F4F8F4F9F4F04C061E0A9
S1131B4070E080E090E060837183828393830895E2
S1131B502F923F924F925F926F927F928F929F92B9
S1131B60AF92BF92CF92DF92EF92FF920F931F93A7
S1131B70CF93DF93EC012A013B011901812C912CB5
S1131B8054011AC0EFA5F8A9C680D780C1010E94EC
S1131B90941E7B018C018C859D85BC01680D791D8B
S1131BA0A30192018FA598A9F6011995992374F0C0
S1131BB0860E971EA81EB91E84149504A604B704A5
S1131BC02CF4C1010E942C1E8823E1F28414950494
S1131BD0A604B70461F4488959896A897B89CE01CE
S1131BE0C1960E946A1E60E070E0CB0103C06FEFF3
S1131BF07FEFCB01DF91CF911F910F91FF90EF9079
S1131C00DF90CF90BF90AF909F908F907F906F9018
S1131C105F904F903F902F9008954F925F926F92F4
S1131C207F92AF92BF92CF92DF92EF92FF920F9387
S1131C301F93DC01D0967C936E939F97412C512C7B
S1131C4032010EC0F201EE0FFF1FEE0FFF1FEA0F6D
S1131C50FB1F128E118E8FEF481A580A680A780AF1
S1131C6085E0481651046104710464F314962D93BD
S1131C703D934D935C9317971D961C930E931C975D
S1131C801996FC92EE9218971F96DC92CE921E97AC
S1131C901B96BC92AE921A9755961D921D921D9258
S1131CA01C92589754961C9254979E961C921E927E
S1131CB09D97CD01C1960E94B31E1F910F91FF9075
S1131CC0EF90DF90CF90BF90AF907F906F905F9038
S1131CD04F9008952F923F924F925F926F927F920E
S1131CE08F929F92AF92BF92CF92DF92EF92FF9228
S1131CF00F931F93CF93DF9300D01F921F92CDB702
S1131D00DEB71C016B012A833B834C835D83DB01BB
S1131D101D921D921D921C921397412C512C32013D
S1131D20812C912C54018394BFEF4B1A5B0A6B0AEC
S1131D307B0AE5E04E165104610471040CF051C0B5
S1131D40D1019F968D919C91D097DC011496ED91D1
S1131D50FC911597EA80FB800C811D8121E030E025
S1131D6040E050E0BE016F5F7F4F1995613071050F
S1131D7081059105B1F5F980AF2DAF77B0E0A501EC
S1131D8094010E94BB36F6010081118122813381C6
S1131D90DC01CB01800F911FA21FB31F80839183AD
S1131DA0A283B383880C991CAA1CBB1C880C991CA5
S1131DB0AA1CBB1C880C991CAA1CBB1C880C991C53
S1131DC0AA1CBB1C880C991CAA1CBB1C880C991C43
S1131DD0AA1CBB1C880C991CAA1CBB1CFF200CF45D
S1131DE0A3CFC301B2010F900F900F900F900F90EB
S1131DF0DF91CF911F910F91FF90EF90DF90CF90E3
S1131E00BF90AF909F908F907F906F905F904F9016
S1131E103F902F9008954F925F926F927F928F928E
S1131E209F92AF92BF92CF92DF92EF92FF920F9365
S1131E301F93CF93DF9300D01F92CDB7DEB76C0111
S1131E405B0119821A821B821C82DC019F96ED9130
S1131E50FC91D09784809580CB010E94941E7B01D5
S1131E608C01F6016685778521E030E040E050E0A2
S1131E7087A590A9F4011995613071058105910533
S1131E8009F055C0C5010E94941E9B01AC01BE011E
S1131E906F5F7F4FC6011EDFD6011E968D919C9108
S1131EA01F9749815A816B817C8101960E946A182F
S1131EB02B013C01BFEF4B1A5B0A6B0A7B0A498179
S1131EC05A816B817C8114161506160617061CF5BB
S1131ED0D6019F96ED91FC91D09784809580C501A1
S1131EE00E94941E7B018C01F601868597852981C9
S1131EF03A814B815C81BC01640D751D87A590A955
S1131F00F401199509811A812B813C8160177107AD
S1131F108207930781F4D6011E96ED91FC911F97D9
S1131F20608162956F7070E080E090E007C06FEFB1
S1131F307FEFCB0103C06FEF7FEFCB010F900F90CA
S1131F400F900F90DF91CF911F910F91FF90EF9021
S1131F50DF90CF90BF90AF909F908F907F906F90C5
S1131F605F904F900895CF93DF93EC01DB011696B9
S1131F70ED91FC91179712964D915D916D917C9125
S1131F8015974E0F5F1F20C080818F3211F49F324E
S1131F9009F59B3221F0933211F098131BC09B3248
S1131FA069F4DF01119603C03196DF011196A4177D
S1131FB0B50740F49C919F32B9F704C0933211F4F1
S1131FC0FA013197219631969881992319F0E417F3
S1131FD0F507D0F2E417F50721F4992321F080E006
S1131FE003C080E001C081E0DF91CF9108954F925A
S1131FF05F926F927F928F929F92AF92BF92CF9295
S1132000DF92EF92FF920F931F93CF93DF9300D051
S11320101F92CDB7DEB78C017B016A01412C512C94
S1132020320188248A94982C540145C0F201EE0FA1
S1132030FF1FEE0FFF1FE00FF11F618D728D611501
S11320407105A1F1C7010E94B81A672B682B692B8F
S113205069F4F201EE0FFF1FEE0FFF1FE00FF11FF7
S1132060B701818D928D7FDF882301F1F201EE0F9C
S1132070FF1FEE0FFF1FE00FF11F838D948D892B3F
S1132080A9F0A601B701CE01019641DDF201EE0FE0
S1132090FF1FEE0FFF1FE00FF11F038CF48DE02DE7
S11320A0CE0101961995812C912C54018FEF481A79
S11320B0580A680A780AA5E04A16510461047104B2
S11320C00CF4B4CFBFEF8B169B06AB06BB06A9F48A
S11320D0F80185A596A5892B81F0A601B701CE014B
S11320E0019615DDD8019D96ED91FC919E97CE0148
S11320F001961995812C912C5401C501B4010F90BE
S11321000F900F900F90DF91CF911F910F91FF903F
S1132110EF90DF90CF90BF90AF909F908F907F9083
S11321206F905F904F9008950F931F93CF93DF9319
S1132130CDB7DEB728970FB6F894DEBF0FBECDBF7C
S1132140FC014089518962897389452B462B472BB1
S1132150B9F18C01C1960E942C1E8823A9F1F801C3
S11321608489811135C0CE0101960E94B31E48EEC8
S113217053E060E070E0CE0101960E944D1EF8012C
S11321804085518560E070E08485958597D6161664
S113219017061806190684F49E012F5F3F4FAB0102
S11321A0BC01C801D5DC611571058105910599F45F
S11321B021E0F801248B0FC06FEF7FEFCB010BC040
S11321C060E070E0CB0107C06FEF7FEFCB0103C08D
S11321D06FEF7FEFCB0128960FB6F894DEBF0FBEEA
S11321E0CDBFDF91CF911F910F9108952F923F9210
S11321F04F925F926F927F928F929F92AF92BF9213
S1132200CF92DF92EF92FF920F931F93CF93DF93BE
S1132210CDB7DEB762970FB6F894DEBF0FBECDBF61
S11322204C011B01F8DD2B013C016530710509F4FB
S113223080C06D30710509F4C4C06330710509F0C4
S1132240C6C0F40182859385A684B7841F921F9229
S11322509F938F93CE0108966C01FE0136967F0101
S11322608E01065F1F4F9E012C5F3F4FAE014E5FF4
S11322705F4FBE016F5F7F4F059723D60F900F907E
S11322800F900F90613071058105910509F049C0E7
S11322900000AE014F5F5F4FB801C401A8DE898121
S11322A0882309F442C0813081F4EC80FD80F4017C
S11322B04085518560E070E000E024E084859585E8
S11322C00E94CC1BAB01BC0115C0823081F4EC80B0
S11322D0FD80F4014085518560E070E000E025E078
S11322E0848595850E94CC1BAB01BC0103C040E0F2
S11322F050E0BA01141615061606170634F49101B7
S1132300C40126DC6B017C0104C0CC24CA94DC2CFF
S11323107601FFEFCF16DF06EF06FF0609F05AC07D
S11323205BC0C12CD12C760157C0C12CD12C7601B5
S113233051C0F401E284F38400E010E0268537857F
S1132340AE014F5F5F4FBE016E5E7F4FCE010A96B6
S113235055D66130710581059105F1F4E980FA8063
S1132360F4014085518560E070E000E026E084855A
S113237095850E94CC1B16161706180619068CF4B0
S11323809101AB01BC01C401E3DB6B017C01672B50
S1132390682B692B59F40EC0CC24CA94DC2C76012A
S11323A009C0CC24CA94DC2C760104C0CC24CA9481
S11323B0DC2C7601FFEFCF16DF06EF06FF0651F4A3
S11323C00BC0F401148AC12CD12C760103C0C12C9A
S11323D0D12C7601C401A8DEC114D104E104F104B6
S11323E021F473016201EE24FF24FFEFCF16DF0610
S11323F0E104F10421F4CC24CA94DC2C7601C70155
S1132400B60162960FB6F894DEBF0FBECDBFDF9162
S1132410CF911F910F91FF90EF90DF90CF90BF90DD
S1132420AF909F908F907F906F905F904F903F9070
S11324302F900895CF92DF92EF92FF920F931F9304
S1132440CF93DF93CDB7DEB728970FB6F894DEBFEE
S11324500FBECDBF8C016A017B01CE0101960E94A3
S1132460B31EB701A601CE0101960E944D1E0AC0FB
S1132470BE016F5F7F4FC801B9DE6F3F7F4F8F4F43
S11324809F4F51F0CE0101960E942C1E882381F3A8
S113249060E070E0CB0103C06FEF7FEFCB012896C3
S11324A00FB6F894DEBF0FBECDBFDF91CF911F9161
S11324B00F91FF90EF90DF90CF9008958F929F92AD
S11324C0AF92BF92CF92DF92EF92FF920F931F933E
S11324D0CF93DF938C014A015B01E901CC24CA94B8
S11324E0DC2C7601CE010E942C1E81110AC0BE0193
S11324F0C8017CDE6B017C01681579058A059B05A2
S113250089F7C701B601DF91CF911F910F91FF9019
S1132510EF90DF90CF90BF90AF909F908F900895F1
S1132520EF92FF920F931F93CF93DF93CDB7DEB754
S1132530C554D1090FB6F894DEBF0FBECDBF7C01E0
S11325408B018BE3EEE1FAE0DE01199601900D9226
S11325508A95E1F7CE0101960E94B31EF7014481EA
S1132560558166817781CE0101960E944D1EF70147
S113257085899689A789B08D892B8A2B8B2B09F0A5
S113258063C00115110519F48E01075F1F4FF8018F
S11325904785508960E070E0F701408B518B628B76
S11325A0738BC701C1960E946A1EF701408551854D
S11325B060E070E098018485958519D3AB01BC0176
S11325C014161506160617060CF042C09E012F5F5E
S11325D03F4FC701BDDA611571058105910509F009
S11325E03EC09E012F5F3F4F42E050E060E070E04C
S11325F0C70164DF623071058105910569F58FEFCC
S113260026968FAF269725961FAE2597F70102854C
S1132610138520E030E046855785BE016B5B7F4F14
S1132620CE018C5B9F4FD1D361307105810591053B
S113263039F426966FAD269770E080E090E00FC0E5
S11326406FEF7FEFCB010BC06FEF7FEFCB0107C0C4
S11326506FEF7FEFCB0103C06FEF7FEFCB0161150D
S113266071058105910549F401E010E020E030E0B6
S1132670F701058B168B278B308FCB5BDF4F0FB6A3
S1132680F894DEBF0FBECDBFDF91CF911F910F91A4
S1132690FF90EF9008952F923F924F925F926F9226
S11326A07F928F929F92AF92BF92CF92DF92EF92DE
S11326B0FF920F931F93CF93DF93CDB7DEB76F973E
S11326C00FB6F894DEBF0FBECDBF3C017D8F6C8F7B
S11326D04B8F3F8F2E8F1B861C861D861E86188A65
S11326E01F867A876987CE0101960E94B31EF30183
S11326F04481558166817781CE0101960E944D1EE9
S1132700F30185899689A789B08D892B8A2B8B2B18
S113271009F49AC0C30101DA8B019C01F3014085DD
S1132720518560E070E0CE014B964C01FE01399674
S11327305F01C12CD12C7601C39420E0F301848580
S113274095850E946A1CAB01BC0114161506160679
S113275017060CF07EC09E012F5F3F4FC301F8D9CE
S11327601B012C01672B682B692B09F07BC09E0190
S11327702F5F3F4F49E050E060E070E0C3019EDE10
S1132780693071058105910509F068C01D8A1E8AAA
S11327901F8A188E8FEF9FEFDC01898B9A8BAB8B8E
S11327A0BC8BF301A284B384C12CD12CE684F784BE
S11327B08E010F5E1F4F9E012B5E3F4F41E050E0A4
S11327C060E070E0CE0149960E94081D61307105F9
S11327D08105910529F449895A896B897C8902C04C
S11327E0B201A101403851056105710511F529C0F7
S11327F0FC01EE0FFF1FEE0FFF1FE60DF71D218DED
S1132800328D232B91F4880F991F880F991FF301A0
S1132810E80FF91F8C8D9D8D928F818F8E8D9F8DEA
S1132820948F838FB201A1010CC00196A11DB11D2B
S113283003C080E090E0DC0185309105A105B1057D
S1132840BCF21A012B010EC022242A94322C21013D
S113285009C022242A94322C210104C022242A945F
S1132860322C2101C201B1016F960FB6F894DEBF7C
S11328700FBECDBFDF91CF911F910F91FF90EF90CD
S1132880DF90CF90BF90AF909F908F907F906F908C
S11328905F904F903F902F9008954F925F926F9268
S11328A07F928F929F92AF92BF92CF92DF92EF92DC
S11328B0FF920F931F93CF93DF93CDB7DEB7649747
S11328C00FB6F894DEBF0FBECDBF4C015A011B8674
S11328D01C861D861E86188A1F867A876987CE0104
S11328E001960E94B31EF40144815581668177816B
S11328F0CE0101960E944D1EF40185899689A7890F
S1132900B08D892B8A2B8B2B09F4A6C0F50180810D
S11329108150823028F4C40100D9F50174836383A3
S1132920F5014780508425813681C380D480E180BD
S11329300081F4014085518560E070E084859585CF
S11329401F921F925F924F923F932F932DB73EB7E2
S1132950285031090FB6F8943EBF0FBE2DBFADB756
S1132960BEB7119628E0FE01399601900D922A9582
S1132970E1F720E07FD6AB01BC010FB6F894DEBFCF
S11329800FBECDBF14161506160617060CF069C047
S11329909E012F5F3F4FC401DBD82B013C01672B05
S11329A0682B692B09F06BC0F5018081813051F5EA
S11329B09E012F5F3F4F44E050E060E070E0C401AF
S11329C07DDD643071058105910509F04FC0F40186
S11329D0E284F38400E010E026853785AE014F5E83
S11329E05F4FBE016C5E7F4FCE01439607D36130CB
S11329F071058105910509F442C044244A94542C7C
S1132A0032013DC08230D9F59E012F5F3F4F47E030
S1132A1050E060E070E0C40151DD6730710581056C
S1132A20910549F5F401E284F38400E010E0268581
S1132A303785AE014F5E5F4FBE016C5E7F4FCE01A6
S1132A404396DCD26130710581059105C1F04424BF
S1132A504A94542C320113C044244A94542C320115
S1132A600EC044244A94542C320109C044244A948C
S1132A70542C320104C044244A94542C3201C3011E
S1132A80B20164960FB6F894DEBF0FBECDBFDF91DE
S1132A90CF911F910F91FF90EF90DF90CF90BF9057
S1132AA0AF909F908F907F906F905F904F9008951C
S1132AB08F929F92AF92BF92CF92DF92EF92FF924A
S1132AC0CF93DF93EC018E81833031F0843061F059
S1132AD0C12CD12C76010FC00F2EFCE0CF2ED12CAF
S1132AE0E12CF12CF02D07C00F2EFAE0CF2ED12CC3
S1132AF0E12CF12CF02D2F81388549855A856B8581
S1132B007C858D859E8506D5DC01CB010296A11DB1
S1132B10B11DC80ED91EEA1EFB1E8A89882331F115
S1132B20298D3A8D4B8D5C8D6D8D7E8D8F8D98A109
S1132B30F1D44B015C0122E0820E911CA11CB11C5A
S1132B4029A13AA14BA15CA16DA17EA18FA198A559
S1132B50E1D4DC01CB01880D991DAA1DBB1D029691
S1132B60A11DB11DC80ED91EEA1EFB1E8BA59CA576
S1132B70892B21F489A99AA9892B91F02BA53CA52D
S1132B804DA55EA56FA578A989A99AA9C3D4DC012E
S1132B90CB010296A11DB11DC80ED91EEA1EFB1E53
S1132BA08BA99CA9892B21F489AD9AAD892B91F02D
S1132BB02BA93CA94DA95EA96FA978AD89AD9AADA1
S1132BC0A9D4DC01CB010296A11DB11DC80ED91EEA
S1132BD0EA1EFB1EC701B601DF91CF91FF90EF9073
S1132BE0DF90CF90BF90AF909F908F9008954F92B9
S1132BF05F926F927F92AF92BF92DF92EF92FF92B9
S1132C000F931F93CF93DF9300D000D0CDB7DEB7DF
S1132C105C012A013B0179019A838983C90148DF58
S1132C206B837C838D839E8333D346165706680655
S1132C3079060CF4B2C060E1CE0101967AD34B81DF
S1132C405C816D817E8189819A8144D229813A8116
S1132C50620F731F7A836983F7018681843051F48C
S1132C606EED7AE0CE0101969CD364E0CE0101962C
S1132C7060D309C063EE7AE0CE01019692D363E09B
S1132C80CE01019656D3D12CF701818980FBD1F86E
S1132C90928981E0911101C080E080FBD2F8D2FEDC
S1132CA00DC0F70182A58370880F880F880F9D2DB2
S1132CB0977ED92ED82A81A580FBD5F8F70183A564
S1132CC094A5892B21F481A992A9892B11F06894E8
S1132CD0D7F8F70183A994A9892B21F481AD92AD8A
S1132CE0892B11F06894D6F86D2DCE01019621D36D
S1132CF0F7014785508960E070E0CE01019623D347
S1132D00F7010781108521853285438554856585C2
S1132D107685CE0101966DD3F70182898823B9F0B7
S1132D20018D128D238D348D458D568D678D70A147
S1132D30CE0101965ED3F70101A112A123A134A112
S1132D4045A156A167A170A5CE01019652D37D2C51
S1132D50DD2064F4F70103A514A525A536A547A530
S1132D6050A961A972A9CE01019643D376FE0CC085
S1132D70F70103A914A925A936A947A950AD61AD46
S1132D8072ADCE01019635D369817A816A197B09C6
S1132D90072E000C880B990B04C06EEF7FEF8FEFAA
S1132DA09FEF26960FB6F894DEBF0FBECDBFDF911E
S1132DB0CF911F910F91FF90EF90DF90BF90AF9054
S1132DC07F906F905F904F900895EF92FF920F93D2
S1132DD01F93CF93DF9300D000D0CDB7DEB77C0133
S1132DE08B015A834983CE0101969BD2807F803226
S1132DF019F5BE016D5F7F4F89819A8177D2298150
S1132E003A81260F371F3A8329832B813C81223054
S1132E103105ACF0CE01019684D287FB882780F976
S1132E20F7018083CE0101967CD2F801808361E0B2
S1132E3070E080E090E003C060E070E0CB01269693
S1132E400FB6F894DEBF0FBECDBFDF91CF911F91B7
S1132E500F91FF90EF9008950F931F93CF93DF93FB
S1132E601F921F92CDB7DEB79A83898342305105F2
S1132E7061057105C4F08C01622F6295607FCE01FB
S1132E80019657D240E050E0BA0189819A8122D15B
S1132E9029813A81620F731F601B710B072E000C8E
S1132EA0880B990B04C06EEF7FEF8FEF9FEF0F90AD
S1132EB00F90DF91CF911F910F9108952CE0CCCF0B
S1132EC008952F923F924F925F926F927F928F92CA
S1132ED09F92AF92BF92CF92DF92EF92FF920F93A5
S1132EE01F93CF93DF93CDB7DEB728970FB6F8942F
S1132EF0DEBF0FBECDBF3C011B012A0138872F83E3
S1132F00BA82A9821B821C821D821E82CE01019676
S1132F1008D2982F907F903309F052C083FB9927F1
S1132F2090F9F3019083982F96959370F101908313
S1132F308170F2018083BE016D5F7F4F89819A8128
S1132F40D5D14B015C0169807A80660E771E7A8246
S1132F5069828B819C81680E791EA301BE016F5F1B
S1132F607F4FC80199D2672B682B692B61F1898146
S1132F709A819301281B390BC901992324F1F1018A
S1132F808081882339F0CE010196B8D1EF81F8858C
S1132F907183608329813A81C301821B930B092EBB
S1132FA0000CAA0BBB0BF60180839183A283B3832D
S1132FB0F70131832083812C912C5401839403C025
S1132FC0812C912C5401C501B40128960FB6F894B4
S1132FD0DEBF0FBECDBFDF91CF911F910F91FF9048
S1132FE0EF90DF90CF90BF90AF909F908F907F90A5
S1132FF06F905F904F903F902F900895CF92DF9203
S1133000EF92FF920F931F93CF93DF9300D000D0E2
S1133010CDB7DEB77C016B018A013A832983CE01E7
S113302001967FD183FB992790F9F60190838295CD
S11330308F70F7018083BE016D5F7F4F89819A8114
S113304055D129813A81260F371F3A8329832B8151
S11330503C812230310554F0CE0101964FD1F80164
S11330607183608361E070E080E090E026960FB6A3
S1133070F894DEBF0FBECDBFDF91CF911F910F91AA
S1133080FF90EF90DF90CF9008950F931F93CF930D
S1133090DF93EC0100E010E0980110C0E0918D0D89
S11330A0F0918E0DDF011196B0938E0DA0938D0DCE
S11330B0908198830F5F1F4F2F4F3F4F04171507C1
S11330C0260737075CF3CB01BA01DF91CF911F913B
S11330D00F9108958F929F92AF92BF92CF92DF92F9
S11330E0EF92FF920F931F93C12CD12C760102C053
S11330F0750164018A019B010F771127222730781B
S1133100332364F4015011092109310900681F6F48
S11331102F6F3F6F0F5F1F4F2F4F3F4F4A015B01D0
S113312077232CF42FE7820E911CA11CB11CB5014E
S1133130A401689416F87595679557954795169464
S1133140D1F714161506160617060CF40068460186
S113315057012FEF821A920AA20AB20AFC01EC0D5F
S1133160FD1D008314161506160617060CF2C5017C
S1133170B4011F910F91FF90EF90DF90CF90BF901B
S1133180AF909F908F9008954F925F926F927F922D
S11331909F92AF92BF92CF92DF92EF92FF920F93E2
S11331A01F93CF93DF931F92CDB7DEB75C018B01E2
S11331B0DB011D921D921D921C921397412C512CE0
S11331C03201C12CD12C7601C394BFEF4B1A5B0A98
S11331D06B0A7B0AE5E04E165104610471040CF09D
S11331E044C041E050E060E070E0CE010196F5019A
S11331F019956130710581059105B9F59980A92D5D
S1133200AF77B0E0A70196010E94BB36D8012D919B
S11332103D914D915C91DC01CB01820F931FA41F62
S1133220B51FF80180839183A283B383CC0CDD1C8A
S1133230EE1CFF1CCC0CDD1CEE1CFF1CCC0CDD1C9E
S1133240EE1CFF1CCC0CDD1CEE1CFF1CCC0CDD1C8E
S1133250EE1CFF1CCC0CDD1CEE1CFF1CCC0CDD1C7E
S1133260EE1CFF1C99200CF4B0CFC301B2010F90E7
S1133270DF91CF911F910F91FF90EF90DF90CF904E
S1133280BF90AF909F907F906F905F904F90089504
S11332900F931F938B019C010F5F1F4F2F4F3F4FC5
S11332A000381105210531052CF46E5F7F4F8F4FD7
S11332B09F4F19C0011540E41407210531052CF472
S11332C06D5F7F4F8F4F9F4F0EC00F3F1F4F2F419A
S11332D031052CF46C5F7F4F8F4F9F4F04C06B5FA1
S11332E07F4F8F4F9F4F1F910F91089590938E0D95
S11332F080938D0D85E498E147CF0895DC01ED912D
S1133300FC911197608170E0762F66278181680FA8
S1133310711D072E000C880B990B3296ED93FC93CC
S11333200895DC01ED91FC9111978191ED93FC934B
S11333300895FC01A081B1816C93808191810196F3
S1133340918380830895CF93DF93FC01C081D18161
S1133350DB01CA01772324F481509F4FAF4FBF4F45
S11333609883A081B181CD010196918380835527F3
S11333706627707877235CF441505109610971091B
S11333805F6F6F6F7F6F4F5F5F4F6F4F7F4F119610
S11333904C9380819181019691838083DF91CF91B9
S11333A00895EF92FF920F931F93CF93DF938C01B5
S11333B07B01EB0109900020E9F72197C61BD70B8D
S11333C0AE0160E070E0BFDFAE01B701F8018081BB
S11333D091810E942938F80180819181C80FD91FF9
S11333E0D183C083DF91CF911F910F91FF90EF9014
S11333F00895AF92BF92CF92DF92EF92FF920F9314
S11334001F93CF93DF93CDB7DEB728970FB6F89409
S1133410DEBF0FBECDBF5C0109831A832B833C83BF
S11334204D835E836F837887CB80DC80ED80FE8064
S11334301C141D041E041F049CF4B701A60183DFA1
S11334406F817885A601F501808191810E942938D8
S1133450F50180819181C80ED91ED182C0820BC032
S113346069817A816115710511F09BDF04C040E028
S113347050E0BA0168DF28960FB6F894DEBF0FBE9D
S1133480CDBFDF91CF911F910F91FF90EF90DF900F
S1133490CF90BF90AF900895EF92FF920F931F9338
S11334A0CF93DF938C01EB017A01888199819A0192
S11334B0281B390B22303105E4F0CB011FDFF80162
S11334C0628373838483958328813981A901460F9C
S11334D0571FE416F50688F037832683288139813F
S11334E0620F731F7983688361E070E080E090E08D
S11334F007C060E070E0CB0103C060E070E0CB0186
S1133500F80111821082DF91CF911F910F91FF90EA
S1133510EF900895CF93DF93CDB7DEB728970FB61A
S1133520F894DEBF0FBECDBF29833A834B835C83FF
S11335306D837E838F839887E981FA81309749F080
S1133540DF010D900020E9F71197BD016E1B7F0B81
S113355002C06B817C81072E000C880B990B289686
S11335600FB6F894DEBF0FBECDBFDF91CF910895A3
S11335700F931F93CF93DF93EB01FC01A081B181E3
S1133580109759F0FD0101900020E9F73197AF0140
S11335904A1B5B0B60E070E007C0FC01A681B781A9
S11335A04281538164817581FE0101900020E9F715
S11335B031978F010C1B1D0B20E030E040175107A1
S11335C06207730749F4BE01CD010E944638892B76
S11335D031F060E070E005C060E070E002C061E0DE
S11335E070E0072E000C880B990BDF91CF911F918F
S11335F00F910895BF92CF92DF92EF92FF920F93B3
S11336001F93CF93DF93CDB7DEB728970FB6F89407
S1133610DEBF0FBECDBFB82EB22FA32FF42FE52FE0
S1133620862F972F202F312F4B2F5A2F6F2F7E2F1E
S113363071DFDC01CB010296A11DB11DBC01CD01DE
S11336406C0D7D1D8E1D9F1DBB2021F06E5F7F4F75
S11336508F4F9F4F28960FB6F894DEBF0FBECDBF95
S1133660DF91CF911F910F91FF90EF90DF90CF905A
S1133670BF9008953F924F925F926F927F928F9284
S11336809F92AF92BF92CF92DF92EF92FF920F93ED
S11336901F93CF93DF9300D01F92CDB7DEB74C01B9
S11336A02A013B01322EB02EAE2CDC82CB829A83CF
S11336B08983CBA0DCA0EDA0FEA0098D1A8D2B8DF3
S11336C03C8D4D8D5E8D6F8D78A18B2D93DF6B01BD
S11336D07C01DEDD46165706680679060CF442C006
S11336E060E330FA63F98B2D8370880F697F682B50
S11336F0A0FA60F9CE0101961CDEB701A60189810A
S11337009A81E8DC29813A81620F731F7A83698385
S1133710098D1A8D2B8D3C8D4D8D5E8D6F8D78A10D
S1133720CE01019666DEBB2041F08B819C81AC0109
S113373060E070E0CE01019606DE4BA15CA169A1B8
S11337407AA189819A810E94293869817A818BA121
S11337509CA1680F791F68197909072E000C880B42
S1133760990B04C06EEF7FEF8FEF9FEF0F900F90D8
S11337700F900F90DF91CF911F910F91FF90EF90D9
S1133780DF90CF90BF90AF909F908F907F906F907D
S11337905F904F903F900895EF92FF920F931F9385
S11337A0CF93DF931F921F92CDB7DEB7FC01FA834C
S11337B0E98344305105610571057CF1822F8295BE
S11337C0807F00FB83F991E0263009F090E08F01BF
S11337D0990F682F697F862F892B682FCE01019658
S11337E0A8DD42E050E060E070E089819A8172DCFB
S11337F029813A81620F731F7A836983A70160E08C
S113380070E0CE0101969FDD69817A81601B710BA6
S1133810072E000C880B990B04C06EEF7FEF8FEF1F
S11338209FEF0F900F90DF91CF911F910F91FF9019
S1133830EF9008954F925F926F927F928F929F9232
S1133840AF92BF92CF92DF92EF92FF92CF93DF932A
S11338502B013C01EA01C12CD12C7601812C912C45
S11338605401689481F820C0F601EE0FFF1FEE0F9B
S1133870FF1FEE0FFF1FEC0FFD1F208131814281DE
S11338805381648175818681978144DEDC01CB019B
S11338900396A11DB11D880E991EAA1EBB1E8FEF93
S11338A0C81AD80AE80AF80AC414D504E604F704C6
S11338B0DCF2C501B401DF91CF91FF90EF90DF906E
S11338C0CF90BF90AF909F908F907F906F905F90BC
S11338D04F9008952F923F924F925F926F927F92F2
S11338E08F929F92AF92BF92CF92DF92EF92FF920C
S11338F00F931F93CF93DF93CDB7DEB727970FB600
S1133900F894DEBF0FBECDBF1C012A013B012F83FB
S11339109A838983A501C701B6018CDF6B837C83FD
S11339208D839E83B5DC46165706680679060CF42B
S113393052C060E88F8180FB63F9697F6260CE01C9
S11339400196F7DC4B815C816D817E8189819A814E
S1133950C1DB29813A81620F731F7A836983A801CD
S113396060E070E0CE010196EEDC412C512C320176
S113397024C0F201EE0FFF1FEE0FFF1FEE0FFF1F1B
S1133980EA0DFB1D0081118122813381448155811F
S113399066817781CE0101962CDDF201EE0FFF1FC7
S11339A0EE0FFF1FE80DF91D6081CE010196C1DC09
S11339B08FEF481A580A680A780A4C145D046E049A
S11339C07F04BCF269817A8162197309072E000CA5
S11339D0880B990B04C06EEF7FEF8FEF9FEF279654
S11339E00FB6F894DEBF0FBECDBFDF91CF911F910C
S11339F00F91FF90EF90DF90CF90BF90AF909F908A
S1133A008F907F906F905F904F903F902F9008958C
S1133A104F925F926F927F928F929F92AF92BF92DA
S1133A20CF92DF92EF92FF920F931F93CF93DF9386
S1133A3000D000D0CDB7DEB74C012A013B016901AB
S1133A40FA82E982CE0101966CDC807F803909F02C
S1133A5053C0BE016D5F7F4F89819A8147DC298104
S1133A603A81260F371F3A832983AB80BC80A20E8C
S1133A70B31EA501421B530B423051050CF443C045
S1133A80CE0101963BDCF40171836083F601108260
S1133A9011821282138226C0F60180819181A28153
S1133AA0B381481659066A067B0654F1AC01BD0180
S1133AB04F5F5F4F6F4F7F4F4083518362837383A8
S1133AC0880F991F880F991F7801E80EF91ECE01FF
S1133AD0019627DC90E0A0E0B0E0F70180839183B9
S1133AE0A283B38389819A818A159B05A8F261E038
S1133AF070E080E090E007C060E070E0CB0103C0BC
S1133B006FEF7FEFCB0126960FB6F894DEBF0FBEA2
S1133B10CDBFDF91CF911F910F91FF90EF90DF9078
S1133B20CF90BF90AF909F908F907F906F905F9059
S1133B304F900895CF92DF92EF92FF920F931F93CD
S1133B40CF93DF93EC018B0169017A01888199811C
S1133B50AA81BB81880F991FAA1FBB1F880F991FB9
S1133B60AA1FBB1F0196A11DB11D880F991FAA1F73
S1133B70BB1F880F991FAA1FBB1F880F991FAA1F5D
S1133B80BB1FBC01CD017D5F8F4F9F4F0E94B306C9
S1133B90873159F488810E94ED08892B51F0A601E0
S1133BA0B80188810E94F40507C060E070E0CB0191
S1133BB003C060E070E0CB01DF91CF911F910F91C2
S1133BC0FF90EF90DF90CF900895CF92DF92EF9225
S1133BD0FF920F931F93CF93DF93EC018B01690145
S1133BE07A0188819981AA81BB81880F991FAA1FB4
S1133BF0BB1F880F991FAA1FBB1F0196A11DB11DD2
S1133C00880F991FAA1FBB1F880F991FAA1FBB1FCC
S1133C10880F991FAA1FBB1FBC01CD017D5F8F4F69
S1133C209F4F0E94B306873131F4A601B801888101
S1133C300E94E10403C060E070E0CB01DF91CF910A
S1133C401F910F91FF90EF90DF90CF900895FC01AA
S1133C5080810C946D040895CF92DF92EF92FF92CD
S1133C60FC01C480D580E680F78046D5092E000C7F
S1133C70AA0BBB0BA7019601281B390B4A0B5B0B44
S1133C80DA01C9018827B7FD83959927AA27BB279D
S1133C90FF90EF90DF90CF900895CF92DF92EF9254
S1133CA0FF92CF93DF93EC016A017B0125D5092EA6
S1133CB0000CAA0BBB0BC80ED91EEA1EFB1ECC823D
S1133CC0DD82EE82FF82DF91CF91FF90EF90DF9053
S1133CD0CF900895CF92DF92EF92FF920F931F93AC
S1133CE0CF93DF93EC016A017B0106D58C01A8EE2A
S1133CF0B3E0A70196010E94BB36012E000C220BF3
S1133D00330BDC01CB01800F911FA21FB31F8C83E7
S1133D109D83AE83BF83DF91CF911F910F91FF905D
S1133D20EF90DF90CF900895CF92DF92EF92FF92C1
S1133D30FC01C480D580E680F780DED4092E000C17
S1133D40AA0BBB0BA7019601281B390B4A0B5B0B73
S1133D50CA01B9011AF460E070E0CB01FF90EF9062
S1133D60DF90CF900895FC01148215821682178289
S1133D700895FC018AE99DE19583848385EE9DE1A4
S1133D809783868387E29EE1918780870895EF92E7
S1133D90FF920F931F93CF93DF93EC018B017A0172
S1133DA020E049E350E361E088810E949D02A7017D
S1133DB0B80188810E949A0360E070E0CB01DF9132
S1133DC0CF911F910F91FF90EF9008952BE732E26E
S1133DD0FC013183208380E00895EF92FF920F93DA
S1133DE01F93CF93DF93EC018B017A01B801888193
S1133DF099810E943D38892B39F48B819C81F7018C
S1133E009183808380E006C00D80DE81C02D2097E1
S1133E1069F782E0DF91CF911F910F91FF90EF90AE
S1133E200895CF93DF93EC01EFD0CE01E8D007D112
S1133E30882311F081E001C080E0DF91CF910895E3
S1133E40CF93DF93EC01A0918F0DB091900D9C91D5
S1133E50923259F51196B093900DA0938F0D90E086
S1133E6016C0FD01E20FF31F4081423279F481E074
S1133E708883BA83A98310822F5F3F4FA20FB31F99
S1133E80B093900DA0938F0D80E010C09F5F292FF9
S1133E9030E0FD0101900020E9F73197EA1BFB0BAC
S1133EA02E173F07F0F281E001C081E0DF91CF914E
S1133EB00895DF92EF92FF920F931F93CF93DF93B6
S1133EC08C01E0908F0DF090900DE701D12C0DC086
S1133ED0F701E80FF91F608170E08AEE9AE00E9412
S1133EE03238892B71F02196D3948D2D90E0F7010F
S1133EF001900020E9F73197EE19FF098E179F070B
S1133F0038F3CE018E199F091816190694F4D88037
S1133F10188282E0F8018083C7010E942937F801E2
S1133F2092838183D882D093900DC0938F0D80E0CB
S1133F3001C081E0DF91CF911F910F91FF90EF902D
S1133F40DF900895CF93DF939C01E0918F0DF09162
S1133F50900D90819923C9F1E901C90171DF88238A
S1133F60B1F18130B1F5CE01A4DF8823A1F1813014
S1133F70A1F5E0918F0DF091900D80818A33E1F0ED
S1133F8028F4803249F08C32A1F029C08B3759F0E3
S1133F908D3761F08C3519F53196F093900DE093DF
S1133FA08F0D81E01DC083E0888308C084E088838E
S1133FB005C086E0888302C085E088833196F0934B
S1133FC0900DE0938F0D80E00BC082E009C080E08B
S1133FD007C083E005C080E003C083E001C083E044
S1133FE0DF91CF910895CF93DF93EC01ABDF02C053
S1133FF0CE01A8DF8130E1F3DF91CF910895909352
S1134000900D80938F0D08951092910D0895209135
S1134010910D2A3088F4822F90E0AC01440F551F93
S1134020440F551F440F551F840F951F2F5F209376
S1134030910D85589D4D089580E090E008956F920C
S11340407F928F929F92AF92BF92CF92EF92FF9204
S11340501F93CF93DF9300D0CDB7DEB7E091920DDD
S1134060EA3008F00EC181E08E0F8093920DF0E0EB
S1134070EE0FFF1FEE0FFF1FED56F24F108211825D
S11340801282138281E08183E12CF12C612C712C4A
S113409010E0F1C0E150E093920DF0E0EE0FFF1F4D
S11340A0EE0FFF1FED56F24FC180A280B3809081C6
S11340B0913009F441C020F0923009F47CC0DBC097
S11340C0CE01019690DF8111B1C0CC2021F089810D
S11340D0833009F0C1C08981833009F0BFC097DF04
S11340E03C01892B09F4A4C0E114F10429F081E016
S11340F0F701828370866782CE01019674DF811195
S113410099C08981843009F4ABC0E091920DEA3002
S113411008F092C081E08E0F8093920DF0E0EE0FD4
S1134120FF1FEE0FFF1FED56F24F10821182128215
S1134130138281E080839FC08981813009F092C01D
S11341408A819B81F30191838083CE0101964BDFA9
S1134150811174C08981853009F086C0E091920D87
S1134160EA3008F06DC081E08E0F8093920DF0E08C
S1134170EE0FFF1FEE0FFF1FED56F24F108211825C
S11341801282138292E09083738262828A3008F0F2
S113419059C091E0980F9093920DE82FF0E0EE0F44
S11341A0FF1FEE0FFF1FED56F24F10821182128295
S11341B01382730160C0133031F48A819B81F3014F
S11341C09483838302C0111151C0CE0101960BDF89
S11341D081113AC08981843009F44AC0863009F0DB
S11341E049C08A2C9B2C740112DF3C01F401968394
S11341F08583892B59F1CE010196F5DE811128C002
S1134200E091920DEA3030F581E08E0F8093920DAB
S1134210F0E0EE0FFF1FEE0FFF1FED56F24F10827E
S113422011821282138281E0808325C081E02AC03A
S113423082E028C081E026C082E024C081E022C060
S113424082E020C082E01EC081E01CC082E01AC06F
S113425081E018C082E016C011E00DC013E00BC06D
S113426010E009C011E007C011E005C011E003C06F
S113427010E001C011E0E091920DE1110BCF812F0C
S113428001C082E00F900F900F90DF91CF911F91AA
S1134290FF90EF90CF90BF90AF909F908F907F90C2
S11342A06F9008951092290E08950895CF93DF9387
S11342B0EC0185EF9AE09F938F930E94B238EF81CF
S11342C0F885868180937627109277270F900F9038
S11342D0DF91CF9108952091290E211120C02CE661
S11342E0EEE1F2E0ACEBBDE001900D922A95E1F72E
S11342F0EAE2FEE09683858382E087838087818774
S11343008CEB9DE09387828784E0848782E591E249
S113431096878587CF01F3D781E08093290E08958E
S1134320FC01A781B085828559968C935997838522
S11343305A968C935A975C968D919C915D97909325
S11343407526809374265B968C9180937326808166
S11343509181C1DF81E08093B50E08950F931F937F
S1134360CF93DF938C01C0E0D0E010C008D68091D9
S1134370BB0D8D3619F481E090E0ADDF8091BB0D6B
S11343808D3618F48F5F8093BB0D2196C017D1072B
S113439068F38BE39EE00E9417328BE39EE00E9459
S11343A06132DF91CF911F910F91089580E090E0E9
S11343B0DED685E392E1E2D68FE00E94E23081E02E
S11343C00E94DE3060E971E281E0DFD666E571E2E9
S11343D082E0DBD6EBE3FEE084E190E0A0E0B0E035
S11343E086839783A087B187128685E591E29487B7
S11343F0838708958091480E811104C0D7DF81E03E
S11344008093480E0895CF93DF931F921F92CDB7E8
S1134410DEB78091A1279091A227009711F09C010B
S113442002C02CEA37E2CE010196821B930B0F9057
S11344300F90DF91CF9108958BB18F7E8BB9089542
S11344408BB180618BB908951EBC0DB407FEFDCFFE
S11344508EB508958EBD0DB407FEFDCF0895FC0101
S113446020E030E009C01EBC0DB407FEFDCF8EB5C0
S113447080832F5F3F4F319626173707A0F30895A7
S1134480FC0120E030E00AC0CF01019640814EBD1E
S11344900DB407FEFDCF2F5F3F4FFC0126173707F2
S11344A098F308950F931F93CF93DF93CDB7DEB79F
S11344B0C05CD1090FB6F894DEBF0FBECDBF20910A
S11344C0590A30915A0A3A832983FE0133964EE3FE
S11344D0DF011D924A95E9F723963FAF2EAF23974C
S11344E0E05CFF4F2EE7DF011D922A95E9F7FC01FE
S11344F0008111810280F381E02D42815381648126
S1134500758186819781BC01CE0101960E94543841
S1134510D80115966D917C91169717964D915C91E3
S11345201897CE018F5B9F4F0E94543868E07BE060
S1134530CE0101960E943D38892B61F481E080937D
S1134540500EF801658176814781508581E59EE0B2
S11345500E945438CE018F5B9F4F9F938F9380545A
S113456091099F938F9384EE93E09F938F930E947E
S1134570C5380F900F900F900F900F900F90C0546C
S1134580DF4F0FB6F894DEBF0FBECDBFDF91CF91E2
S11345901F910F910895AF92BF92CF92DF92EF9245
S11345A0FF920F931F93CF93DF93CDB7DEB7299775
S11345B00FB6F894DEBF0FBECDBF8C017B016A013C
S11345C05901A89580914A0E90914B0EA0914C0EE2
S11345D0B0914D0E0196A11DB11D80934A0E90938A
S11345E04B0EA0934C0EB0934D0EBF93AF939F937D
S11345F08F9380ED93E09F938F930E94C538198227
S113460080917126909172269C012F5F3F4F3093C9
S11346107226209371269D838C83B986A886DF82B7
S1134620CE82AE014F5F5F4FB701C8010E944D14A7
S11346300F900F900F900F900F900F90672B682B97
S1134640692B59F41092490E88EC93E09F938F9351
S11346500E94C5380F900F9019C08DEB93E09F9383
S11346608F930E94C5388091490E91E0980F9093E2
S1134670490E0F900F90853148F080E893E09F93A6
S11346808F930E94C5380F900F90FFCF29960FB6D5
S1134690F894DEBF0FBECDBFDF91CF911F910F9174
S11346A0FF90EF90DF90CF90BF90AF9008951F924E
S11346B00F920FB60F9211248F939F93AF93BF93D2
S11346C080916D2490916E24A0916F24B0917024F8
S11346D00196A11DB11D80936D2490936E24A09327
S11346E06F24B0937024BF91AF919F918F910F90DD
S11346F00FBE0F901F901895F89460916D247091DF
S11347006E2480916F249091702478940895803160
S11347109105D9F04CF48430910589F088309105E5
S113472089F0029749F41DC080349105A1F08038C6
S11347309105A1F0809761F080E090E0089582E017
S113474090E0089583E090E0089584E090E0089577
S113475085E090E0089586E090E0089587E090E099
S1134760089581E090E00895CF93DF93A89589E9B7
S11347709AE080933923809176279091772784302B
S1134780910509F43EC058F481309105B1F008F464
S113479080C082309105E9F0039739F186C08630F4
S11347A0910509F449C0C8F18730910509F453C053
S11347B08138910509F45EC078C08091732690E039
S11347C0A6DF880F991FFC01E157F64FC081D18104
S11347D06EC08091732690E09ADF880F991FFC01C8
S11347E0E55DF64FC081D18162C08091732690E06F
S11347F08EDF880F991FFC01E953F74FC081D181E7
S113480056C08091732690E082DF880F991FFC01C7
S1134810ED59F74FC081D1814AC08091732690E051
S113482076DF22E3AC01249FC001259F900D112463
S1134830EC01CD54DC4F3BC08091732690E067DFE0
S113484022E3AC01249FC001259F900D1124EC01AB
S1134850CD5BDA4F2CC08091732690E058DF22E3C1
S1134860AC01249FC001259F900D1124EC01CD5271
S1134870D94F1DC08091732690E049DF22E3AC013B
S1134880249FC001259F900D1124EC01CD5DDD4FC7
S11348900EC08091732690E03ADF880F991FFC01C7
S11348A0E157F64FC081D18102C0C9E9DAE0DF9354
S11348B0CF9389E19BE09F938F9389E393E29F9346
S11348C08F930E941C39809175268F938091742652
S11348D08F93DF93CF9386E29BE09F938F9385ED35
S11348E092E29F938F930E941C3990936C23809340
S11348F06B238DB79EB70E960FB6F8949EBF0FBE6E
S11349008DBFDF91CF910895CF93DF9300D000D076
S1134910CDB7DEB71A82198284DA882321F080E3C6
S11349209BE00E94EC38CE01019650DAAE014D5F57
S11349305F4F66E47BE089819A814FDA811106C07A
S11349408B819C819093020A8093010AAE014B5F94
S11349505F4F61E57BE089819A813FDA811106C06E
S11349608D819E8190934F0E80934E0E26960FB6A6
S1134970F894DEBF0FBECDBFDF91CF910895CF93E2
S1134980DF93CDB7DEB728970FB6F894DEBF0FBE1E
S1134990CDBF88E0EBE9FAE0DE01119601900D92BB
S11349A08A95E1F760E272E28CE192E20E94620A87
S11349B06AE272E284E292E20E94790A60E472E2BC
S11349C08FE292E20E94960ABE016F5F7F4FCB0195
S11349D00E941F0B83E09AE00E94150D28960FB6E3
S11349E0F894DEBF0FBECDBFDF91CF910895F89448
S11349F014BC15BCEEE6F0E0108282E084BD83E0D6
S1134A0085BD89EF87BD8081826080837894089515
S1134A1099E288E10FB6F894A895809360000FBEE0
S1134A2090936000A895E3DF80E096E90E94CB3282
S1134A3083EF99E09093A8278093A727789408950B
S1134A400F931F93CF93DF93CDB7DEB76D970FB658
S1134A50F894DEBF0FBECDBF8E010F5F1F4F86E0FF
S1134A60F80111928A95E9F7B80188E00E948A0C4E
S1134A708BEA92E09F938F930E94C5381F930F9304
S1134A8086E992E09F938F930E94C5388CE692E06A
S1134A909F938F930E94C538CE0107960E944E0DB6
S1134AA08D8D0FB6F894DEBF0FBECDBF813049F4B3
S1134AB080E692E09F938F930E94C5380F900F90E9
S1134AC008C086E592E09F938F930E94C5380F90AB
S1134AD00F905C854B853A85298598858F811F9237
S1134AE05F931F924F931F923F931F922F931F9296
S1134AF09F931F928F938BE59BE09F938F930E94CC
S1134B00B23838892F859E858D851F923F931F92D9
S1134B102F931F929F931F928F9388E89BE09F93FC
S1134B208F930E94B2383C892B899A8989891F9274
S1134B303F931F922F931F929F931F928F9383EA09
S1134B409BE09F938F930E94B238388D2F899E8962
S1134B508D890FB6F894DEBF0FBECDBF1F923F9371
S1134B601F922F931F929F931F928F938EEB9BE024
S1134B709F938F930E94B2383C8D2B8D9A8D898D93
S1134B801F923F931F922F931F929F931F928F9375
S1134B9089ED9BE09F938F930E94B2380FB6F894EF
S1134BA0DEBF0FBECDBF6D960FB6F894DEBF0FBE4D
S1134BB0CDBFDF91CF911F910F910895CF93DF93D4
S1134BC0CDB7DEB7CE5ED1090FB6F894DEBF0FBE07
S1134BD0CDBF0E94AF311CDF76D115DC9F938F933C
S1134BE085E693E09F938F930E94C5380F900F90B2
S1134BF00F900F9083E01AC085B18F7E85B92FEF97
S1134C0030E782E0215030408040E1F700C00000EE
S1134C1085B1806185B92FEF33EC89E021503040B4
S1134C208040E1F700C00000A895892F9FEF980FFE
S1134C308111E2CFA4DE04DF85E090E0A0E0B0E0E3
S1134C40A9968CAF9DAFAEAFBFAFA997EAE1FAE0EA
S1134C5033812281918180811F923F931F922F93F0
S1134C601F929F931F928F9383E393E09F938F935D
S1134C700E94C538CE018B599F4F7BD84BE557E036
S1134C806AE17AE0CE018B599F4F81D8A12C6894B8
S1134C90BB24B1F80F2EF1E7CF2EF4E2DF2EF02D76
S1134CA00F2EF4E6EF2EF12CF02D8E010F5F1F4F27
S1134CB028EE33E040E050E0BE016B597F4FCE0157
S1134CC081599F4F0E940D0E8BE3E3EAFAE0DE0167
S1134CD0A855BF4F01900D928A95E1F7C654DF4F56
S1134CE01882CA5BD04084E0C255DF4F8883CE5A15
S1134CF0D04084EF9BE0C155DF4F99838883CF5A1E
S1134D00D04085E09CE0CD52DF4F99838883C35D1A
S1134D10D04089E99AE0C552DF4F99838883CB5DFF
S1134D20D0408CE390E0C954DF4F99838883C75BFC
S1134D30D04081E0C754DF4F8883C95BD040BE01B7
S1134D4068557F4FCE0181599F4F0E9490120FB634
S1134D50F894DEBF0FBECDBF6115710581059105C5
S1134D60B9F59F938F937F936F9383E193E09F9320
S1134D708F930E94C5387E0133EEE30EF11C8CE064
S1134D80EEE0FCE0D70101900D928A95E1F722E56F
S1134D9032E240E0B701CE0181599F4F0E944B138C
S1134DA09F938F937F936F93FF92EF928EEF92E096
S1134DB09F938F930E94C5389FDC4B015C019CDC60
S1134DC06B017C010FB6F894DEBF0FBECDBF11C0DE
S1134DD09F938F937F936F9380EE92E09F938F9333
S1134DE00E94C5380F900F900F900F900F900F9066
S1134DF0FFCF0E94B6315CD1FDDAA8958091500EA8
S1134E00882329F081E59EE07FDD1092500E809189
S1134E10B50E8823E9F0A8DC20916B2330916C2334
S1134E2045ED52E269E373E2CE0181599F4FB3DB52
S1134E301092B50E80914E0E90914F0E892B41F039
S1134E4087ED92E09F938F930E94C5380F900F9047
S1134E5053DCAB01BC01481959096A097B098091EB
S1134E60010A9091020AA0E0B0E084179507A60712
S1134E70B70768F441DC4B015C01A89544E650E0B7
S1134E8060E070E0CE0181599F4F0E941A1234DC19
S1134E90DC01CB018C199D09AE09BF09893E934001
S1134EA0A105B10508F4A5CF27DC6B017C010E94A4
S1134EB0E00B813021F485B18F7E85B99ACF85B11D
S1134EC0806185B996CF8AB180618AB98BB18061DE
S1134ED08BB984B1866084B985B1866085B98AB19D
S1134EE080648AB980E58CBD1DBC089514BE0FB6DC
S1134EF0F894A89580916000886180936000109276
S1134F0060000FBEE1E6F0E080E8808310827894D0
S1134F1001C008951092782780E197E29093A90048
S1134F208093A800E1EAF0E088E0808380818260D9
S1134F308083E2E7F0E080818260808308951F929D
S1134F400F920FB60F9211248F93809178278F5F61
S1134F50809378278F910F900FBE0F901F90189514
S1134F601F920F920FB60F9211248F9381E08093BA
S1134F70B60E8F910F900FBE0F901F9018954FB7DC
S1134F80F894E9EBFEE02085318580819181BC01B4
S1134F906F5F7F4F71836083D901A80FB91F8C9114
S1134FA060817181248135816217730721F4109225
S1134FB0BA0E1092B90EE9EBFEE02681378121503A
S1134FC03109378326834FBF08951F920F920FB67E
S1134FD00F9211240BB60F928F93EF93FF9381E0FE
S1134FE08093B80EE9ECF0E080818F7D8083FF919F
S1134FF0EF918F910F900BBE0F900FBE0F901F90EB
S113500018951F920F920FB60F9211240BB60F92A0
S11350102F933F934F935F936F937F938F939F93BC
S1135020AF93BF93EF93FF938091C8002091CE007C
S11350308C7159F5E9EBFEE04681578184819581B5
S11350404817590711F14085518582819381BC012C
S11350506F5F7F4F73836283DA01A80FB91F2C93AC
S113506022813381848195812817390721F4109294
S1135070BC0E1092BB0EE9EBFEE08681978101968F
S11350809783868381E08093B70EFF91EF91BF9160
S1135090AF919F918F917F916F915F914F913F91CC
S11350A02F910F900BBE0F900FBE0F901F9018956D
S11350B08091C90E9091CA0E009769F12091B80EA3
S11350C0222349F1E3ECFEE0608571852081318182
S11350D0A9014F5F5F4F51834083DB01A20FB31FD0
S11350E02C91648175814617570721F41092C40EE0
S11350F01092C30E01979093CA0E8093C90E9FB766
S1135100F8942093CE00E9ECF0E080818062808303
S11351101092B80E9FBF2FB7F8949091B70E1092CB
S1135120B70E4091BF0E5091C00E2FBF992311F0BE
S1135130CA0114C90895E9E7F7E2148215821182BD
S1135140108217A216A280E00AC0E82FF0E033967E
S1135150EE0FFF1FE758F84D118210828F5F8031E8
S1135160A0F33AD68DD506D1C5D0BDC1089590938C
S11351707A27809379270C94F830089590937C27AC
S113518080937B270C94E6300895E82FF0E0339663
S1135190EE0FFF1FE758F84D718360830895C3D560
S11351A046D7D1C00895A091CD0EB091CE0EA817C8
S11351B0B90741F42D913C913093CE0E2093CD0E3E
S11351C00BC0DF01ED91FC9111978E179F07C9F772
S11351D0208131812D933C93E9E7F7E226A137A1A1
S11351E02150310937A326A3DC011D96ED91FC91D2
S11351F01E97199508950F931F93CF93DF938C01F6
S1135200C6D0EC01009729F482E0F80184838787F3
S113521050C0F8019383828381E08483FE01E957BF
S1135220FF4F8EE599E291838083F801818582FBAB
S1135230882780F9FE01EA57FF4F8083F8019185A2
S11352408B8590FB80F98B87918593FB992790F947
S113525090FB82F98B87E9E7F7E284818F5F84838F
S11352608C87808191819E878D87F80185819681C5
S1135270988B8F878085982F9F708989807F892B51
S1135280898B97819295907F8F70892B898B448528
S113529062857385FE01EF57FF4F50E08081918155
S11352A00E942938F80184859981890F8983CE0168
S11352B0B6D5DF91CF911F910F910895E091CD0E56
S11352C0F091CE0E13C0228133812817390759F487
S11352D0DC01AD57BF4F2C91278713962C91208B5F
S11352E022E0248305C00190F081E02D309759F726
S11352F07FC008951092CE0E1092CD0E0895FC0139
S11353001482178613821282A9E7B7E296968D91CA
S11353109C919797019697969C938E9396978091DC
S1135320CD0E9091CE0E009739F411821082F09335
S1135330CE0EE093CD0E089591838083F093CE0E2C
S1135340E093CD0E0895E091CD0EF091CE0E0FC0F6
S11353508481882319F0823021F006C0CF014BCF1D
S11353600895CF0120CF08950190F081E02D30976A
S113537079F7089580E008C099E8899FF001112425
S1135380E153F14F10828F5F8E31B0F3089580E0C6
S11353902AC0282F30E099E8929FF001939FF00DE6
S11353A01124E153F14F908191111CC069E8629F6F
S11353B0A001639F500D1124CF0111926A95E9F762
S11353C020E1FC0121834F51514FEF57FF4F51838F
S11353D04083E9E7F7E226A137A12F5F3F4F37A3C8
S11353E026A308958F5F8E31A0F280E090E00895A7
S11353F0FC011082E9E7F7E286A197A1019797A340
S113540086A30895009721F0FC01E757FF4F08C0D9
S1135410EFECFEE005C08081811109C0E757FF4F22
S11354208EE1ED3DF807B8F380E090E008958E2F0B
S11354309F2F0895FC01DC01AD57BF4F1C92A9E7D3
S1135440B7E214969C9114979F5F14969C931497BB
S113545094878D919C9196878587089590E012C0DA
S1135460292F30E0F901EE0FFF1FEE0FFF1FEE0FA3
S1135470FF1FE21BF30BE352F14E858186958F5F8C
S113548085839F5F943660F30895DF92EF92FF92D5
S11354900F931F93CF93DF938C017B01D42E77DF7F
S11354A0EC010097C1F0C6DF89818A5F8983FE0120
S11354B0E957FF4F11821082188B0F87369701909E
S11354C0F081E02D81E0808312830183F482E38202
S11354D0D582CE01A4D4DF91CF911F910F91FF907B
S11354E0EF90DF90089580E016C0282F30E0F90196
S11354F0EE0FFF1FEE0FFF1FEE0FFF1FE21BF30B5C
S1135500E352F14E2FEF3FEF3283218390819E7F50
S1135510908315828F5F843640F30895CF93DF9391
S1135520EC0190E02AC0292F30E0F901EE0FFF1FB3
S1135530EE0FFF1FEE0FFF1FE21BF30BE352F14EC2
S1135540418152814C175D07B9F4F901EE0FFF1F39
S1135550EE0FFF1FEE0FFF1FE21BF30BE352F14EA2
S1135560808181FBAA27A0F9B0E0462F50E0A41760
S1135570B50711F4CF0105C09F5F9436A0F280E017
S113558090E0DF91CF91089580E0A0E0B0E0EDEDF0
S1135590FEE113C0908190FD0EC09581992381F0A6
S11355A0109731F015962C911597921718F003C0A7
S11355B0DF0101C0DF018F5F3796843658F3FD01A8
S11355C080818D708063808380E88583CF01089516
S11355D0FC01808180FD05C08FEF9FEF9283818362
S11355E0158208959BDF009721F0FC01838194814B
S11355F008958FEF9FEF089591DF009709F0E8CFAA
S113560008950F931F93CF93DF93FC0101851285B7
S1135610112334F4858596850817190709F050C0BD
S113562085819681019609F44BC0EF0160E0858580
S1135630968574DFDC01892B79F18F819885019639
S113564059F42091792730917A278F8598892817E2
S1135650390721F080E003C080E001C081E0982F89
S1135660917013962D913C9114970217130749F0EA
S1135670FE01ED57FF4F208116968C9116978217E5
S113568010F09923B9F014961C930E9313978C91F0
S11356908F7080638C930EC077DFDC018D859E85CF
S11356A012969C938E93119789859A8514969C9350
S11356B08E931397FE01ED57FF4F808116968C93BE
S11356C0DF91CF911F910F910895CF93DF93FC0148
S11356D0878590898F3F2FEF920781F1EF016385D2
S11356E063FB662760F91ADFDC01892B39F18C91A1
S11356F080FD24C0FE01ED57FF4F808181110EC053
S11357008C918F7080638C9315968C9115978F5F15
S113571015968C938F3F91F4A1DE10C09C91892F34
S113572082958F70815F8F70282F2295207F9F70C4
S1135730922B9C93811102C0CD014ADFDF91CF915E
S11357400895CF93DF93FC01878590898F3F2FEFD6
S1135750920729F48FEF9FEF908787830EC02385EC
S113576022FF03C09087878308C0EF01638563FB32
S1135770662760F937DF98878F83DF91CF9108958B
S1135780EF92FF921F93CF93DF93EC011B8513FBE2
S1135790112710F9EF84F888612FC70123DF0196E0
S11357A059F0FE01E957FF4F11821082319782E0D0
S11357B08083CE0134D307C0412FB7018D859E85E8
S11357C064DECE0115DEDF91CF911F91FF90EF9043
S11357D00895DC011796ED91FC91189719968C9118
S11357E0863031F465818381948106DF81E00895F8
S11357F080E00895EF92FF920F931F93CF93DF936E
S1135800CDB7DEB72C970FB6F894DEBF0FBECDBF71
S1135810DC0151968C91519782958F70E82FF0E0BE
S11358203396EE0FFF1FE758F84DE080F180E11446
S1135830F10409F467C01D964D915C911E975A833B
S113584049831F966D917C9150977C836B8351960D
S11358509C9151979F709D838E83CD018F579F4F4D
S1135860FC01808191819987888711962C911197E9
S11358708D010E5F1F4F801B910B281B2A87CD01C2
S11358808D579F4FFC0180818B87CD018C579F4F93
S1135890FC0180818C871B962C911B97922F917011
S11358A0822F8270982B22FF02C080E201C080E028
S11358B0982B23FF02C080E401C080E0982B6F3F47
S11358C07F4F11F484E001C080E0982B19962D914C
S11358D03C911A974217530711F488E001C080E005
S11358E0982B15962D913C9116972F3F3F4F11F40D
S11358F080E101C080E0892B8F83CE010196F701FE
S1135900199501C080E02C960FB6F894DEBF0FBE47
S1135910CDBFDF91CF911F910F91FF90EF9008952C
S1135920DC0119962C911997222371F01796ED91A9
S1135930FC9118972081222319F0213019F006C018
S113594004C3089546CF089580E0089580E0089543
S1135950BC0190E080E01CC0292F30E0F901EE0F7B
S1135960FF1FEE0FFF1FE20FF31FE955FE4D4481A9
S1135970442369F0F901EE0FFF1FEE0FFF1F2E0FF6
S11359803F1FF901E955FE4D4150448381E09F5F7B
S11359909A3010F3882311F0CB0193C508950F9327
S11359A01F93CF93DF93EC0190E060E070E080C040
S11359B0292F30E0F901EE0FFF1FEE0FFF1FE20F5A
S11359C0F31FE955FE4D4481442309F46DC00B8552
S11359D01C85A081B1810A171B0709F065C0F90174
S11359E0EE0FFF1FEE0FFF1FE20FF31FE955FE4DF1
S11359F082819A85891B8830E0F5F901EE0FFF1F3B
S1135A00EE0FFF1FE20FF31FE955FE4D9381492F5F
S1135A1050E0082E02C0559547950A94E2F740FFDE
S1135A2013C02091792730917A278D819E81281780
S1135A30390709F053C0698563FB662760F98D85D2
S1135A409E85DADD81E04DC041E050E002C0440FA4
S1135A50551F8A95E2F7F901EE0FFF1FEE0FFF1FA6
S1135A602E0F3F1FF901E955FE4D942B938380E0DF
S1135A7038C08195F901EE0FFF1FEE0FFF1F2E0FA7
S1135A803F1FF901E955FE4D9283238130E0A901BE
S1135A9002C0440F551F8A95E2F7CA0181608383CF
S1135AA08FE1848380E01DC0411101C0BF019F5F6D
S1135AB09A3008F47DCF6115710591F08B859C8532
S1135AC0FB01918380838A85828381E083838FE1D4
S1135AD0848389E991E2F5D480E003C081E001C0C8
S1135AE081E0DF91CF911F910F9108950F931F9340
S1135AF0CF93DF93FC018C010E5F1F4F84E2808300
S1135B00838581FD54C083FD52C0258136812F3F9A
S1135B103F4F79F42091792730917A2787859089AE
S1135B202817390719F0019609F041C082E28083F1
S1135B303EC0278530892F3F3F4F11F480FD37C089
S1135B402091792730917A278585968528173907FA
S1135B5071F1EF01CF0155DDC80121DF811127C0AB
S1135B608F819885019671F42091792730917A2755
S1135B708F8598892817390729F08B8582FD02C003
S1135B80CE019FD12091792730917A278F859889EA
S1135B902817390711F0019619F482E2888307C0A7
S1135BA08F8198852817390711F483E28883DF9160
S1135BB0CF911F910F9108950F931F93CF93DF936C
S1135BC08C01E5DBEC01009731F134DC89818D5FD8
S1135BD08983FE01E957FF4F11821082D8011B9679
S1135BE08C911B97869581709B8580FB91F99B878F
S1135BF01D968D919C911E97988B8F873697019057
S1135C00F081E02D10828091A62182831C968C91D4
S1135C108183CE0104D1DF91CF911F910F9108951B
S1135C20CF93DF93EC011092A621E4DD9B8590FFD6
S1135C3080E02F8138852F3F3F4F59F440917927D9
S1135C4050917A272F8538894217530711F493FF0F
S1135C5081E02D813E812F3F3F4F09F480E0209168
S1135C60792730917A272F3F3F4F09F480E088232A
S1135C7011F0CE01A1DF84E28883DF91CF910895F2
S1135C8020E00EC0822F90E0FC01EE0FFF1FEE0F0C
S1135C90FF1F8E0F9F1FFC01E955FE4D14822F5FDD
S1135CA02A3080F3E9E9F1E284E690E0A0E0B0E094
S1135CB086839783A087B187128688EA9CE29487BB
S1135CC0838760E97CE280E060CA0895CF93DF9324
S1135CD0DC01ED91FC912181283811F520812136D8
S1135CE011F02134E9F4FC0122812031C8F0EC01E7
