S013000050726F6A6563745F4C574D2E73726563EB
S113000078C10000A6C10000A4C10000A2C1000084
S1130010A0C100009EC100009CC100009AC1000064
S113002098C1000096C1000094C1000092C1000074
S113003090C100000C942D158CC100008AC10000F1
S113004088C1000086C1000084C1000082C1000094
S113005080C100000C9417137CC100007AC1000019
S113006078C1000076C1000074C1000072C10000B4
S113007070C100006EC100006CC100006AC10000C4
S113008068C1000066C1000064C1000062C10000D4
S11300900C94A5150C9489155CC100005AC100008C
S11300A058C1000056C100000C941C1552C1000038
S11300B050C100004EC100004CC100004AC1000004
S11300C048C1000046C1000044C1000042C1000014
S11300D040C100003EC100003CC100003AC1000024
S11300E038C1000036C1000034C1000032C1000034
S11300F030C100002EC100002CC100002AC1000044
S113010028C1000026C1000024C1000022C1000053
S113011020C100001EC100001CC100001AC1000063
S113012018C1000016C1000014C1000012C1000073
S113013010C100002B112E113D113811421147112D
S11301404C115A116E117D1180118411971188116F
S11301508B1191116E616E00696E660000407A1019
S1130160F35A00A0724E18090010A5D4E80000E864
S11301707648170000E40B54020000CA9A3B0000C2
S113018000E1F505000080969800000040420F0051
S11301900000A08601000000102700000000E80312
S11301A0000000006400000000000A0000000000DD
S11301B00100000000002C76D888DC674F0823DF9C
S11301C0C1DFAE59E1B1B796E5E3E453C63AE6516F
S11301D0997696E8E6C28426EB898C9B62ED407C96
S11301E06FFCEFBC9C9F40F2BAA56FA5F490055A32
S11301F02AF75C936B6CF9676DC11BFCE0E40D4757
S1130200FEF520E6B500D0ED902E03009435770579
S11302100080841E080000204E0A000000C80C3331
S11302203333330F986E12831141EF8D2114893BC0
S1130230E65516CFFEE6DB18D1844B381BF77C1D40
S1130240901DA4BBE424203284725E228100C9F193
S113025024ECA1E53D27444843502049500D0A00B1
S11302605354415449432049500D0A003D3D3D3DFE
S11302703D3D3D3D3D3D3D3D3D3D3D3D3D3D3D3DAA
S11302803D3D3D3D3D3D3D3D3D3D3D3D3D3D3D3D9A
S11302903D3D3D0D0A002057495A6E657420636840
S11302A069703A20202573200D0A000D0A3D3D3D5A
S11302B03D3D3D3D3D3D3D3D3D3D3D3D3D3D3D3D6A
S11302C03D3D3D3D3D3D3D3D3D3D3D3D3D3D3D3D5A
S11302D03D3D3D3D0D0A003E3E204672656520527F
S11302E0414D2069733A2025642062797465730D49
S11302F00A0011241FBECFEFD1E8DEBFCDBF00E05E
S11303000CBF84B78093AB1A14BE0FB6F894A895AB
S113031080916000886180936000109260000FBE3D
S113032014E0A0E0B2E0EAE4FDE400E00BBF02C0A8
S113033007900D92A030B107D9F72AE1A0E0B4E00C
S113034001C01D92AB3AB207E1F70E9454140C9419
S1130350A32656CE4F925F926F927F92AF92BF9236
S1130360DF92EF92FF920F931F93CF93DF9300D00E
S11303701F92CDB7DEB7D82E7B01A42EB52E082F41
S113038010E0000F111F000F111F0F5F1F4F000F10
S1130390111F000F111F000F111FB8017D5F072EE1
S11303A0000C880B990B0E94F30A833109F4B0C046
S11303B020F4882309F4CDC0E5C0873121F08C31C5
S11303C009F488C0DFC028012EEF521A052C000C56
S11303D066087708C301B2010E94F30A80FF43C094
S11303E0B801745F072E000C880B990B24E030E0F1
S11303F0AE014F5F5F4F0E94CC0BB801705F072EB8
S1130400000C880B990B0E94F30AA82EB12CBA2C6D
S1130410AA24B8017F5E072E000C880B990B0E945A
S1130420F30AA80EB11C3C812B819A818981BF9269
S1130430AF921F923F931F922F931F929F931F92ED
S11304408F931F92DF9280E592E09F938F930E9497
S1130450E72541E0C301B2010E945A0B0FB6F8949C
S1130460DEBF0FBECDBF8D2D0E942D0D009709F468
S11304708EC0813028E0920710F080E098E0AC0153
S1130480B7018D2DE5D416161706180619060CF0BB
S113049083C05B0100E010E015C0A501401B510BB7
S11304A0B701600F711F8D2DC0D32B013C0199231F
S11304B03CF48D2D7FD1442D352D262D972D7EC0D6
S11304C0060F171F0A151B0541F741E030E020E035
S11304D090E074C08D2D35D3082E000C990BAA0B17
S11304E0BB0B81309105A105B10509F059C01F92DC
S11304F0DF9282E792E09F938F930E94E7250F900B
S11305000F900F900F9041E030E020E090E056C053
S1130510BF92AF921F92DF9285E892E09F938F93F0
S11305200E94E7258D2DB3D2082E000C990BAA0B3F
S1130530BB0B0F900F900F900F900F900F90813086
S11305409105A105B10589F1482F392F2A2F9B2F39
S113055035C020E04A2D5B2D61E08D2D9BD1082E06
S1130560000C990BAA0BBB0B4D2D50E060E070E022
S113057084179507A607B707E9F0482F392F2A2FC4
S11305809B2F1CC041E030E020E090E017C041E028
S113059030E020E090E012C0462F372F282F0EC005
S11305A0482F392F2A2F9B2F09C041E030E020E04B
S11305B090E004C041E030E020E090E0642F732F2D
S11305C0822F0F900F900F900F90DF91CF911F917A
S11305D00F91FF90EF90DF90BF90AF907F906F905E
S11305E05F904F9008954F925F926F927F928F9297
S11305F09F92AF92BF92DF92EF92FF920F931F935D
S1130600CF93DF9300D000D0CDB7DEB7D82E7B01D7
S1130610142F052F682F70E0660F771F660F771F62
S11306206F5F7F4F660F771F660F771F660F771F09
S11306307D5F072E000C880B990BD5D7882309F40E
S11306406AC0823209F090C08D2D0E942D0D009752
S113065009F48FC0813028E0920710F080E098E020
S11306608E010B5F1F4F9E012F5F3F4FAC01B701FF
S11306708D2DDBD54B015C011616170618061906DD
S1130680B4F0BF92AF929F926F931F92DF9282E079
S113069093E09F938F930E94E7250FB6F894DEBFF3
S11306A00FBECDBF382D292D8A2D9B2D6BC0A12CBB
S11306B0B12C29C00D811E819E012F5F3F4FA401E3
S11306C04A195B09B7016A0D7B1D8D2D80D42B015E
S11306D03C019923B4F47F926F925F926F931F92BF
S11306E0DF928CE193E09F938F930E94E7250FB6EE
S11306F0F894DEBF0FBECDBF342D252D862D972D4A
S113070041C0A60EB71EA814B904A1F631E020E03A
S113071080E090E037C020E0412F502F62E08D2D23
S1130720B9D0482F880F550B660B770B8D2D90E0B1
S1130730A0E0B0E0481759076A077B07F9F40F9364
S11307401F931F92DF9284E393E09F938F930E9401
S1130750E7250F900F900F900F900F900F9031E0BE
S113076020E080E090E00EC031E020E080E090E006
S113077009C031E020E080E090E004C0342F252F50
S1130780862F972F632F722F26960FB6F894DEBF0D
S11307900FBECDBFDF91CF911F910F91FF90EF90CE
S11307A0DF90BF90AF909F908F907F906F905F90FD
S11307B04F900895BF92CF92DF92EF92FF920F93E2
S11307C01F93CF93DF93893008F059C0B82E082FB8
S11307D010E0E801CC0FDD1FCC0FDD1F2196CC0FFC
S11307E0DD1FCC0FDD1FCC0FDD1F6E01D3940D2C4C
S11307F0000CEE08FF0840E1C701B6015BD7C70152
S1130800B601F1D68111FBCFBE017E5F072E000C2D
S1130810880B990B4FE14ED781E090E002C0880F1E
S1130820991FBA94E2F78095909520911A0430911B
S11308301B042823392330931B0420931A0420918A
S113084018043091190482239323909319048093FC
S11308501804F801EE0FFF1FE85FFB4F11821082AE
S1130860F801E050FC4F1082BE017D5F072E000CA2
S1130870880B990BB8D68111F7CF81E001C08FEFB7
S1130880DF91CF911F910F91FF90EF90DF90CF9068
S1130890BF9008954F925F926F927F92AF92BF92F2
S11308A0CF92DF92EF92FF920F931F93CF93DF9338
S11308B000D01F92CDB7DEB7F82E562E3A01E22EA5
S11308C028E0281708F4C5C081E0681739F06817D4
S11308D008F4C1C024E02617A8F4BDC024E030E029
S11308E0AE014F5F5F4F60E07FE080E090E054D75F
S11308F089819A81AB81BC81892B8A2B8B2B11F442
S11309008DEFB2C0E2FCA9C0EE20A9F081E0581638
S113091021F022E0521629F00EC08E2D817259F476
S11309209EC0E5FE03C0EE200CF09BC0E4FE03C0B5
S1130930EE200CF098C08F2D3DDFCF2CD12C8601FA
S1130940000F111F000F111F0F5F1F4F000F111F0A
S1130950000F111F000F111F4E2D407F4529B801B4
S1130960012E000C880B990BA5D66114710491F427
S11309706090040270900502C301019690930502F1
S113098080930402409631F480E090EC9093050249
S113099080930402B8017C5F072E000C880B990B2E
S11309A0472D88D6B8017B5F072E000C880B990B66
S11309B0462D80D628015394052C000C6608770830
S11309C041E0C301B20176D6C301B2010CD6811154
S11309D0FBCF81E090E00F2C02C0880F991F0A948E
S11309E0E2F78095909520911A0430911B042823F6
S11309F03923E0FAAA24A0F8B12C0F2C02C0AA0CC7
S1130A00BB1C0A94E2F7A22AB32AB0921B04A09258
S1130A101A0420911804309119048223932390938B
S1130A20190480931804F601EE0FFF1FE85FFB4FD3
S1130A3011821082F601E050FC4F1082B8017D5FF4
S1130A40072E000C880B990BCED58823B9F38F2D74
S1130A500BC08FEF09C08BEF07C08AEF05C08AEF88
S1130A6003C08AEF01C08AEF0F900F900F900F9090
S1130A70DF91CF911F910F91FF90EF90DF90CF9076
S1130A80BF90AF907F906F905F904F9008958F923A
S1130A909F92AF92BF92CF92DF92EF92FF92CF9349
S1130AA0893008F03FC0C82FC82ED12CCC0CDD1CD7
S1130AB0CC0CDD1C8FEFC81AD80ACC0CDD1CCC0C76
S1130AC0DD1CCC0CDD1CB6010D2C000C880B990B25
S1130AD08AD58F70813041F546018DEF981A092C23
S1130AE0000CAA08BB08C501B4017DD58331F1F41B
S1130AF0D3940D2C000CEE08FF0842E0C701B601A8
S1130B00D9D5C701B6016FD58111FBCF04C08C2F95
S1130B1051DE8CEF0CC0C501B40165D58431B9F741
S1130B2081E005C08FEF03C08BEF01C08DEFCF9143
S1130B30FF90EF90DF90CF90BF90AF909F908F90F9
S1130B400895CF92DF92EF92FF921F93CF93DF939A
S1130B50893008F05DC0182FC82FD0E0CC0FDD1FFE
S1130B60CC0FDD1F2196CC0FDD1FCC0FDD1FCC0F6A
S1130B70DD1FBE010D2E000C880B990B34D58F7030
S1130B80813009F047C06E01D3940D2C000CEE089F
S1130B90FF0848E0C701B6018DD5C701B60123D5CA
S1130BA08111FBCF81E090E0012E02C0880F991FD4
S1130BB00A94E2F79C0120953095409118045091D5
S1130BC01904242335233093190420931804209105
S1130BD01A0430911B0482239323892B71F01CC0C7
S1130BE0BE017E5F072E000C880B990BFCD483FF9B
S1130BF004C0812FDFDD83EF10C0BE017D5F072EAF
S1130C00000C880B990BEFD48111EACF81E005C069
S1130C108FEF03C08BEF01C080E0DF91CF911F9174
S1130C20FF90EF90DF90CF9008952F923F924F92D4
S1130C305F926F927F928F929F92AF92BF92CF9268
S1130C40DF92EF92FF920F931F93CF93DF9300D025
S1130C5000D0CDB7DEB7893008F0C7C05E834D83BE
S1130C601B01F82EC82ED12CCC0CDD1CCC0CDD1CA9
S1130C702FEFC21AD20ACC0CDD1CCC0CDD1CCC0C20
S1130C80DD1CB6010D2C000C880B990BACD48F70B5
S1130C90813009F0AEC04D815E81452B09F4AEC0B0
S1130CA026015DEF551A052C000C66087708C30170
S1130CB0B20199D4873119F08C3109F0A4C081E0D4
S1130CC090E04C010F2C02C0880C991C0A94E2F7A6
S1130CD05401809118049091190488219921892B39
S1130CE061F1C6019E5F9C01990F440B550B29834A
S1130CF03A834B835C83CA01B90175D484FF14C061
S1130D0040E169817A818B819C81D4D4209118043B
S1130D1030911904C4018095909582239323909374
S1130D2019048093180409C083FF72C08F2D42DD1B
S1130D3063EF7FEF8FEF9FEF72C0B601715E072EF6
S1130D40000C880B990B4FD4082F10E0102F0027AC
S1130D50110F110F4D815E810417150708F08A01E8
S1130D608F2D23D69A838983C301B2013CD4873162
S1130D7049F08C3139F08F2D1DDD69EF7FEF8FEF56
S1130D809FEF4DC080911A0490911B048A219B21EE
S1130D90892B31F089819A818017910708F43CC02E
S1130DA029813A8120173107D8F2A801B1018F2D8A
S1130DB0ACD6D3940D2C000CEE08FF0840E2C7011A
S1130DC0B60178D4C701B6010ED48111FBCF80914E
S1130DD0180490911904882A992A909219048092EF
S1130DE01804B80180E090E01AC06FEF7FEFCB01E8
S1130DF016C06BEF7FEF8FEF9FEF11C062EF7FEFB5
S1130E008FEF9FEF0CC069EF7FEF8FEF9FEF07C06D
S1130E1060E070E0CB0103C060E070E0CB01269697
S1130E200FB6F894DEBF0FBECDBFDF91CF911F91F7
S1130E300F91FF90EF90DF90CF90BF90AF909F9075
S1130E408F907F906F905F904F903F902F90089578
S1130E507F928F929F92AF92BF92CF92DF92EF9246
S1130E60FF920F931F93CF93DF93893008F090C0C4
S1130E70EA014B01782EC82ED12C8601000F111FD8
S1130E80000F111F0F5F1F4F000F111F000F111FC5
S1130E90000F111FB801012E000C880B990BA3D36E
S1130EA08F70813009F078C0209709F47AC0B801B6
S1130EB0725E072E000C880B990B95D3A82EB12CCB
S1130EC0BA2CAA24BB0CBB0CAC16BD0608F05E0100
S1130ED0872DC3D5EC01B8017D5F072E000C880B6C
S1130EE0990B81D3873121F18C31D9F42097A9F55D
S1130EF0872D5BD57C01B801715E072E000C880B31
S1130F00990B71D390E0982F8827990F990FE816C1
S1130F10F90671F4872D4EDC69EF7FEF8FEF9FEFB9
S1130F2048C0872D47DC69EF7FEF8FEF9FEF41C00B
S1130F3081E090E00C2C02C0880F991F0A94E2F71C
S1130F4020911A0430911B0482239323892B11F0DE
S1130F50209761F1209709F4BBCFCA15DB0508F08F
S1130F60E501AE01B401872D57D66801D3940D2C49
S1130F70000CEE08FF0840E4C701B6019BD3C7018B
S1130F80B60131D38111FBCFBE0180E090E011C0E6
S1130F906FEF7FEFCB010DC06BEF7FEF8FEF9FEF14
S1130FA008C062EF7FEF8FEF9FEF03C060E070E057
S1130FB0CB01DF91CF911F910F91FF90EF90DF90C4
S1130FC0CF90BF90AF909F908F907F9008952F9275
S1130FD03F925F926F927F928F929F92AF92BF9255
S1130FE0CF92DF92EF92FF920F931F93CF93DF93F1
S1130FF0893008F0E3C0E9013A011B01582EC82EDC
S1131000D12C7601EE0CFF1CEE0CFF1C8FEFE81ABE
S1131010F80AEE0CFF1CEE0CFF1CEE0CFF1C470143
S11310200F2C000CAA08BB08C501B401DCD28F70D8
S11310308250833008F0C6C06114710409F4C7C03B
S1131040888190E0A0E0B0E0BA2FA92F982F8827DC
S11310502981820F911DA11DB11DBA2FA92F982F8F
S113106088272A81820F911DA11DB11DBA2FA92F96
S1131070982F88272B81820F911DA11DB11D892BCB
S11310808A2B8B2B29F4C501B401ADD282FFA4C0F5
S11310900115110529F4C501B401A5D282FFA1C02F
S11310A047018DEF981A092C000CAA08BB08C5014A
S11310B0B40199D2823429F0823219F0823309F0D2
S11310C095C0B701745F072E000C880B990B24E0C0
S11310D030E0AE01E3D3B701705F072E000C880B3C
S11310E0990B412FE7D2B7017F5E072E000C880BC6
S11310F0990B402FDFD2B701715E072E000C880BCD
S1131100990B71D2082F10E0102F0027110F110F27
S11311100615170508F08301852D47D4EC01C50198
S1131120B40161D2882309F466C081E090E00C2CFC
S113113002C0880F991F0A94E2F720911A04309193
S11311401B0482239323892B21F0C017D10708F4B1
S113115057C0C017D10700F3A801B101852DD5D41C
S113116047019394092C000CAA08BB0840E2C5016E
S1131170B401A0D2C501B40136D28111FBCF47011D
S11311808EEF981A092C000CAA08BB08C501B401FB
S11311902AD284FF08C040E1C501B4018BD2B80152
S11311A080E090E030C083FFEACF48E0C501B4019D
S11311B081D263EF7FEF8FEF9FEF25C06FEF7FEF5B
S11311C0CB0121C06BEF7FEF8FEF9FEF1CC062EF6D
S11311D07FEF8FEF9FEF17C064EF7FEF8FEF9FEFED
S11311E012C065EF7FEF8FEF9FEF0DC069EF7FEFC8
S11311F08FEF9FEF08C06CEF7FEF8FEF9FEF03C07F
S113120060E070E0CB01DF91CF911F910F91FF90CF
S1131210EF90DF90CF90BF90AF909F908F907F9092
S11312206F905F903F902F9008952F923F924F922E
S11312305F926F927F928F929F92AF92BF92CF9262
S1131240DF92EF92FF920F931F93CF93DF93CDB76B
S1131250DEB72C970FB6F894DEBF0FBECDBF893032
S113126008F092C1280139015A014B01382EC82EC9
S1131270D12C8601000F111F000F111F0F5F1F4F8C
S1131280000F111F000F111F000F111FB801012EB5
S1131290000C880B990BA7D1282E8F7082508330B5
S11312A008F076C1A114B10409F477C1F601EE0F78
S11312B0FF1FE85FFB4F80819181892B29F5832DE6
S11312C0CCD37C01B8017D5F072E000C880B990BF1
S11312D08AD1882309F466C181E090E00C2C02C015
S11312E0880F991F0A94E2F720911A0430911B0485
S11312F082239323892B21F0E114F10409F457C1CB
S1131300E114F104E1F202C0E12CF12C822D87708A
S1131310833009F4B1C0843009F461C0823009F02B
S1131320FEC0F601EE0FFF1FE85FFB4F8081918145
S1131330892B09F044C048E050E0BE016F5F7F4F45
S1131340832D6AD4C80193959C01990F440B550BC6
S113135029873A874B875C8740E469857A858B8542
S11313609C85A8D169857A858B859C853CD1811122
S1131370F9CF8981F30180838A8181838B81828380
S11313808C8183838D8190E0982F88272E81820F12
S1131390911DF201918380838F8190E0F601EE0F1D
S11313A0FF1FE85FFB4F982F88272885820F911D28
S11313B09183808380E8F601E050FC4F8083F6013E
S11313C0EE0FFF1FE85FFB4FE080F180AE14BF0417
S11313D008F47501A701B401832D1ED4AAC0F60137
S11313E0EE0FFF1FE85FFB4F80819181892BA1F5F0
S11313F042E050E0BE016F5F7F4F832D0DD4280182
S11314005394052C000C6608770840E4C301B2012C
S113141051D1C301B201E7D08111FBCF898190E0A2
S1131420F601EE0FFF1FE85FFB4F982F88272A81F4
S1131430820F911D0297918380838B3E954038F0F3
S1131440832DB8D967E17CEF8FEF9FEFB3C080E8BD
S1131450F601E050FC4F8083F601EE0FFF1FE85FBA
S1131460FB4FE080F180AE14BF0408F47501A701BE
S1131470B401832DD1D35DC0F601EE0FFF1FE85FE9
S1131480FB4F80819181892BD1F546E050E0BE016C
S11314906F5F7F4F832DC0D3C80193959C01990F33
S11314A0440B550B29873A874B875C8740E4698551
S11314B07A858B859C85FED069857A858B859C850C
S11314C092D08111F9CF8981F30180838A8181834C
S11314D08B8182838C8183838D8190E0F601EE0F72
S11314E0FF1FE85FFB4F982F88272E81820F911DE5
S11314F09183808380E8F601E050FC4F8083F601FD
S1131500EE0FFF1FE85FFB4FE080F180AE14BF04D5
S113151008F47501A701B401832D7ED30AC0B70175
S1131520832D01D4F601EE0FFF1FE85FFB4FF1821C
S1131530E08248019394092C000CAA08BB0840E4FB
S1131540C501B401B7D0C501B4014DD08111FBCFA1
S1131550F601EE0FFF1FE85FFB4F808191818E192A
S11315609F0991838083892B39F0F601E050FC4F69
S113157080818160808304C0F601E050FC4F1082BA
S1131580B70180E090E016C06FEF7FEFCB0112C08F
S11315906BEF7FEF8FEF9FEF0DC062EF7FEF8FEF69
S11315A09FEF08C06CEF7FEF8FEF9FEF03C060E009
S11315B070E0CB012C960FB6F894DEBF0FBECDBF02
S11315C0DF91CF911F910F91FF90EF90DF90CF901B
S11315D0BF90AF909F908F907F906F905F904F904F
S11315E03F902F900895DF92EF92FF920F931F93F5
S11315F0CF93DF9300D0CDB7DEB7F62EE72ED82EEB
S113160006E012E0D8011896ED91FC91199719950E
S1131610D8011C96ED91FC911D971995F8018489C8
S11316209589892B31F0E0911C02F0911D023097CD
S1131630C1F406E012E0D8015296ED91FC91539763
S11316408D2D1995D8015296ED91FC9153978E2DBD
S11316501995D8015296ED91FC9153978F2D1995B8
S113166008C0D982EA82FB8263E070E0CE01019671
S1131670199506E012E0D8015096ED91FC9151972E
S11316801995F82ED8011E96ED91FC911F97199586
S1131690D8011A96ED91FC911B9719958F2D0F90F7
S11316A00F900F90DF91CF911F910F91FF90EF90CA
S11316B0DF9008954F925F926F927F92BF92CF9284
S11316C0DF92EF92FF920F931F93CF93DF9300D09B
S11316D01F92CDB7DEB76B017C01B42E06E012E099
S11316E0D8011896ED91FC9119971995D8011C967B
S11316F0ED91FC911D97199526013701689442F8E4
S1131700D8015696ED91FC9157973097E1F4529693
S1131710ED91FC9153978E2D1995D8015296ED9128
S1131720FC9153978D2D1995D8015296ED91FC910A
S11317305397842D1995D8015296ED91FC915397A6
S11317408B2D199509C0E982DA824B82BC8264E050
S113175070E0CE010196199506E012E0D8011E96BC
S1131760ED91FC911F971995D8011A96ED91FC9172
S11317701B9719950F900F900F900F90DF91CF91B9
S11317801F910F91FF90EF90DF90CF90BF907F90CB
S11317906F905F904F9008959F92AF92BF92CF92B7
S11317A0DF92EF92FF920F931F93CF93DF9300D0BA
S11317B0CDB7DEB7F62EE72E982E5A01690106E062
S11317C012E0D8011896ED91FC9119971995D8015A
S11317D01C96ED91FC911D971995F80184899589C2
S11317E0892B31F0E0911C02F0911D02309751F5E4
S11317F006E012E0D8015296ED91FC915397892DA1
S11318001995D8015296ED91FC9153978E2D199507
S1131810D8015296ED91FC9153978F2D199500E0C4
S113182010E00CC07501E00EF11EE0911602F0917B
S113183017021995F70180830F5F1F4F0C151D05C3
S113184088F30FC09982EA82FB8263E070E0CE01E4
S113185001961995E0911A02F0911B02B601C50197
S1131860199506E012E0D8011E96ED91FC911F97A0
S11318701995D8011A96ED91FC911B9719950F9023
S11318800F900F90DF91CF911F910F91FF90EF90E8
S1131890DF90CF90BF90AF909F9008954F925F924A
S11318A06F927F928F929F92AF92BF92CF92DF926C
S11318B0EF92FF920F931F93CF93DF9300D0CDB796
S11318C0DEB76B017C014A01590106E012E0D80140
S11318D01896ED91FC9119971995D8011C96ED91E4
S11318E0FC911D97199526013701689442F8D80197
S11318F05696ED91FC915797309731F55296ED91AC
S1131900FC9153978E2D1995D8015296ED91FC9127
S113191053978D2D1995D8015296ED91FC915397BB
S1131920842D199500E010E00BC0E0911802F091AD
S11319301902D401A00FB11F8C9119950F5F1F4F8D
S11319400A151B0590F30FC0E982DA824B8263E02B
S113195070E0CE0101961995E0911C02F0911D02F0
S1131960B501C401199506E012E0D8011E96ED9167
S1131970FC911F971995D8011A96ED91FC911B972C
S113198019950F900F900F90DF91CF911F910F91A8
S1131990FF90EF90DF90CF90BF90AF909F908F908B
S11319A07F906F905F904F9008957F928F929F9257
S11319B0AF92BF92CF92DF92EF92FF920F931F9359
S11319C0CF93DF93782E00E010E0C72CD12CCC0C01
S11319D0DD1CCC0CDD1C8FEFC81AD80ACC0CDD1C26
S11319E0CC0CDD1CCC0CDD1C460180EE981A092CB5
S11319F0000CAA08BB08C501B401F5DDC82FD0E06E
S1131A00DC2FCC278FEDD81A0D2C000CEE08FF0824
S1131A10C701B601E8DDC80FD11D209761F0C501EB
S1131A20B401E1DD082F10E0102F0027C701B60133
S1131A30DADD080F111D0C171D0739F6C801DF91F7
S1131A40CF911F910F91FF90EF90DF90CF90BF90B7
S1131A50AF909F908F907F9008957F928F929F92E6
S1131A60AF92BF92CF92DF92EF92FF920F931F93A8
S1131A70CF93DF93782E00E010E0C72CD12CCC0C50
S1131A80DD1CCC0CDD1C8FEFC81AD80ACC0CDD1C75
S1131A90CC0CDD1CCC0CDD1C46018AED981A092CFB
S1131AA0000CAA08BB08C501B4019DDDC82FD0E015
S1131AB0DC2FCC2789EDD81A0D2C000CEE08FF087A
S1131AC0C701B60190DDC80FD11D209761F0C50193
S1131AD0B40189DD082F10E0102F0027C701B601DB
S1131AE082DD080F111D0C171D0739F6C801DF919F
S1131AF0CF911F910F91FF90EF90DF90CF90BF9007
S1131B00AF909F908F907F9008952F923F924F9225
S1131B105F926F927F928F929F92AF92BF92CF9279
S1131B20DF92EF92FF920F931F93CF93DF9300D036
S1131B301F92CDB7DEB74115510509F456C03A01DD
S1131B407A836983282E312C220C331C220C331CFB
S1131B5061012FEFC21AD20ACC0CDD1CCC0CDD1CA7
S1131B60CC0CDD1C46013CED931A092C000CAA0890
S1131B70BB08C501B40137DD082F10E0102F002782
S1131B808BEDD81A0D2C000CEE08FF08C701B60126
S1131B902ADD080F111DC801A0E0B0E04427582F2A
S1131BA0692F7A2FC10102961C01220C331C220CCE
S1131BB0331C220C331CC101330CAA0BBB0B1A01BE
S1131BC02B01280E391E4A1E5B1EC201B10193016E
S1131BD049815A8163DE060D171D412FC501B401E9
S1131BE069DD402FC701B60165DD0F900F900F909E
S1131BF00F90DF91CF911F910F91FF90EF90DF90A5
S1131C00CF90BF90AF909F908F907F906F905F9098
S1131C104F903F902F9008952F923F924F925F9252
S1131C206F927F928F929F92AF92BF92CF92DF92E8
S1131C30EF92FF920F931F93CF93DF9300D01F92E5
S1131C40CDB7DEB74115510509F456C03A017A8380
S1131C506983282E312C220C331C220C331C610185
S1131C602FEFC21AD20ACC0CDD1CCC0CDD1CCC0C20
S1131C70DD1C460138ED931A092C000CAA08BB0898
S1131C80C501B401B0DC082F10E0102F002787ED48
S1131C90D81A0D2C000CEE08FF08C701B601A3DC0E
S1131CA0080F111DC801A0E0B0E04427582F692F88
S1131CB07A2FC10103961C01220C331C220C331C05
S1131CC0220C331CC101330CAA0BBB0B1A012B01D0
S1131CD0280E391E4A1E5B1EC201B10193014981BF
S1131CE05A815ADD060D171D412FC501B401E2DCEE
S1131CF0402FC701B601DEDC0F900F900F900F90BC
S1131D00DF91CF911F910F91FF90EF90DF90CF90D3
S1131D10BF90AF909F908F907F906F905F904F9007
S1131D203F902F9008958F929F92AF92BF92CF923F
S1131D30DF92EF92FF920F931F93CF93DF93EB0108
S1131D40C82ED12CCC0CDD1CCC0CDD1C8FEFC81A9A
S1131D50D80ACC0CDD1CCC0CDD1CCC0CDD1C4601E3
S1131D6088ED981A092C000CAA08BB08C501B40117
S1131D703ADC082F10E0102F002787EDD81A0D2C1D
S1131D80000CEE08FF08C701B6012DDC080F111D79
S1131D90C00FD11F4D2FC501B4018CDC4C2FC701DE
S1131DA0B60188DCDF91CF911F910F91FF90EF90E6
S1131DB0DF90CF90BF90AF909F908F90089508953B
S1131DC0089508950895FB0180810895FB014083DF
S1131DD0089580E00895089508950895009719F0EE
S1131DE06115710559F4E6E0F2E081EE9EE0958715
S1131DF0848782EE9EE0978786870895E6E0F2E086
S1131E0095878487778766870895209106023091A5
S1131E10070231FFFACF009719F06115710559F4E3
S1131E20E6E0F2E089EE9EE0918B808B8BEE9EE003
S1131E30938B828B0895E6E0F2E0918B808B738B19
S1131E40628B0895209106023091070231FFFACF88
S1131E50009719F06115710559F4E6E0F2E08CEE93
S1131E609EE0958B848B8DEE9EE0978B868B0895F8
S1131E70E6E0F2E0958B848B778B668B0895CF93A5
S1131E80DF93CDB7DEB762970FB6F894DEBF0FBE0F
S1131E90CDBF26E030E0AE01435F5F4F60E079E004
S1131EA080E090E079DC24E030E0AE014F5F5F4FEA
S1131EB060E071E080E090E06FDC24E030E0AE01AF
S1131EC04B5F5F4F60E075E080E090E065DC24E00C
S1131ED030E0AE01475F5F4F60E07FE080E090E07C
S1131EE05BDC40E860E070E0CB01E4DB60E070E0E4
S1131EF0CB0179DB26E030E0AE01435F5F4F60E069
S1131F0079E080E090E0CADC24E030E0AE014F5F8D
S1131F105F4F60E071E080E090E0C0DC24E030E0FE
S1131F20AE014B5F5F4F60E075E080E090E0B6DCAF
S1131F3024E030E0AE01475F5F4F60E07FE080E087
S1131F4090E0ACDC62960FB6F894DEBF0FBECDBF56
S1131F50DF91CF910895FF920F931F93CF93DF9357
S1131F60EC018B018CDF209769F430C0FE01E80F8F
S1131F70F11D87FDFA952081920F91310CF05BC021
S1131F808F5F02C090E080E0883084F3F12C1BC0A6
S1131F906F2D0F2C000C770BFE01E60FF71F660F59
S1131FA0771F660F771F6F5F7F4F660F771F660F70
S1131FB0771F660F771F715E072E000C880B990B35
S1131FC0408178DBF39487E08F1514F70115110530
S1131FD069F480E033C0F801E80FF11D87FDFA953C
S1131FE02081920F91314CF58F5F02C090E080E028
S1131FF088308CF3C0E01BC06C2F0C2E000C770BC8
S1132000F801E60FF71F660F771F660F771F6F5FE4
S11320107F4F660F771F660F771F660F771F725EFD
S1132020072E000C880B990B408144DBCF5FC8302E
S11320301CF380E003C08FEF01C08FEFDF91CF91DD
S11320401F910F91FF900895CF93C92F482F407F80
S113205060E075E180E090E02DDB4C2F60E077E1FB
S113206080E090E027DBCF910895CF9360E075E1A5
S113207080E090E0B8DAC82FC07F60E077E180E0CC
S113208090E0B1DA90E0982F88278C0F911DCF91C2
S11320900895CF93C92F482F60E076E180E090E067
S11320A009DB4C2F60E078E180E090E003DBCF9126
S11320B00895CF9360E076E180E090E094DAC82F51
S11320C060E078E180E090E08EDA90E0982F882755
S11320D08C0F911DCF91089560E07EE280E090E046
S11320E082DA80FD02C080E0089581E0089560E016
S11320F07EE280E090E077DA8873803311F481E047
S1132100089580E0089560E07EE280E090E06BDA7C
S1132110482F4F7760E07EE280E090E0CBDA60E029
S11321207EE280E090E05FDA482F406860E07EE283
S113213080E090E0BFCA0895FC018081813011F4F1
S113214040E401C040E08181813011F448630EC055
S11321508381813039F48281813011F4486106C071
S1132160486004C08281813009F4406160E07EE20D
S113217080E090E09FDAC7CF0895CF93DF93EC011E
S113218060E07EE280E090E02EDA86FB992790F909
S113219098838873803211F0883319F491E099831D
S11321A001C01982883121F0803211F0803119F494
S11321B091E09A8301C01A82883121F0803211F0B3
S11321C0883019F481E08B8301C01B82DF91CF91A9
S11321D00895CF93C82F60E07EE280E090E003DAB8
S11321E086FF1DC0877CC13019F4482F406302C0AC
S11321F0482F486360E07EE280E090E05BDA83DFB2
S113220060E07EE280E090E0EED9C13021F480739A
S113221041F48FEF09C0887331F48FEF05C08FEF5D
S113222003C080E001C080E0CF9108950F931F9315
S1132230CF93DF9300E010E0980190E080319105A6
S113224040F4EB01FC018827E656FF4F8F4F0C94B6
S113225057248FEF71C013DE80E06EC0CD2B21F0C8
S11322608B019B01285F3F4FB901C80174DE64C034
S113227088819981E9DE80E05FC0F7DE99838883F5
S113228080E05AC08881998104DF80E055C011DF65
S11322909983888380E050C0498160E073E180E0E5
S11322A090E008DA488160E074E180E090E002DACE
S11322B080E042C060E073E180E090E094D9082FB0
S11322C010E0102F002760E074E180E090E08BD9EB
S11322D0080F111D1983088380E02EC0E6E0F2E0A8
S11322E0828188838381898384818A8385818B83A6
S11322F086818C831D8280E01FC005DF80E01CC0C6
S1132300CB011ADF80E018C0CB0137DF80E014C0B6
S113231088815FDF11C0EBDE8F3F59F0888380E056
S11323200BC0DADE8F3F39F0888380E005C080E09F
S113233003C08FEF01C08FEFDF91CF911F910F91F9
S11323400895CF93DF93EC0126E030E0AC0160E028
S113235079E080E090E0A2DAAE01425F5F4F24E0D2
S113236030E060E071E080E090E098DAAE01465F32
S11323705F4F24E030E060E075E080E090E08EDACA
S1132380AE014A5F5F4F24E030E060E07FE080E030
S113239090E084DA8A89EDE1F4E080838B8981839B
S11323A08C8982838D8983838E8980931C04DF9139
S11323B0CF910895CF93DF93EC0126E030E0AC0198
S11323C060E079E080E090E0E7D9AE01425F5F4FE2
S11323D024E030E060E071E080E090E0DDD9AE011F
S11323E0465F5F4F24E030E060E075E080E090E01D
S11323F0D3D9AE014A5F5F4F24E030E060E07FE074
S113240080E090E0C9D9EDE1F4E080818A8B81819C
S11324108B8B82818C8B83818D8B80911C048E8B22
S1132420DF91CF91089510928F04089508950F932A
S11324301F93CF938C01C0E00AC0D8011796ED9189
S1132440FC911897EC0FF11D808116D3CF5FF80132
S11324508185C81790F381E0CF911F910F91089562
S113246020918F04211120C02CE6EEE1F2E0A2E2DB
S1132470B4E001900D922A95E1F7E0E9F4E0968347
S1132480858382E087838087818782E294E09387D3
S1132490828784E0848783E192E196878587CF01F0
S11324A0D2D481E080938F0408950F931F93CF9328
S11324B08C01C0E00CC0D8011796ED91FC911897DF
S11324C0EC0FF11D808190E00E942126CF5FF8017E
S11324D08185C81780F380819181C2DF81E0CF912B
S11324E01F910F9108950F931F93CF93DF938C0146
S11324F0C0E0D0E010C0E7D2809121048D3619F4F9
S113250081E090E0ADDF809121048D3618F48F5F77
S1132510809321042196C017D10768F381EA94E0DF
S11325200E94BB1F81EA94E00E940520DF91CF91B5
S11325301F910F91089580E090E0BDD386E990E06B
S1132540C1D38FE00E94861E81E00E94821E65E551
S113255072E181E0BED367E172E182E0BAD3E1EADD
S1132560F4E084E190E0A0E0B0E086839783A08764
S1132570B187128686E192E19487838708958091DA
S1132580AE04811104C0D7DF81E08093AE040895C6
S1132590CF93DF931F921F92CDB7DEB78091A11A1C
S11325A09091A21A009711F09C0102C02CEA3AE122
S11325B0CE010196821B930B0F900F90DF91CF9168
S11325C008958BB18F7E8BB908958BB180618BB9DF
S11325D008951EBC0DB407FEFDCF8EB508958EBDC3
S11325E00DB407FEFDCF0895FC0120E030E009C0E2
S11325F01EBC0DB407FEFDCF8EB580832F5F3F4F09
S1132600319626173707A0F30895FC0120E030E047
S11326100AC0CF01019640814EBD0DB407FEFDCF27
S11326202F5F3F4FFC012617370798F308951F9239
S11326300F920FB60F9211248F939F93AF93BF9372
S11326408091741990917519A0917619B0917719A8
S11326500196A11DB11D8093741990937519A093CF
S11326607619B0937719BF91AF919F918F910F9085
S11326700FBE0F901F901895CF93DF93CDB7DEB7A1
S113268028970FB6F894DEBF0FBECDBF88E0E8E40C
S1132690F2E0DE01119601900D928A95E1F765EE64
S11326A072E181EE92E19ADB6FEE72E189EE92E1E2
S11326B0ACDB65E073E184EF92E1C4DBBE016F5FE4
S11326C07F4FCB0148DC81E392E03BDE28960FB6D6
S11326D0F894DEBF0FBECDBFDF91CF910895F8947B
S11326E014BC15BCEEE6F0E0108282E084BD83E009
S11326F085BD89EF87BD8081826080837894089549
S113270099E288E10FB6F894A895809360000FBE13
S113271090936000A895E3DF80E096E90E946F2023
S113272083E292E09093A81A8093A71A789408956C
S11327300F931F93CF93DF93CDB7DEB76D970FB68B
S1132740F894DEBF0FBECDBF8E010F5F1F4F86E032
S1132750F80111928A95E9F7B80188E067DD8BEA00
S113276092E09F938F930E94FA251F930F9386E91B
S113277092E09F938F930E94FA258CE692E09F93B8
S11327808F930E94FA25CE01079614DE8D8D0FB625
S1132790F894DEBF0FBECDBF813049F480E692E0ED
S11327A09F938F930E94FA250F900F9008C086E59F
S11327B092E09F938F930E94FA250F900F905C856F
S11327C04B853A85298598858F811F925F931F9247
S11327D04F931F923F931F922F931F929F931F9289
S11327E08F9387E693E09F938F930E94E725388920
S11327F02F859E858D851F923F931F922F931F9245
S11328009F931F928F9384E993E09F938F930E94E9
S1132810E7253C892B899A8989891F923F931F92C6
S11328202F931F929F931F928F938FEA93E09F930E
S11328308F930E94E725388D2F899E898D890FB645
S1132840F894DEBF0FBECDBF1F923F931F922F930C
S11328501F929F931F928F938AEC93E09F938F9381
S11328600E94E7253C8D2B8D9A8D898D1F923F9375
S11328701F922F931F929F931F928F9385EE93E045
S11328809F938F930E94E7250FB6F894DEBF0FBE87
S1132890CDBF6D960FB6F894DEBF0FBECDBFDF91EE
S11328A0CF911F910F9108950E94531F29DF88D063
S11328B06FDE9F938F9387ED92E09F938F930E9497
S11328C0FA250F900F900F900F9083E01AC085B1F6
S11328D08F7E85B92FEF30E782E021503040804071
S11328E0E1F700C0000085B1806185B92FEF33ECBA
S11328F089E0215030408040E1F700C00000A895F5
S1132900892F9FEF980F8111E2CFB6DE11DFF89483
S1132910C0907419D0907519E0907619F0907719D9
S11329207894F8948091741990917519A0917619FE
S1132930B09177197894F8948091741990917519DD
S1132940A0917619B091771978940E945A1F54D1A6
S113295016DEA89548E853E168E779E180E00E9433
S1132960AA0148EB5BE068E779E181E00E94F302A9
S1132970F8948091741990917519A0917619B09179
S1132980771978948C199D09AE09BF09893E934043
S1132990A105B105D0F2F894C0907419D0907519BE
S11329A0E0907619F0907719789496DB813021F4D1
S11329B085B18F7E85B9C9CF85B1806185B9C5CF11
S11329C08AB180618AB98BB180618BB984B1866028
S11329D084B985B1866085B98AB180648AB980E595
S11329E08CBD1DBC089514BE0FB6F894A8958091B3
S11329F06000886180936000109260000FBEE1E681
S1132A00F0E080E880831082789401C008951092E9
S1132A10781A80E197E29093A9008093A800E1EAF4
S1132A20F0E088E08083808182608083E2E7F0E0E8
S1132A3080818260808308951F920F920FB60F9257
S1132A4011248F938091781A8F5F8093781A8F91D5
S1132A500F900FBE0F901F9018951F920F920FB6F4
S1132A600F9211248F9381E08093AF048F910F9084
S1132A700FBE0F901F901895CF93DF93ECEBF4E00B
S1132A80268137816481758126173707C9F0C0858F
S1132A90D18542815381DA011196B383A283FE0169
S1132AA0E40FF51F80836A177B0721F41092BF049B
S1132AB01092BE042F5F3F4F3093C3042093C2048F
S1132AC0DF91CF9108954FB7F894E2EBF4E02085BD
S1132AD0318580819181BC016F5F7F4F71836083F9
S1132AE0D901A80FB91F8C9160817181248135812E
S1132AF06217730721F41092B3041092B204E2EB4C
S1132B00F4E02681378121503109378326834FBF72
S1132B1008951F920F920FB60F9211240BB60F92C5
S1132B208F93EF93FF9381E08093B104E9ECF0E09D
S1132B3080818F7D8083FF91EF918F910F900BBEE9
S1132B400F900FBE0F901F9018951F920F920FB603
S1132B500F9211240BB60F922F933F934F935F93D1
S1132B606F937F938F939F93AF93BF93EF93FF9351
S1132B708091C8002091CE008C7159F5E2EBF4E00D
S1132B8046815781848195814817590711F1408501
S1132B90518582819381BC016F5F7F4F7383628310
S1132BA0DA01A80FB91F2C93228133818481958186
S1132BB02817390721F41092B5041092B404E2EBFB
S1132BC0F4E08681978101969783868381E08093E0
S1132BD0B004FF91EF91BF91AF919F918F917F913D
S1132BE06F915F914F913F912F910F900BBE0F907A
S1132BF00FBE0F901F9018958091C2049091C3044A
S1132C00009769F12091B104222349F1ECEBF4E03F
S1132C106085718520813181A9014F5F5F4F5183A8
S1132C204083DB01A20FB31F2C9164817581461789
S1132C30570721F41092BD041092BC04019790939D
S1132C40C3048093C2049FB7F8942093CE00E9ECA8
S1132C50F0E08081806280831092B1049FBF2FB71F
S1132C60F8949091B0041092B0044091B80450913B
S1132C70B9042FBF992311F0CA0135CC0895E9E7AF
S1132C80FAE1148215821182108217A216A280E042
S1132C900AC0E82FF0E03396EE0FFF1FE758F54E19
S1132CA0118210828F5F8031A0F33AD68DD506D180
S1132CB0C5D0BDC1089590937A1A8093791A0C9463
S1132CC09C1E089590937C1A80937B1A0C948A1E00
S1132CD00895E82FF0E03396EE0FFF1FE758F54E06
S1132CE0718360830895C3D546D7D1C00895A09158
S1132CF0C604B091C704A817B90741F42D913C91BB
S1132D003093C7042093C6040BC0DF01ED91FC91FE
S1132D1011978E179F07C9F7208131812D933C931A
S1132D20E9E7FAE126A137A12150310937A326A307
S1132D30DC011D96ED91FC911E97199508950F9352
S1132D401F93CF93DF938C01C6D0EC01009729F435
S1132D5082E0F8018483878750C0F80193838283DB
S1132D6081E08483FE01E957FF4F82E097E191837C
S1132D708083F801818582FB882780F9FE01EA5768
S1132D80FF4F8083F80191858B8590FB80F98B87B9
S1132D90918593FB992790F990FB82F98B87E9E75A
S1132DA0FAE184818F5F84838C87808191819E87FF
S1132DB08D87F80185819681988B8F878085982FE0
S1132DC09F708989807F892B898B97819295907FC9
S1132DD08F70892B898B448562857385FE01EF573B
S1132DE0FF4F50E0808191810E949725F8018485EE
S1132DF09981890F8983CE01B6D5DF91CF911F9137
S1132E000F910895E091C604F091C70413C0228184
S1132E1033812817390759F4DC01AD57BF4F2C9182
S1132E20278713962C91208B22E0248305C00190E0
S1132E30F081E02D309759F77FC008951092C704B0
S1132E401092C6040895FC0114821786138212821C
S1132E50A9E7BAE196968D919C91979701969796DA
S1132E609C938E9396978091C6049091C704009783
S1132E7039F411821082F093C704E093C6040895D4
S1132E8091838083F093C704E093C6040895E0918E
S1132E90C604F091C7040FC08481882319F08230DE
S1132EA021F006C0CF014BCF0895CF0120CF089564
S1132EB00190F081E02D309779F7089580E008C003
S1132EC099E8899FF0011124E853FB4F10828F5F2A
S1132ED08E31B0F3089580E02AC0282F30E099E8BD
S1132EE0929FF001939FF00D1124E853FB4F9081C2
S1132EF091111CC069E8629FA001639F500D1124C9
S1132F00CF0111926A95E9F720E1FC012183465231
S1132F105B4FEF57FF4F51834083E9E7FAE126A166
S1132F2037A12F5F3F4F37A326A308958F5F8E31BC
S1132F30A0F280E090E00895FC011082E9E7FAE154
S1132F4086A197A1019797A386A30895009721F0DE
S1132F50FC01E757FF4F08C0E8ECF4E005C08081AE
S1132F60811109C0E757FF4F84E1E63DF807B8F344
S1132F7080E090E008958E2F9F2F0895FC01DC01DE
S1132F80AD57BF4F1C92A9E7BAE114969C911497D0
S1132F909F5F14969C93149794878D919C91968728
S1132FA08587089590E012C0292F30E0F901EE0FD3
S1132FB0FF1FEE0FFF1FEE0FFF1FE21BF30BEA5282
S1132FC0FB4E858186958F5F85839F5F943660F382
S1132FD00895DF92EF92FF920F931F93CF93DF93A5
S1132FE08C017B01D42E77DFEC010097C1F0C6DFA2
S1132FF089818A5F8983FE01E957FF4F118210821C
S1133000188B0F8736970190F081E02D81E0808343
S113301012830183F482E382D582CE01A4D4DF91AA
S1133020CF911F910F91FF90EF90DF90089580E072
S113303016C0282F30E0F901EE0FFF1FEE0FFF1F1F
S1133040EE0FFF1FE21BF30BEA52FB4E2FEF3FEF95
S11330503283218390819E7F908315828F5F843693
S113306040F30895CF93DF93EC0190E02AC0292F19
S113307030E0F901EE0FFF1FEE0FFF1FEE0FFF1FF1
S1133080E21BF30BEA52FB4E418152814C175D0760
S1133090B9F4F901EE0FFF1FEE0FFF1FEE0FFF1F34
S11330A0E21BF30BEA52FB4E808181FBAA27A0F9B5
S11330B0B0E0462F50E0A417B50711F4CF0105C0C6
S11330C09F5F9436A0F280E090E0DF91CF91089565
S11330D080E0A0E0B0E0E6EDF4E113C0908190FD63
S11330E00EC09581992381F0109731F015962C919B
S11330F01597921718F003C0DF0101C0DF018F5F3D
S11331003796843658F3FD0180818D708063808307
S113311080E88583CF010895FC01808180FD05C08E
S11331208FEF9FEF92838183158208959BDF009731
S113313021F0FC018381948108958FEF9FEF08951E
S113314091DF009709F0E8CF08950F931F93CF9371
S1133150DF93FC0101851285112334F4858596855E
S11331600817190709F050C085819681019609F462
S11331704BC0EF0160E08585968574DFDC01892B07
S113318079F18F819885019659F42091791A3091BB
S11331907A1A8F8598892817390721F080E003C0AF
S11331A080E001C081E0982F917013962D913C919D
S11331B014970217130749F0FE01ED57FF4F2081C2
S11331C016968C911697821710F09923B9F01496DD
S11331D01C930E9313978C918F7080638C930EC005
S11331E077DFDC018D859E8512969C938E931197D3
S11331F089859A8514969C938E931397FE01ED57B7
S1133200FF4F808116968C93DF91CF911F910F9180
S11332100895CF93DF93FC01878590898F3F2FEF2B
S1133220920781F1EF01638563FB662760F91ADF7A
S1133230DC01892B39F18C9180FD24C0FE01ED570E
S1133240FF4F808181110EC08C918F7080638C93AD
S113325015968C9115978F5F15968C938F3F91F4EB
S1133260A1DE10C09C91892F82958F70815F8F7031
S1133270282F2295207F9F70922B9C93811102C04E
S1133280CD014ADFDF91CF910895CF93DF93FC0105
S1133290878590898F3F2FEF920729F48FEF9FEF57
S11332A0908787830EC0238522FF03C0908787837E
S11332B008C0EF01638563FB662760F937DF9887F1
S11332C08F83DF91CF910895EF92FF921F93CF9355
S11332D0DF93EC011B8513FB112710F9EF84F888A9
S11332E0612FC70123DF019659F0FE01E957FF4F13
S11332F011821082319782E08083CE0134D307C0DB
S1133300412FB7018D859E8564DECE0115DEDF91E8
S1133310CF911F91FF90EF900895DC011796ED91E6
S1133320FC91189719968C91863031F465818381CC
S1133330948106DF81E0089580E00895EF92FF9282
S11333400F931F93CF93DF93CDB7DEB72C970FB6B0
S1133350F894DEBF0FBECDBFDC0151968C9151971E
S113336082958F70E82FF0E03396EE0FFF1FE75839
S1133370F54EE080F180E114F10409F467C01D9674
S11333804D915C911E975A8349831F966D917C9150
S113339050977C836B8351969C9151979F709D832A
S11333A08E83CD018F579F4FFC0180819181998736
S11333B0888711962C9111978D010E5F1F4F801BEA
S11333C0910B281B2A87CD018D579F4FFC018081CB
S11333D08B87CD018C579F4FFC0180818C871B9676
S11333E02C911B97922F9170822F8270982B22FF21
S11333F002C080E201C080E0982B23FF02C080E479
S113340001C080E0982B6F3F7F4F11F484E001C02E
S113341080E0982B19962D913C911A9742175307E7
S113342011F488E001C080E0982B15962D913C9111
S113343016972F3F3F4F11F480E101C080E0892BA4
S11334408F83CE010196F701199501C080E02C9677
S11334500FB6F894DEBF0FBECDBFDF91CF911F91A1
S11334600F91FF90EF900895DC0119962C91199714
S1133470222371F01796ED91FC9118972081222355
S113348019F0213019F006C004C3089546CF0895F9
S113349080E0089580E00895BC0190E080E01CC0C5
S11334A0292F30E0F901EE0FFF1FEE0FFF1FE20F8F
S11334B0F31FE056F84E4481442369F0F901EE0FFE
S11334C0FF1FEE0FFF1F2E0F3F1FF901E056F84EAE
S11334D04150448381E09F5F9A3010F3882311F0B8
S11334E0CB0193C508950F931F93CF93DF93EC0102
S11334F090E060E070E080C0292F30E0F901EE0F29
S1133500FF1FEE0FFF1FE20FF31FE056F84E44813A
S1133510442309F46DC00B851C85A081B1810A1771
S11335201B0709F065C0F901EE0FFF1FEE0FFF1F27
S1133530E20FF31FE056F84E82819A85891B88308A
S1133540E0F5F901EE0FFF1FEE0FFF1FE20FF31F6F
S1133550E056F84E9381492F50E0082E02C055954D
S113356047950A94E2F740FF13C02091791A3091ED
S11335707A1A8D819E812817390709F053C069850D
S113358063FB662760F98D859E85DADD81E04DC099
S113359041E050E002C0440F551F8A95E2F7F9015B
S11335A0EE0FFF1FEE0FFF1F2E0F3F1FF901E05616
S11335B0F84E942B938380E038C08195F901EE0F87
S11335C0FF1FEE0FFF1F2E0F3F1FF901E056F84EAD
S11335D09283238130E0A90102C0440F551F8A95CC
S11335E0E2F7CA01816083838FE1848380E01DC098
S11335F0411101C0BF019F5F9A3008F47DCF61156E
S1133600710591F08B859C85FB01918380838A856C
S1133610828381E083838FE1848382E997E1F5D417
S113362080E003C081E001C081E0DF91CF911F9170
S11336300F9108950F931F93CF93DF93FC018C0197
S11336400E5F1F4F84E28083838581FD54C083FD18
S113365052C0258136812F3F3F4F79F42091791A4A
S113366030917A1A878590892817390719F00196BD
S113367009F041C082E280833EC0278530892F3F14
S11336803F4F11F480FD37C02091791A30917A1A96
S1133690858596852817390771F1EF01CF0155DD2E
S11336A0C80121DF811127C08F819885019671F4AB
S11336B02091791A30917A1A8F85988928173907B9
S11336C029F08B8582FD02C0CE019FD12091791A09
S11336D030917A1A8F8598892817390711F0019645
S11336E019F482E2888307C08F81988528173907E7
S11336F011F483E28883DF91CF911F910F91089594
S11337000F931F93CF93DF938C01E5DBEC010097BC
S113371031F134DC89818D5F8983FE01E957FF4FE4
S113372011821082D8011B968C911B97869581700B
S11337309B8580FB91F99B871D968D919C911E978B
S1133740988B8F8736970190F081E02D10828091BD
S11337509F1782831C968C918183CE0104D1DF91C3
S1133760CF911F910F910895CF93DF93EC011092A5
S11337709F17E4DD9B8590FF80E02F8138852F3FE4
S11337803F4F59F44091791A50917A1A2F8538890C
S11337904217530711F493FF81E02D813E812F3F9F
S11337A03F4F09F480E02091791A30917A1A2F3F23
S11337B03F4F09F480E0882311F0CE01A1DF84E2B9
S11337C08883DF91CF91089520E00EC0822F90E08E
S11337D0FC01EE0FFF1FEE0FFF1F8E0F9F1FFC015A
S11337E0E056F84E14822F5F2A3080F3E2E9F7E1C5
S11337F084E690E0A0E0B0E086839783A087B18759
S113380012868CE49AE19487838764E37AE180E00A
S113381060CA0895CF93DF93DC01ED91FC9121817F
S1133820283811F52081213611F02134E9F4FC0106
S113383022812031C8F0EC014EDB0097A9F020E290
S1133840DC012C932A8111962C932B81FC01ED57DA
S1133850FF4F20832C81319620834A8168817981AE
S113386050E002960E949725DF91CF910895CF935F
S1133870DF93C0E0D0E017C08881823261F018F491
S1133880803231F010C0833249F0843251F00BC0E1
S1133890CE01D0DE08C0CE0167DF05C0CE0114DD45
S11338A002C0CE0149DBCE0151DBEC01892B21F7AB
S11338B0DF91CF910895813051F018F0823019F0E2
S11338C004C080E0089581E2089581E0089580E2D3
S11338D008951F93CF93DF93EC0110E080E090E014
S11338E014C0FC012081213181F4EC57FF4F208169
S11338F031812150310931832083232B29F423E1A1
S1133900FC01208311E001C011E020DB009749F79E
S1133910112311F0CE0179D3DF91CF911F91089536
S11339201092ED171092EC17EFEDF7E182E390E0BF
S1133930A0E0B0E086839783A087B187128684E7EE
S11339409DE194878387E2EDF7E18AE090E0A0E0CF
S1133950B0E086839783A087B187128689E69CE1CD
S1133960948783870895CF93DF93EC01FC01EA5792
S1133970FF4F808181FF03C092E1988302C092E1EE
S11339809883FE01ED57FF4F1082982F917080FFAE
S113399005C02FEF3FEF3E832D8306C020917B1A95
S11339A030917C1A3E832D8382FD05C0911103C0A2
S11339B0CE016BDC04C08F85988998878F83E9E7F3
S11339C0FAE1808191819A87898785818F5F8583D8
S11339D08C838F819885019669F481E498E89B83B0
S11339E08A83B4D7877099270196CC57DF4F998380
S11339F0888308C081E698E89B838A83CC57DF4F8D
S1133A0019821882DF91CF9108950F931F93CF935A
S1133A10DF938C0160DAEC01892BB1F182E18883B8
S1133A20F80181818983FE01ED57FF4F10828ED703
S1133A30877099270196FE01EC57FF4F918380838D
S1133A40339611821082F8014181B8016E5F7F4F75
S1133A5050E0CE0102960E94972581E498E89B836A
S1133A608A838FEF9FEF98878F83F80185819681F2
S1133A709E838D83E9E7FAE1808191819A87898722
S1133A8085818F5F85838C83DF91CF911F910F9107
S1133A900895CF93DF93FC01C781D085818583305E
S1133AA0C1F480E090E010C0FC012081263161F473
S1133AB034852981321308C027E120832A81EA57FB
S1133AC0FF4F208381E006C041DA009769F780E068
S1133AD001C080E0DF91CF91089527E1FC012083AC
S1133AE0ED57FF4F60830895EF92FF921F93CF939A
S1133AF0DF937C0110E0C0E0D0E013C08881863100
S1133B0081F4FE01EC57FF4F8081918101979183ED
S1133B108083892B29F460E1CE01DFDF11E001C04D
S1133B2011E0CE0113DAEC01892B41F7112311F0D6
S1133B30C7016BD2DF91CF911F91FF90EF90089551
S1133B40CF93DF93C091EC17D091ED17B4DEFE0153
S1133B50ED57FF4F808385E188831092ED17109213
S1133B60EC17E9E7FAE186A197A1019797A386A349
S1133B70DF91CF910895CF93DF93C0E0D0E068C088
S1133B8088818331D1F018F4823139F061C08531F4
S1133B9069F1873109F44DC05BC0FE01EC57FF4F5A
S1133BA080819181892B31F081E1888382ED97E1D5
S1133BB02CD24EC083E188834BC08091EC17909146
S1133BC0ED17892B09F044C0D093ED17C093EC177F
S1133BD084E188836981CE010296C5D0E9E7FAE1E0
S1133BE086A197A1019697A386A332C0FE01ED5743
S1133BF0FF4F808181111AC02D853E858091791AED
S1133C0090917A1A2817390771F48B8580FF0BC0BD
S1133C1086E1888389E290E03196918380838FEDF9
S1133C2097E1F3D115C087E1888312C087E18883C7
S1133C300FC0CE01EEDAFE01E957FF4F0190F0818B
S1133C40E02D309719F4CE0177D902C0CE01199531
S1133C50CE017CD9EC01892B09F092CFDF91CF9171
S1133C6008958091EE17982F9F70E4E5F1E080812C
S1133C70807F892B80838091EE17882329F080919F
S1133C80EF178093530108958091EF17982F9F7138
S1133C90E8E4F1E08081807E892B8083089593E0BD
S1133CA090934201909141019F719830D9F780938C
S1133CB04201909141019F718913FBCF089588E0DF
S1133CC0EEDF8FEF80934F018091F017882311F07E
S1133CD086E1E5CF0895E9E3F1E0808181608083A6
S1133CE01092F0171092EE1781E08093711888E01B
S1133CF0D6DF8BEE80935601ECE4F1E0808180689E
S1133D00808308958093F017DACF08958093EF1796
S1133D10A8CF0895CF93DF931F921F92CDB7DEB73C
S1133D209A838983809362018A81809363010F90CF
S1133D300F90DF91CF910895CF93DF931F921F923D
S1133D40CDB7DEB79A838983809360018A8180939B
S1133D50610199818A81890F80936D010F900F9081
S1133D60DF91CF9108950F931F93CF938C01C62FAA
S1133D7089E195DF8FEF80934F0182E08C0F809370
S1133D80800120E00BC0822F90E0FC01EF57FE4F32
S1133D90D801A80FB91F8C9180832F5F2C1798F33B
S1133DA083E08093711882E080934201CF911F9148
S1133DB00F9108951F93CF93DF9300D01F921F920A
S1133DC0CDB7DEB780917118823009F463C0809159
S1133DD04F0183FF3CC0A0917B0120E009C0FC019E
S1133DE0E058FE4F3081FC01EF50F84E30832F5FD6
S1133DF0822F90E04A2F50E0BA016F5F7F4F861701
S1133E0097076CF381EF97E19A838983A250AB8380
S1133E10FA01EF50F84E80818C83809147018A55D6
S1133E208D83CE010196F6DC809141018F7186313C
S1133E30D9F7EFE4F1E0808188608083ECE4F1E07D
S1133E4080818F77808380818068808323C0809184
S1133E504F0186FF1FC0809141018F718931A9F400
S1133E601091420112951695177049F0133021F004
S1133E70153021F412E003C011E001C013E01FDF8C
S1133E8081E080937118812F5BDEEFE4F1E08081A3
S1133E90806480830F900F900F900F900F90DF91AC
S1133EA0CF911F9108950E94F31460D014DF0C94F5
S1133EB03F1608957FDF0E947316B2C008950F93D2
S1133EC01F93CF93DF93EC01809172189091731834
S1133ED00097C9F14E815F8168857985FC01A0E076
S1133EE0B0E01AC002811381248135814017510743
S1133EF06207730748F4041B150B260B370B028368
S1133F001383248335830AC0401B510B620B730B4C
S1133F10DF010190F081E02D309721F74A835B8324
S1133F206C837D83109741F08D919C9111979983B7
S1133F308883CD93DC9315C099838883D0937318B9
S1133F40C09372180EC0198218828E819F81A88531
S1133F50B9858A839B83AC83BD83D0937318C09344
S1133F607218DF91CF911F910F91089510927318D9
S1133F70109272180895CF93DF93E0917218F09124
S1133F807318A0E0B0E02BC0E817F90721F51097EB
S1133F9029F0208131812D933C9306C02081318109
S1133FA030937318209372180190F081E02D3097AC
S1133FB0C1F0EC018A819B81AC81BD814281538136
S1133FC064817581840F951FA61FB71F8283938315
S1133FD0A483B58306C0DF010190F081E02D309702
S1133FE099F6DF91CF910895E0917218F0917318CA
S1133FF006C0E817F90739F00190F081E02D3097F9
S1134000C1F780E0089581E00895CF93DF93EC0138
S1134010EBDF811102C0CE0152DFDF91CF91089511
S1134020CF92DF92EF92FF92CF93DF938091781A31
S1134030882309F44DC08FB7F894C090781A109271
S1134040781A8FBFD12CE12CF12CCC0CDD1CEE1C8A
S1134050FF1CD701C601880F991FAA1FBB1F880F19
S1134060991FAA1FBB1FC80ED91EEA1EFB1E13C030
S1134070C81AD90AEA0AFB0A8881998190937318AD
S1134080809372188A85813011F4CE0118DFEB8594
S1134090FC85CE011995C0917218D09173182097A0
S11340A049F08A819B81AC81BD81C816D906EA0694
S11340B0FB06F0F6209761F08A819B81AC81BD817B
S11340C08C199D09AE09BF098A839B83AC83BD8388
S11340D0DF91CF91FF90EF90DF90CF9008959C01F6
S11340E040E050E060E271EA87E090E0C4D3215000
S11340F01092CD002093CC00E9ECF0E088E18083BD
S113410086E08093CA0080818068808308959091BE
S1134110C80095FFFCCF8093CE0080E090E0089526
S11341202F923F924F925F926F927F928F929F92C3
S1134130AF92BF92CF92DF92EF92FF920F931F93B1
S1134140CF93DF93CDB7DEB760970FB6F894DEBF99
S11341500FBECDBF7C011B016A01FC0117821682D0
S1134160838181FF2AC39E012F5F3F4F3901F701ED
S11341709381F10193FD859193FF81911F01882320
S113418009F417C3853239F493FD859193FF819126
S11341901F01853231F4B70190E0DDD45601650189
S11341A0E6CF10E0512C912CFFE1F915D8F08B32B9
S11341B079F038F4803279F08332A1F4F92DF0618A
S11341C02EC08D3261F0803369F4292D21602DC019
S11341D0392D3260932E892D8460982E2AC0E92DC2
S11341E0E86015C097FC2DC020ED280F2A3088F414
S11341F096FE06C03AE0139F200D1124122F19C019
S11342008AE0589E200D1124522EE92DE0629E2E44
S113421010C08E3231F496FCCCC2F92DF0649F2E7E
S113422008C08C3621F4292D2068922E02C08836CD
S113423041F4F10193FD859193FF81911F01811157
S1134240B3CF9BEB980F933020F4992D9061805E4F
S113425007C09BE9980F933008F059C1992D9F7EB0
S113426096FF16E09F73992E853619F49064992E63
S113427008C0863621F4392F3068932E02C01111FC
S1134280115097FE07C01C3350F444244394410E4C
S113429027E00BC0183038F027E017E005C027E00E
S11342A09CE3492E02C0212F412C560184E0A80E24
S11342B0B11CF6016081718182819381042DA30177
S11342C053D36C01F981FC87F0FF02C0F3FF06C0F1
S11342D091FC06C092FE06C000E205C00DE203C0D8
S11342E00BE201C000E08C858C7019F0011143C20F
S11342F080C297FE10C04C0CFC85F4FF04C08A8178
S1134300813309F44A94141474F528E0241578F5DB
S113431088E0482E2CC096FC2AC0812F90E08C1592
S11343209D059CF03CEFC3163FEFD30674F0892D36
S11343308068982E0AC0E2E0F0E0EC0FFD1FE10F68
S1134340F11D8081803319F411501111F4CF97FEBF
S11343500EC044244394410E812F90E0C816D90620
S11343602CF41C1904C04424439401C010E097FEAB
S113437006C01C141D0434F4C601019605C085E072
S113438090E002C081E090E001110196112331F028
S1134390212F30E02F5F3F4F820F931F252D30E0F8
S11343A08217930714F4581A01C0512C892D89706F
S11343B041F4552031F0B70180E290E0CCD35A9417
S11343C0F8CF002321F0B701802F90E0C4D393FCF1
S11343D008C0552031F0B70180E390E0BCD35A9473
S11343E0F8CF97FE4AC04601D7FE02C0812C912C1B
S11343F0C60188199909F301E80FF91FFE87ED87B3
S1134400960124193109388B2F87012F10E011955B
S1134410019511093FEF8316930621F4B7018EE24B
S113442090E099D3C814D9044CF08F8598898815E5
S1134430990524F4ED85FE85818101C080E3F1E0D6
S11344408F1A91082D853E852F5F3F4F3E872D871C
S11344508016910624F0B70190E07DD3DBCFC81419
S1134460D90441F49A81963320F4953319F43C85A8
S113447034FF81E3B70190E048C08A81813319F0A9
S11344809C859F7E9C87B70190E065D3111105C080
S113449094FC16C085E690E015C0B7018EE290E06A
S11344A05AD31E5F82E001E0080FF301E80FF11D0B
S11344B08081B70190E04FD3802F0113F4CFE8CF70
S11344C085E490E0B70147D3D7FC06C0C114D104FA
S11344D041F4EC85E4FF05C0D194C194D1088DE288
S11344E001C08BE2B70190E036D380E32AE0C21624
S11344F0D1042CF08F5FFAE0CF1AD108F7CFB701BF
S113450090E029D3B701C601C09625D349C18336AB
S113451031F0833779F0833509F052C01FC056015A
S113452032E0A30EB11CF6018081898301E010E022
S1134530630111C05601F2E0AF0EB11CF601C08058
S1134540D18096FE03C0612F70E002C06FEF7FEF51
S1134550C601F6D28C01F92DFF7713C0560122E073
S1134560A20EB11CF601C080D18096FE03C0612F5B
S113457070E002C06FEF7FEFC601CED28C01F92D3F
S1134580F0689F2EF3FD18C0852D90E008171907D9
S113459098F4B70180E290E0DED25A94F5CFF601A8
S11345A097FC859197FE81916F01B70190E0D3D27A
S11345B051105A94015011090115110581F7F0C0E9
S11345C0843611F0893659F5560197FE09C024E066
S11345D0A20EB11CF60160817181828193810AC0AF
S11345E0F2E0AF0EB11CF60160817181072E000C60
S11345F0880B990BF92DFF769F2E97FF09C0909594
S11346008095709561957F4F8F4F9F4FF0689F2ED7
S11346102AE030E0A3011AD3C82EC6183EC0092DE3
S1134620853721F40F7E2AE030E01DC0097F8F36E4
S113463091F018F4883559F0BCC0803719F08837E8
S113464011F0B7C0006104FF09C0046007C094FE04
S113465008C0066006C028E030E005C020E130E074
S113466002C020E132E0560107FF09C084E0A80E31
S1134670B11CF601608171818281938108C0F2E0EE
S1134680AF0EB11CF6016081718180E090E0A3015E
S1134690DDD2C82EC6180F77902E96FE0BC0092DBA
S11346A00E7FC11650F494FE0AC092FC08C0092D76
S11346B00E7E05C0DC2C092D03C0DC2C01C0D12EDC
S11346C004FF0DC0FE01EC0DF11D8081803311F457
S11346D0097E09C002FF06C0D394D39404C0802F7E
S11346E0867809F0D39403FD10C000FF06C01C2D8A
S11346F0D51478F4150D1D190CC0D51450F4B70158
S113470080E290E028D2D394F8CFD51410F45D1849
S113471001C0512C04FF0FC0B70180E390E01BD20D
S113472002FF16C001FD03C088E790E002C088E5DF
S113473090E0B7010CC0802F867851F001FF02C0D1
S11347408BE201C080E207FD8DE2B70190E003D265
S1134750C11630F4B70180E390E0FDD11150F8CFD9
S1134760CA94F301EC0DF11D8081B70190E0F3D1FF
S1134770C110F6CF15C0F4E0F51550F584E0581AD1
S113478093FE1EC0011125C02C8523FF27C004E51C
S113479011E0392D3071932EF8018491811121C0DB
S11347A0552009F4FCCCB70180E290E0D4D15A94AE
S11347B0F7CFF7018681978123C08FEF9FEF20C049
S11347C0B70180E290E0C7D15A945110F9CFDACF03
S11347D0512CB701802F90E0BED1D6CF08E511E06F
S11347E0D8CF91108052B70190E0B5D10F5F1F4F21
S11347F0D3CF23E0251510F483E0C1CF512CC4CFCF
S113480060960FB6F894DEBF0FBECDBFDF91CF9197
S11348101F910F91FF90EF90DF90CF90BF90AF90DA
S11348209F908F907F906F905F904F903F902F90CC
S11348300895A1E21A2EAA1BBB1BFD010DC0AA1FDD
S1134840BB1FEE1FFF1FA217B307E407F50720F0F5
S1134850A21BB30BE40BF50B661F771F881F991F70
S11348601A9469F760957095809590959B01AC01B9
S1134870BD01CF010895052E97FB16F400940FD0C7
S113488057FD05D0D6DF07FC02D046F408C050958A
S11348904095309521953F4F4F4F5F4F0895909528
S11348A08095709561957F4F8F4F9F4F0895EE0FC0
S11348B0FF1F881F8BBF0790F691E02D19948F92EC
S11348C09F92AF92BF92CF92DF92EF92FF92CF93DB
S11348D0DF93EC01688179818A819B81611571057F
S11348E08105910521F464E279ED8BE597E02DE1F2
S11348F033EF41E050E0BFDF49015A019B01AC01B5
S1134900A7EAB1E401D26B017C01ACEEB4EFA501DE
S1134910940106D2DC01CB018C0D9D1DAE1DBF1D83
S1134920B7FF03C00197A109B04888839983AA837C
S1134930BB839F77DF91CF91FF90EF90DF90CF9073
S1134940BF90AF909F908F900895B9CF80E092E090
S1134950B6CFA0E0B0E08093000290930102A09350
S11349600202B09303020895283008F027E03327A9
S1134970DA01990F311D87FD91600096610571057B
S113498039F432602E5F3D9330E32A95E1F70895C0
S11349909F3F30F080387105610509F03C5F3C5F52
S11349A03D93913008F08068911DDF93CF931F935E
S11349B00F93FF92EF92192F987F9695E92F969572
S11349C09695E90FFF27EA54FE4F99273327EE24E3
S11349D0FF24A701E70105900894079428F4360FF3
S11349E0E71EF81E491F511D660F771F881F991F68
S11349F00694A1F70590079428F4E70EF81E491FC2
S1134A00561FC11D770F881F991F661F0694A1F7B3
S1134A100590079428F4F80E491F561FC71FD11D8F
S1134A20880F991F661F771F0694A1F705900794B6
S1134A3020F4490F561FC71FD81F990F661F771FF1
S1134A40881F0694A9F784911095177041F0D695A4
S1134A50C79557954795F794E7941A95C1F7ECE5F0
S1134A60F1E06894159015913591659195910590B3
S1134A707FE27395E118F10A430B560BC90BD00979
S1134A80C0F7E10CF11E431F561FC91FD01D7EF451
S1134A90703311F48A95E6CFE894015030F0080F92
S1134AA00AF40027021708F4202F2395022F7A33E3
S1134AB028F079E37D932A95E9F710C07D932A9530
S1134AC089F6069497956795379517951794E11885
S1134AD0F10A430B560BC90BD00998F023957E912C
S1134AE073957A3308F070E37C932013B8F77E91C2
S1134AF070617D9330F0839571E37D9370E32A9523
S1134B00E1F71124EF90FF900F911F91CF91DF9166
S1134B10992787FD90950895FC0105906150704098
S1134B200110D8F7809590958E0F9F1F0895FB0173
S1134B30DC0102C001900D9241505040D8F7089515
S1134B40FC016150704001900110D8F78095909558
S1134B508E0F9F1F08950F931F93CF93DF93FB0135
S1134B60238121FD03C08FEF9FEF2CC022FF16C0CD
S1134B7046815781248135814217530744F4A0812B
S1134B80B1819D012F5F3F4F318320838C93268118
S1134B9037812F5F3F4F3783268314C08B01EC018D
S1134BA0FB010084F185E02D1995892BE1F6D801EC
S1134BB016968D919C911797019617969C938E93B8
S1134BC01697CE01DF91CF911F910F910895CF9346
S1134BD0DF93CDB7DEB7AE014A5F5F4FFA01619153
S1134BE07191AF018091A71A9091A81A99DADF9177
S1134BF0CF9108950F931F93CF93DF93CDB7DEB773
S1134C00AE01485F5F4FDA016D917D91AD0105EA18
S1134C101AE1F80182819381DC0113962C91139798
S1134C20286013962C937CDAD8011296ED91FC91AE
S1134C3013972381277F2383DF91CF911F910F91B6
S1134C4008956091A71A7091A81A85CFFA01AA272E
S1134C50283051F1203181F1E8946F936E7F6E5FBB
S1134C607F4F8F4F9F4FAF4FB1E03ED0B4E03CD069
S1134C70670F781F891F9A1FA11D680F791F8A1F4C
S1134C80911DA11D6A0F711D811D911DA11D20D0B3
S1134C9009F468943F912AE0269F11243019305D6D
S1134CA03193DEF6CF010895462F4770405D41935E
S1134CB0B3E00FD0C9F7F6CF462F4F70405D4A33AB
S1134CC018F0495D31FD4052419302D0A9F7EACF73
S1134CD0B4E0A6959795879577956795BA95C9F7A2
S1134CE000976105710508959B01AC010A2E069495
S1134CF05795479537952795BA95C9F7620F731F4E
S1134D00841F951FA01D08950FD0A59F900DB49FDB
S1134D10900DA49F800D911D11240895B7FFF4CF29
S1134D20F3DF821B930B0895A29FB001B39FC001D0
S1134D30A39F700D811D1124911DB29F700D811DC3
S10D4D401124911D0895F894FFCF8B
S1134D4A0100000000C00102573535303000DF0E83
S1134D5AE00EE10EE20EE30EE60E000000004F4BF9
S1134D6A0A0D000000000300000000872000000074
S1134D7A000008DCABCDEFC0A835C7FFFFFF00C0B9
S1134D8AA835010808080801020202020202020206
S1134D9A25643A436F6E6E6563746564202D20251D
S1134DAA642E25642E25642E2564203A2025640D5C
S1134DBA0A0025643A536F636B657420436C6F73FE
S1134DCA65640D0A0025643A4C697374656E2C2077
S1134DDA54435020736572766572206C6F6F7062EB
S1134DEA61636B2C20706F7274205B25645D0D0AFD
S1134DFA0025643A436F6E6E656374656420746F4C
S1134E0A202D2025642E25642E25642E2564203A1F
S1134E1A2025640D0A0025643A54727920746F209F
S1134E2A636F6E6E65637420746F207468652025E1
S1134E3A642E25642E25642E2564203A2025640DCB
S1134E4A0A0025643A207265637666726F6D20657E
S1134E5A72726F722E20256C640D0A0025643A2042
S1134E6A73656E64746F206572726F722E20256C7E
S1134E7A640D0A0025643A4F70656E65642C2055EA
S1134E8A4450206C6F6F706261636B2C20706F7278
S1134E9A74205B25645D0D0A00526571756573742F
S1134EAA005265706C79004D6163206164647265B7
S1134EBA73733A20253032783A253032783A2530DD
S1134ECA32783A253032783A253032783A253032F7
S1134EDA780A0D0049502061646472657373203A3C
S1134EEA2025642E25642E25642E25640A0D00537C
S1134EFA4D204D61736B092020203A2025642E250C
S1134F0A642E25642E25640A0D0047617465207792
S1134F1A61792020203A2025642E25642E25642ECA
S1134F2A25640A0D00444E53205365727665722037
S1134F3A3A2025642E25642E25642E25640A0D0044
S9030000FC
