S013000050726F6A6563745F4C574D2E73726563EB
S1130000F7C1000025C2000023C2000021C2000085
S11300101FC200001DC200001BC2000019C2000064
S113002017C2000015C2000013C2000011C2000074
S11300300FC200000C94F0230BC2000009C20000A0
S113004007C2000005C2000003C2000001C2000094
S1130050FFC100000C94CE20FBC10000F9C10000D8
S1130060F7C10000F5C10000F3C10000F1C10000B8
S1130070EFC10000EDC10000EBC10000E9C10000C8
S1130080E7C10000E5C10000E3C10000E1C10000D8
S11300900C9468240C944C24DBC10000D9C10000EA
S11300A0D7C10000D5C100000C94DF23D1C10000EA
S11300B0CFC10000CDC10000CBC10000C9C1000008
S11300C0C7C10000C5C10000C3C10000C1C1000018
S11300D0BFC10000BDC10000BBC10000B9C1000028
S11300E0B7C10000B5C10000B3C10000B1C1000038
S11300F0AFC10000ADC10000ABC10000A9C1000048
S1130100A7C10000A5C10000A3C10000A1C1000057
S11301109FC100009DC100009BC1000099C1000067
S113012097C1000095C1000093C1000091C1000077
S11301308FC100009B0C9E0CAD0CA80CB20CB70C2C
S1130140BC0CCA0CDE0CED0CF00CF40C070DF80C16
S1130150FB0C010D6E616E00696E660000407A1042
S1130160F35A00A0724E18090010A5D4E80000E864
S11301707648170000E40B54020000CA9A3B0000C2
S113018000E1F505000080969800000040420F0051
S11301900000A08601000000102700000000E80312
S11301A0000000006400000000000A0000000000DD
S11301B00100000000002C76D888DC674F0823DF9C
S11301C0C1DFAE59E1B1B796E5E3E453C63AE6516F
S11301D0997696E8E6C28426EB898C9B62ED407C96
S11301E06FFCEFBC9C9F40F2BAA56FA5F490055A32
S11301F02AF75C936B6CF9676DC11BFCE0E40D4757
S1130200FEF520E6B500D0ED902E03009435770579
S11302100080841E080000204E0A000000C80C3331
S11302203333330F986E12831141EF8D2114893BC0
S1130230E65516CFFEE6DB18D1844B381BF77C1D40
S1130240901DA4BBE424203284725E228100C9F193
S113025024ECA1E53D27444843502049500D0A00B1
S11302605354415449432049500D0A003D3D3D3DFE
S11302703D3D3D3D3D3D3D3D3D3D3D3D3D3D3D3DAA
S11302803D3D3D3D3D3D3D3D3D3D3D3D3D3D3D3D9A
S11302903D3D3D0D0A002057495A6E657420636840
S11302A069703A20202573200D0A000D0A3D3D3D5A
S11302B03D3D3D3D3D3D3D3D3D3D3D3D3D3D3D3D6A
S11302C03D3D3D3D3D3D3D3D3D3D3D3D3D3D3D3D5A
S11302D03D3D3D3D0D0A002D2D4D51545420436F9D
S11302E06E6E6563746564204552524F523A202500
S11302F06C640D0A005375627363726962656420ED
S1130300282573292025640D0A002B2B4D515454A4
S113031020436F6E6E656374656420535543434593
S113032053533A20256C640D0A003E3E5472796999
S11303306E6720636F6E6E65637420746F204D5119
S113034054542062726F6B65723A2025642E2564C2
S11303502E25642E2564202E2E0D0A003E3E2046B6
S11303607265652052414D2069733A2025642062EC
S1130370797465730D0A00436F6E6E656374696FFB
S11303806E2077697468204D5154542042726F6B0B
S1130390657220776173206C6F737421210D0A528A
S11303A065626F6F742074686520626F6172642E79
S11303B02E0D0A00202D204552524F520D0A0020C6
S11303C02D204F4B0D0A003E3E4D51545420707564
S11303D062206D736720256C7520003C3C4D5154A0
S11303E054205375623A205B25735D202573000009
S11303F011241FBECFEFD1E8DEBFCDBF00E00CBF9C
S113040084B78093031D14BE0FB6F894A895809109
S11304106000886180936000109260000FBE13E05A
S1130420A0E0B2E0ECE5FBE600E00BBF02C0079001
S11304300D92A03FB107D9F72DE1A0EFB3E001C0C1
S11304401D92A330B207E1F70E941D220C94AC3533
S1130450D7CDBF92CF92DF92EF92FF920F931F936B
S1130460CF93DF93893008F059C0B82E082F10E0DD
S1130470E801CC0FDD1FCC0FDD1F2196CC0FDD1F53
S1130480CC0FDD1FCC0FDD1F6E01D3940D2C000C9F
S1130490EE08FF0840E1C701B601C8D4C701B601A0
S11304A05ED48111FBCFBE017E5F072E000C880B4A
S11304B0990B4FE1BBD481E090E002C0880F991FF3
S11304C0BA94E2F78095909520910A0430910B0438
S11304D02823392330930B0420930A042091080421
S11304E03091090482239323909309048093080490
S11304F0F801EE0FFF1FE850FC4F11821082F80143
S1130500E051FC4F1082BE017D5F072E000C880B6A
S1130510990B25D48111F7CF81E001C08FEFDF91D2
S1130520CF911F910F91FF90EF90DF90CF90BF90EC
S113053008954F925F926F927F92AF92BF92CF9243
S1130540DF92EF92FF920F931F93CF93DF9300D02C
S11305501F92CDB7DEB7F82E562E3A01E22E28E0D0
S1130560281708F4C5C081E0681739F0681708F443
S1130570C1C024E02617A8F4BDC024E030E0AE01D9
S11305804F5F5F4F60E07FE080E090E0C1D48981FD
S11305909A81AB81BC81892B8A2B8B2B11F48DEF33
S11305A0B2C0E2FCA9C0EE20A9F081E0581621F007
S11305B022E0521629F00EC08E2D817259F49EC08D
S11305C0E5FE03C0EE200CF09BC0E4FE03C0EE2069
S11305D00CF098C08F2D3DDFCF2CD12C8601000F5D
S11305E0111F000F111F0F5F1F4F000F111F000F6E
S11305F0111F000F111F4E2D407F4529B801012EF8
S1130600000C880B990B12D46114710491F460905E
S1130610040270900502C301019690930502809331
S11306200402409631F480E090EC909305028093AC
S11306300402B8017C5F072E000C880B990B472D30
S1130640F5D3B8017B5F072E000C880B990B462D60
S1130650EDD328015394052C000C6608770841E07B
S1130660C301B201E3D3C301B20179D38111FBCF3A
S113067081E090E00F2C02C0880F991F0A94E2F7E2
S11306808095909520910A0430910B0428233923F6
S1130690E0FAAA24A0F8B12C0F2C02C0AA0CBB1CAF
S11306A00A94E2F7A22AB32AB0920B04A0920A0495
S11306B02091080430910904822393239093090420
S11306C080930804F601EE0FFF1FE850FC4F1182DF
S11306D01082F601E051FC4F1082B8017D5F072EB5
S11306E0000C880B990B3BD38823B9F38F2D0BC0D7
S11306F08FEF09C08BEF07C08AEF05C08AEF03C0F4
S11307008AEF01C08AEF0F900F900F900F90DF9146
S1130710CF911F910F91FF90EF90DF90CF90BF90FA
S1130720AF907F906F905F904F9008958F929F92BB
S1130730AF92BF92CF92DF92EF92FF921F93CF932B
S1130740DF93893008F0ACC06A017B01182FC82FF1
S1130750D0E0CC0FDD1FCC0FDD1F2196CC0FDD1FA9
S1130760CC0FDD1FCC0FDD1FBE010D2E000C880B3E
S1130770990BF5D28F70813009F094C04E018DEF42
S1130780981A092C000CAA08BB08C501B401E7D2C9
S1130790833109F089C0F701408150E060E070E0E6
S11307A0762F652F542F44278181480F511D611DD9
S11307B0711D762F652F542F44278281480F511DB8
S11307C0611D711D762F652F542F44278381480F97
S11307D0511D611D711D41505109610971094E3F3F
S11307E05F4F6F4F7F4F08F061C0C114D10409F40B
S11307F05FC0BE01745F072E000C880B990B24E0C8
S113080030E0A70107D4BE01705F072E000C880BEF
S1130810990B4D2D0BD3BE017F5E072E000C880B68
S1130820990B4C2D03D36E01D3940D2C000CEE08C0
S1130830FF0844E0C701B601F9D2C701B6018FD25F
S11308408111FBCF81E090E002C0880F991F1A95B7
S1130850E2F720910A0430910B0482239323892B1D
S1130860C1F028C06E01EEEFDE1A0D2C000CEE086C
S1130870FF08C701B60173D283FF06C048E0C70171
S1130880B601D4D283EF19C0C501B40168D288235C
S113089099F0C501B40163D2873121F781E00DC01D
S11308A08FEF0BC08BEF09C08DEF07C084EF05C03D
S11308B085EF03C080E001C08CEFDF91CF911F91E1
S11308C0FF90EF90DF90CF90BF90AF909F908F906C
S11308D00895CF92DF92EF92FF921F93CF93DF930D
S11308E0893008F05DC0182FC82FD0E0CC0FDD1F71
S11308F0CC0FDD1F2196CC0FDD1FCC0FDD1FCC0FDD
S1130900DD1FBE010D2E000C880B990B28D28F70B1
S1130910813009F047C06E01D3940D2C000CEE0811
S1130920FF0848E0C701B60181D2C701B60117D25A
S11309308111FBCF81E090E0012E02C0880F991F46
S11309400A94E2F79C012095309540910804509157
S113095009042423352330930904209308042091A7
S11309600A0430910B0482239323892B71F01CC059
S1130970BE017E5F072E000C880B990BF0D183FF1C
S113098004C0812F66DD83EF10C0BE017D5F072E9A
S1130990000C880B990BE3D18111EACF81E005C0EB
S11309A08FEF03C08BEF01C080E0DF91CF911F91E7
S11309B0FF90EF90DF90CF9008952F923F924F9247
S11309C05F926F927F928F929F92AF92BF92CF92DB
S11309D0DF92EF92FF920F931F93CF93DF9300D098
S11309E000D0CDB7DEB7893008F0C7C05E834D8331
S11309F01B01F82EC82ED12CCC0CDD1CCC0CDD1C1C
S1130A002FEFC21AD20ACC0CDD1CCC0CDD1CCC0C92
S1130A10DD1CB6010D2C000C880B990BA0D18F7036
S1130A20813009F0AEC04D815E81452B09F4AEC022
S1130A3026015DEF551A052C000C66087708C301E2
S1130A40B2018DD1873119F08C3109F0A4C081E055
S1130A5090E04C010F2C02C0880C991C0A94E2F718
S1130A605401809108049091090488219921892BCB
S1130A7061F1C6019E5F9C01990F440B550B2983BC
S1130A803A834B835C83CA01B90169D184FF14C0E2
S1130A9040E169817A818B819C81C8D120910804CD
S1130AA030910904C40180959095822393239093F7
S1130AB009048093080409C083FF72C08F2DC9DC28
S1130AC063EF7FEF8FEF9FEF72C0B601715E072E69
S1130AD0000C880B990B43D1082F10E0102F00272E
S1130AE0110F110F4D815E810417150708F08A015B
S1130AF08F2D17D39A838983C301B20130D18731F3
S1130B0049F08C3139F08F2DA4DC69EF7FEF8FEF42
S1130B109FEF4DC080910A0490910B048A219B2180
S1130B20892B31F089819A818017910708F43CC0A0
S1130B3029813A8120173107D8F2A801B1018F2DFC
S1130B40A0D3D3940D2C000CEE08FF0840E2C7019B
S1130B50B6016CD1C701B60102D18111FBCF8091DE
S1130B60080490910904882A992A90920904809291
S1130B700804B80180E090E01AC06FEF7FEFCB016A
S1130B8016C06BEF7FEF8FEF9FEF11C062EF7FEF27
S1130B908FEF9FEF0CC069EF7FEF8FEF9FEF07C0E0
S1130BA060E070E0CB0103C060E070E0CB0126960A
S1130BB00FB6F894DEBF0FBECDBFDF91CF911F916A
S1130BC00F91FF90EF90DF90CF90BF90AF909F90E8
S1130BD08F907F906F905F904F903F902F900895EB
S1130BE07F928F929F92AF92BF92CF92DF92EF92B9
S1130BF0FF920F931F93CF93DF93893008F090C037
S1130C00EA014B01782EC82ED12C8601000F111F4A
S1130C10000F111F0F5F1F4F000F111F000F111F37
S1130C20000F111FB801012E000C880B990B97D0EF
S1130C308F70813009F078C0209709F47AC0B80128
S1130C40725E072E000C880B990B89D0A82EB12C4C
S1130C50BA2CAA24BB0CBB0CAC16BD0608F05E0172
S1130C60872DB7D2EC01B8017D5F072E000C880BED
S1130C70990B75D0873121F18C31D9F42097A9F5DE
S1130C80872D4FD27C01B801715E072E000C880BB2
S1130C90990B65D090E0982F8827990F990FE81643
S1130CA0F90671F4872DD5DB69EF7FEF8FEF9FEFA6
S1130CB048C0872DCEDB69EF7FEF8FEF9FEF41C0F8
S1130CC081E090E00C2C02C0880F991F0A94E2F78F
S1130CD020910A0430910B0482239323892B11F071
S1130CE0209761F1209709F4BBCFCA15DB0508F002
S1130CF0E501AE01B401872D4BD36801D3940D2CCB
S1130D00000CEE08FF0840E4C701B6018FD0C7010C
S1130D10B60125D08111FBCFBE0180E090E011C067
S1130D206FEF7FEFCB010DC06BEF7FEF8FEF9FEF86
S1130D3008C062EF7FEF8FEF9FEF03C060E070E0C9
S1130D40CB01DF91CF911F910F91FF90EF90DF9036
S1130D50CF90BF90AF909F908F907F900895DF9237
S1130D60EF92FF920F931F93CF93DF9300D0CDB7F1
S1130D70DEB7F62EE72ED82E06E012E0D80118963C
S1130D80ED91FC9119971995D8011C96ED91FC9160
S1130D901D971995F80184899589892B31F0E09183
S1130DA01C02F0911D023097C1F406E012E0D80154
S1130DB05296ED91FC9153978D2D1995D801529629
S1130DC0ED91FC9153978E2D1995D8015296ED9182
S1130DD0FC9153978F2D199508C0D982EA82FB8222
S1130DE063E070E0CE010196199506E012E0D801A7
S1130DF05096ED91FC9151971995F82ED8011E96B5
S1130E00ED91FC911F971995D8011A96ED91FC91DB
S1130E101B9719958F2D0F900F900F90DF91CF9105
S1130E201F910F91FF90EF90DF9008954F925F9282
S1130E306F927F92BF92CF92DF92EF92FF920F93C5
S1130E401F93CF93DF9300D01F92CDB7DEB76B0112
S1130E507C01B42E06E012E0D8011896ED91FC91C5
S1130E6019971995D8011C96ED91FC911D97199528
S1130E7026013701689442F8D8015696ED91FC9109
S1130E8057973097E1F45296ED91FC9153978E2D3C
S1130E901995D8015296ED91FC9153978D2D199582
S1130EA0D8015296ED91FC915397842D1995D80150
S1130EB05296ED91FC9153978B2D199509C0E982B7
S1130EC0DA824B82BC8264E070E0CE01019619950F
S1130ED006E012E0D8011E96ED91FC911F9719953A
S1130EE0D8011A96ED91FC911B9719950F900F90CC
S1130EF00F900F90DF91CF911F910F91FF90EF9082
S1130F00DF90CF90BF907F906F905F904F90089547
S1130F109F92AF92BF92CF92DF92EF92FF920F9384
S1130F201F93CF93DF9300D0CDB7DEB7F62EE72E15
S1130F30982E5A01690106E012E0D8011896ED9145
S1130F40FC9119971995D8011C96ED91FC911D9768
S1130F501995F80184899589892B31F0E0911C0257
S1130F60F0911D02309751F506E012E0D801529637
S1130F70ED91FC915397892D1995D8015296ED91D5
S1130F80FC9153978E2D1995D8015296ED91FC91B1
S1130F9053978F2D199500E010E00CC07501E00EF9
S1130FA0F11EE0911602F09117021995F701808362
S1130FB00F5F1F4F0C151D0588F30FC09982EA823D
S1130FC0FB8263E070E0CE0101961995E0911A026C
S1130FD0F0911B02B601C501199506E012E0D80193
S1130FE01E96ED91FC911F971995D8011A96ED91D3
S1130FF0FC911B9719950F900F900F90DF91CF9153
S11310001F910F91FF90EF90DF90CF90BF90AF9022
S11310109F9008954F925F926F927F928F929F92CA
S1131020AF92BF92CF92DF92EF92FF920F931F93F2
S1131030CF93DF9300D0CDB7DEB76B017C014A01BB
S1131040590106E012E0D8011896ED91FC91199728
S11310501995D8011C96ED91FC911D9719952601BF
S11310603701689442F8D8015696ED91FC91579750
S1131070309731F55296ED91FC9153978E2D199539
S1131080D8015296ED91FC9153978D2D1995D80165
S11310905296ED91FC915397842D199500E010E040
S11310A00BC0E0911802F0911902D401A00FB11FF6
S11310B08C9119950F5F1F4F0A151B0590F30FC0F4
S11310C0E982DA824B8263E070E0CE0101961995E1
S11310D0E0911C02F0911D02B501C401199506E0CE
S11310E012E0D8011E96ED91FC911F971995D80135
S11310F01A96ED91FC911B9719950F900F900F90F4
S1131100DF91CF911F910F91FF90EF90DF90CF90DF
S1131110BF90AF909F908F907F906F905F904F9013
S113112008957F928F929F92AF92BF92CF92DF9257
S1131130EF92FF920F931F93CF93DF93782E00E0EB
S113114010E0C72CD12CCC0CDD1CCC0CDD1C8FEF9B
S1131150C81AD80ACC0CDD1CCC0CDD1CCC0CDD1C54
S1131160460180EE981A092C000CAA08BB08C50198
S1131170B401F5DDC82FD0E0DC2FCC278FEDD81AD1
S11311800D2C000CEE08FF08C701B601E8DDC80FFE
S1131190D11D209761F0C501B401E1DD082F10E0F5
S11311A0102F0027C701B601DADD080F111D0C1737
S11311B01D0739F6C801DF91CF911F910F91FF9060
S11311C0EF90DF90CF90BF90AF909F908F907F90E3
S11311D008957F928F929F92AF92BF92CF92DF92A7
S11311E0EF92FF920F931F93CF93DF93782E00E03B
S11311F010E0C72CD12CCC0CDD1CCC0CDD1C8FEFEB
S1131200C81AD80ACC0CDD1CCC0CDD1CCC0CDD1CA3
S113121046018AED981A092C000CAA08BB08C501DE
S1131220B4019DDDC82FD0E0DC2FCC2789EDD81A7E
S11312300D2C000CEE08FF08C701B60190DDC80FA5
S1131240D11D209761F0C501B40189DD082F10E09C
S1131250102F0027C701B60182DD080F111D0C17DE
S11312601D0739F6C801DF91CF911F910F91FF90AF
S1131270EF90DF90CF90BF90AF909F908F907F9032
S113128008952F923F924F925F926F927F928F9226
S11312909F92AF92BF92CF92DF92EF92FF920F9301
S11312A01F93CF93DF9300D01F92CDB7DEB74115C4
S11312B0510509F456C03A017A836983282E312CEA
S11312C0220C331C220C331C61012FEFC21AD20AE8
S11312D0CC0CDD1CCC0CDD1CCC0CDD1C46013CED27
S11312E0931A092C000CAA08BB08C501B40137DD08
S11312F0082F10E0102F00278BEDD81A0D2C000CAE
S1131300EE08FF08C701B6012ADD080F111DC80148
S1131310A0E0B0E04427582F692F7A2FC10102962C
S11313201C01220C331C220C331C220C331CC10163
S1131330330CAA0BBB0B1A012B01280E391E4A1EB3
S11313405B1EC201B101930149815A8163DE060D1E
S1131350171D412FC501B40169DD402FC701B60136
S113136065DD0F900F900F900F90DF91CF911F913B
S11313700F91FF90EF90DF90CF90BF90AF909F9030
S11313808F907F906F905F904F903F902F90089533
S11313902F923F924F925F926F927F928F929F9281
S11313A0AF92BF92CF92DF92EF92FF920F931F936F
S11313B0CF93DF9300D01F92CDB7DEB7411551050F
S11313C009F456C03A017A836983282E312C220C01
S11313D0331C220C331C61012FEFC21AD20ACC0C2D
S11313E0DD1CCC0CDD1CCC0CDD1C460138ED931A45
S11313F0092C000CAA08BB08C501B401B0DC082FF5
S113140010E0102F002787EDD81A0D2C000CEE08E1
S1131410FF08C701B601A3DC080F111DC801A0E035
S1131420B0E04427582F692F7A2FC10103961C017D
S1131430220C331C220C331C220C331CC101330C30
S1131440AA0BBB0B1A012B01280E391E4A1E5B1E68
S1131450C201B101930149815A815ADD060D171D5C
S1131460412FC501B401E2DC402FC701B601DEDC27
S11314700F900F900F900F90DF91CF911F910F91CC
S1131480FF90EF90DF90CF90BF90AF909F908F90A0
S11314907F906F905F904F903F902F9008950895A4
S11314A0089508950895FB0180810895FB01408308
S11314B0089580E00895089508950895009719F017
S11314C06115710559F4E6E0F2E081E59AE095874B
S11314D0848782E59AE0978786870895E6E0F2E0BC
S11314E095878487778766870895209106023091CF
S11314F0070231FFFACF009719F06115710559F40D
S1131500E6E0F2E089E59AE0918B808B8BE59AE046
S1131510938B828B0895E6E0F2E0918B808B738B42
S1131520628B0895209106023091070231FFFACFB1
S1131530009719F06115710559F4E6E0F2E08CE5C5
S11315409AE0958B848B8DE59AE0978B868B089532
S1131550E6E0F2E0958B848B778B668B0895CF93CE
S1131560DF93CDB7DEB762970FB6F894DEBF0FBE38
S1131570CDBF26E030E0AE01435F5F4F60E079E02D
S113158080E090E0C5DC24E030E0AE014F5F5F4FC7
S113159060E071E080E090E0BBDC24E030E0AE018C
S11315A04B5F5F4F60E075E080E090E0B1DC24E0E9
S11315B030E0AE01475F5F4F60E07FE080E090E0A5
S11315C0A7DC40E860E070E0CB0130DC60E070E074
S11315D0CB01C5DB26E030E0AE01435F5F4F60E046
S11315E079E080E090E016DD24E030E0AE014F5F6A
S11315F05F4F60E071E080E090E00CDD24E030E0DB
S1131600AE014B5F5F4F60E075E080E090E002DD8B
S113161024E030E0AE01475F5F4F60E07FE080E0B0
S113162090E0F8DC62960FB6F894DEBF0FBECDBF33
S1131630DF91CF910895FF920F931F93CF93DF9380
S1131640EC018B018CDF209769F430C0FE01E80FB8
S1131650F11D87FDFA952081920F91310CF05BC04A
S11316608F5F02C090E080E0883084F3F12C1BC0CF
S11316706F2D0F2C000C770BFE01E60FF71F660F82
S1131680771F660F771F6F5F7F4F660F771F660F99
S1131690771F660F771F715E072E000C880B990B5E
S11316A04081C4DBF39487E08F1514F7011511050D
S11316B069F480E033C0F801E80FF11D87FDFA9565
S11316C02081920F91314CF58F5F02C090E080E051
S11316D088308CF3C0E01BC06C2F0C2E000C770BF1
S11316E0F801E60FF71F660F771F660F771F6F5F0E
S11316F07F4F660F771F660F771F660F771F725E27
S1131700072E000C880B990B408190DBCF5FC8300B
S11317101CF380E003C08FEF01C08FEFDF91CF9106
S11317201F910F91FF900895CF93C92F482F407FA9
S113173060E075E180E090E079DB4C2F60E077E1D8
S113174080E090E073DBCF910895CF9360E075E182
S113175080E090E004DBC82FC07F60E077E180E0A8
S113176090E0FDDA90E0982F88278C0F911DCF919F
S11317700895CF93C92F482F60E076E180E090E090
S113178055DB4C2F60E078E180E090E04FDBCF91B7
S11317900895CF9360E076E180E090E0E0DAC82F2E
S11317A060E078E180E090E0DADA90E0982F882732
S11317B08C0F911DCF91089560E07EE280E090E06F
S11317C0CEDA80FD02C080E0089581E0089560E0F3
S11317D07EE280E090E0C3DA8873803311F481E024
S11317E0089580E0089560E07EE280E090E0B7DA5A
S11317F0482F4F7760E07EE280E090E017DB60E006
S11318007EE280E090E0ABDA482F406860E07EE260
S113181080E090E00BCB0895FC018081813011F4CD
S113182040E401C040E08181813011F448630EC07E
S11318308381813039F48281813011F4486106C09A
S1131840486004C08281813009F4406160E07EE236
S113185080E090E0EBDAC7CF0895CF93DF93EC01FB
S113186060E07EE280E090E07ADA86FB992790F9E6
S113187098838873803211F0883319F491E0998346
S113188001C01982883121F0803211F0803119F4BD
S113189091E09A8301C01A82883121F0803211F0DC
S11318A0883019F481E08B8301C01B82DF91CF91D2
S11318B00895CF93C82F60E07EE280E090E04FDA95
S11318C086FF1DC0877CC13019F4482F406302C0D5
S11318D0482F486360E07EE280E090E0A7DA83DF8F
S11318E060E07EE280E090E03ADAC13021F4807377
S11318F041F48FEF09C0887331F48FEF05C08FEF87
S113190003C080E001C080E0CF9108950F931F933E
S1131910CF93DF9300E010E0980190E080319105CF
S113192040F4EB01FC018827E656FF4F8F4F0C94DF
S11319301A338FEF71C013DE80E06EC0CD2B21F01F
S11319408B019B01285F3F4FB901C80174DE64C05D
S113195088819981E9DE80E05FC0F7DE998388831E
S113196080E05AC08881998104DF80E055C011DF8E
S11319709983888380E050C0498160E073E180E00E
S113198090E054DA488160E074E180E090E04EDA5F
S113199080E042C060E073E180E090E0E0D9082F8D
S11319A010E0102F002760E074E180E090E0D7D9C8
S11319B0080F111D1983088380E02EC0E6E0F2E0D1
S11319C0828188838381898384818A8385818B83CF
S11319D086818C831D8280E01FC005DF80E01CC0EF
S11319E0CB011ADF80E018C0CB0137DF80E014C0E0
S11319F088815FDF11C0EBDE8F3F59F0888380E080
S1131A000BC0DADE8F3F39F0888380E005C080E0C8
S1131A1003C08FEF01C08FEFDF91CF911F910F9122
S1131A200895CF93DF93EC0126E030E0AC0160E051
S1131A3079E080E090E0EEDAAE01425F5F4F24E0AF
S1131A4030E060E071E080E090E0E4DAAE01465F0F
S1131A505F4F24E030E060E075E080E090E0DADAA7
S1131A60AE014A5F5F4F24E030E060E07FE080E059
S1131A7090E0D0DA8A89EDE0F4E080838B89818379
S1131A808C8982838D8983838E8980930C04DF9172
S1131A90CF910895CF93DF93EC0126E030E0AC01C1
S1131AA060E079E080E090E033DAAE01425F5F4FBE
S1131AB024E030E060E071E080E090E029DAAE01FB
S1131AC0465F5F4F24E030E060E075E080E090E046
S1131AD01FDAAE014A5F5F4F24E030E060E07FE050
S1131AE080E090E015DAEDE0F4E080818A8B81817A
S1131AF08B8B82818C8B83818D8B80910C048E8B5C
S1131B00DF91CF910895FC017383628351834083F5
S1131B100895FC0180819181A281B3818F3F2FEFD1
S1131B209207A105B10539F0BC01CD016F5F7F4F6C
S1131B308F4F9F4F04C061E070E080E090E06083CD
S1131B4071838283938308952F923F924F925F9281
S1131B506F927F928F929F92AF92BF92CF92DF92B9
S1131B60EF92FF920F931F93CF93DF93EC012A011F
S1131B703B011901812C912C54011AC0EFA5F8A93D
S1131B80C680D780C1010E94851E7B018C018C8593
S1131B909D85BC01680D791DA30192018FA598A9AB
S1131BA0F6011995992374F0860E971EA81EB91E86
S1131BB084149504A604B7042CF4C1010E941D1ECC
S1131BC08823E1F284149504A604B70461F44889D7
S1131BD059896A897B89CE01C1960E945B1E60E0A7
S1131BE070E0CB0103C06FEF7FEFCB01DF91CF91AA
S1131BF01F910F91FF90EF90DF90CF90BF90AF9027
S1131C009F908F907F906F905F904F903F902F9018
S1131C1008954F925F926F927F92AF92BF92CF924C
S1131C20DF92EF92FF920F931F93DC01D0967C9387
S1131C306E939F97412C512C32010EC0F201EE0F8E
S1131C40FF1FEE0FFF1FEA0FFB1F128E118E8FEF87
S1131C50481A580A680A780A85E04816510461044B
S1131C60710464F314962D933D934D935C931797ED
S1131C701D961C930E931C971996FC92EE9218973E
S1131C801F96DC92CE921E971B96BC92AE921A9728
S1131C9055961D921D921D921C92589754961C9213
S1131CA054979E961C921E929D97CD01C1960E94B8
S1131CB0A41E1F910F91FF90EF90DF90CF90BF90E3
S1131CC0AF907F906F905F904F9008952F923F92C6
S1131CD04F925F926F927F928F929F92AF92BF9238
S1131CE0CF92DF92EF92FF920F931F93CF93DF93E4
S1131CF000D01F921F92CDB7DEB71C016B012A835F
S1131D003B834C835D83DB011D921D921D921C92CB
S1131D101397412C512C3201812C912C5401839422
S1131D20BFEF4B1A5B0A6B0A7B0AE5E04E165104BF
S1131D30610471040CF051C0D1019F968D919C9166
S1131D40D097DC011496ED91FC911597EA80FB8005
S1131D500C811D8121E030E040E050E0BE016F5F66
S1131D607F4F19956130710581059105B1F5F980B1
S1131D70AF2DAF77B0E0A50194010E942233F601A4
S1131D800081118122813381DC01CB01800F911FFD
S1131D90A21FB31F80839183A283B383880C991CF1
S1131DA0AA1CBB1C880C991CAA1CBB1C880C991C63
S1131DB0AA1CBB1C880C991CAA1CBB1C880C991C53
S1131DC0AA1CBB1C880C991CAA1CBB1C880C991C43
S1131DD0AA1CBB1CFF200CF4A3CFC301B2010F90BB
S1131DE00F900F900F900F90DF91CF911F910F9153
S1131DF0FF90EF90DF90CF90BF90AF909F908F9027
S1131E007F906F905F904F903F902F9008954F92E6
S1131E105F926F927F928F929F92AF92BF92CF9276
S1131E20DF92EF92FF920F931F93CF93DF9300D033
S1131E301F92CDB7DEB76C015B0119821A821B8237
S1131E401C82DC019F96ED91FC91D0978480958053
S1131E50CB010E94851E7B018C01F6016685778586
S1131E6021E030E040E050E087A590A9F401199505
S1131E70613071058105910509F055C0C5010E94C5
S1131E80851E9B01AC01BE016F5F7F4FC6011EDF43
S1131E90D6011E968D919C911F9749815A816B8121
S1131EA07C8101960E945B182B013C01BFEF4B1A09
S1131EB05B0A6B0A7B0A49815A816B817C81141607
S1131EC01506160617061CF5D6019F96ED91FC9192
S1131ED0D09784809580C5010E94851E7B018C016A
S1131EE0F6018685978529813A814B815C81BC0105
S1131EF0640D751D87A590A9F401199509811A81AE
S1131F002B813C81601771078207930781F4D60106
S1131F101E96ED91FC911F97608162956F7070E041
S1131F2080E090E007C06FEF7FEFCB0103C06FEF5D
S1131F307FEFCB010F900F900F900F90DF91CF9117
S1131F401F910F91FF90EF90DF90CF90BF90AF90D3
S1131F509F908F907F906F905F904F900895CF9354
S1131F60DF93EC01DB011696ED91FC911797129625
S1131F704D915D916D917C9115974E0F5F1F20C01F
S1131F8080818F3211F49F3209F59B3221F0933214
S1131F9011F098131BC09B3269F4DF01119603C042
S1131FA03196DF011196A417B50740F49C919F3236
S1131FB0B9F704C0933211F4FA013197219631969E
S1131FC09881992319F0E417F507D0F2E417F5077F
S1131FD021F4992321F080E003C080E001C081E076
S1131FE0DF91CF9108954F925F926F927F928F927B
S1131FF09F92AF92BF92CF92DF92EF92FF920F9394
S11320001F93CF93DF9300D01F92CDB7DEB78C011F
S11320107B016A01412C512C320188248A94982C2A
S1132020540145C0F201EE0FFF1FEE0FFF1FE00F3A
S1132030F11F618D728D61157105A1F1C7010E94B7
S1132040A91A672B682B692B69F4F201EE0FFF1FA5
S1132050EE0FFF1FE00FF11FB701818D928D7FDF1F
S1132060882301F1F201EE0FFF1FEE0FFF1FE00FB7
S1132070F11F838D948D892BA9F0A601B701CE01A0
S1132080019641DDF201EE0FFF1FEE0FFF1FE00F7F
S1132090F11F038CF48DE02DCE0101961995812C4E
S11320A0912C54018FEF481A580A680A780AA5E05F
S11320B04A165104610471040CF4B4CFBFEF8B16BB
S11320C09B06AB06BB06A9F4F80185A596A5892B4A
S11320D081F0A601B701CE01019615DDD8019D96C8
S11320E0ED91FC919E97CE0101961995812C912C2E
S11320F05401C501B4010F900F900F900F90DF9120
S1132100CF911F910F91FF90EF90DF90CF90BF90F0
S1132110AF909F908F907F906F905F904F900895B5
S11321200F931F93CF93DF93CDB7DEB728970FB6E6
S1132130F894DEBF0FBECDBFFC014089518962898E
S11321407389452B462B472BB9F18C01C1960E940C
S11321501D1E8823A9F1F8018489811135C0CE019F
S113216001960E94A41E48EE53E060E070E0CE01A8
S113217001960E943E1EF8014085518560E070E0A2
S1132180848595858CD6161617061806190684F4C8
S11321909E012F5F3F4FAB01BC01C801D5DC611527
S11321A071058105910599F421E0F801248B0FC094
S11321B06FEF7FEFCB010BC060E070E0CB0107C095
S11321C06FEF7FEFCB0103C06FEF7FEFCB0128965A
S11321D00FB6F894DEBF0FBECDBFDF91CF911F9134
S11321E00F9108952F923F924F925F926F927F9238
S11321F08F929F92AF92BF92CF92DF92EF92FF9213
S11322000F931F93CF93DF93CDB7DEB762970FB6CB
S1132210F894DEBF0FBECDBF4C011B01F8DD2B01CE
S11322203C016530710509F47FC06D30710509F416
S1132230C3C06330710509F0C5C0F401828593857C
S1132240A684B7841F921F929F938F93CE01089602
S11322506C01FE0136967F018E01065F1F4F9E01C1
S11322602C5F3F4FAE014E5F5F4FBE016F5F7F4FEC
S1132270059718D60F900F900F900F90613071054D
S11322808105910509F048C0AE014F5F5F4FB80169
S1132290C401A9DE8981882309F442C0813081F414
S11322A0EC80FD80F4014085518560E070E000E041
S11322B024E0848595850E94BD1BAB01BC0115C03B
S11322C0823081F4EC80FD80F4014085518560E02A
S11322D070E000E025E0848595850E94BD1BAB017C
S11322E0BC0103C040E050E0BA01141615061606FE
S11322F0170634F49101C40127DC6B017C0104C08E
S1132300CC24CA94DC2C7601FFEFCF16DF06EF064F
S1132310FF0609F05AC05BC0C12CD12C760157C00E
S1132320C12CD12C760151C0F401E284F38400E085
S113233010E026853785AE014F5F5F4FBE016E5EAC
S11323407F4FCE010A964BD6613071058105910508
S1132350F1F4E980FA80F4014085518560E070E091
S113236000E026E0848595850E94BD1B161617069D
S1132370180619068CF49101AB01BC01C401E4DB1D
S11323806B017C01672B682B692B59F40EC0CC249C
S1132390CA94DC2C760109C0CC24CA94DC2C7601C6
S11323A004C0CC24CA94DC2C7601FFEFCF16DF06E0
S11323B0EF06FF0651F40BC0F401148AC12CD12C92
S11323C0760103C0C12CD12C7601C401A9DEC1144D
S11323D0D104E104F10421F473016201EE24FF2429
S11323E0C701B60162960FB6F894DEBF0FBECDBF2B
S11323F0DF91CF911F910F91FF90EF90DF90CF90DD
S1132400BF90AF909F908F907F906F905F904F9010
S11324103F902F900895CF92DF92EF92FF920F9307
S11324201F93CF93DF93CDB7DEB728970FB6F894F9
S1132430DEBF0FBECDBF8C016A017B01CE010196C8
S11324400E94A41EB701A601CE0101960E943E1E61
S11324500AC0BE016F5F7F4FC801C4DE6F3F7F4F6C
S11324608F4F9F4F51F0CE0101960E941D1E88236D
S113247081F360E070E0CB0103C06FEF7FEFCB012D
S113248028960FB6F894DEBF0FBECDBFDF91CF9173
S11324901F910F91FF90EF90DF90CF9008958F924E
S11324A09F92AF92BF92CF92DF92EF92FF920F93DF
S11324B01F93CF93DF938C014A015B01E901CC2484
S11324C0CA94DC2C7601CE010E941D1E81110AC023
S11324D0BE01C80187DE6B017C01681579058A0598
S11324E09B0589F7C701B601DF91CF911F910F9129
S11324F0FF90EF90DF90CF90BF90AF909F908F9020
S11325000895EF92FF920F931F93CF93DF93CDB76C
S1132510DEB7C554D1090FB6F894DEBF0FBECDBFE8
S11325207C018B018BE3ECE4F2E0DE01199601906F
S11325300D928A95E1F7CE0101960E94A41EF7013F
S11325404481558166817781CE0101960E943E1EA9
S1132550F70185899689A789B08D892B8A2B8B2BC6
S113256009F063C00115110519F48E01075F1F4FAF
S1132570F8014785508960E070E0F701408B518B8A
S1132580628B738BC701C1960E945B1EF701408565
S1132590518560E070E098018485958519D3AB017D
S11325A0BC0114161506160617060CF042C09E014F
S11325B02F5F3F4FC701C8DA611571058105910589
S11325C009F03EC09E012F5F3F4F42E050E060E0C3
S11325D070E0C70164DF623071058105910569F51A
S11325E08FEF26968FAF269725961FAE2597F70176
S11325F00285138520E030E046855785BE016B5B7C
S11326007F4FCE018C5B9F4FD1D361307105810523
S1132610910539F426966FAD269770E080E090E03E
S11326200FC06FEF7FEFCB010BC06FEF7FEFCB01DC
S113263007C06FEF7FEFCB0103C06FEF7FEFCB01DC
S1132640611571058105910549F401E010E020E070
S113265030E0F701058B168B278B308FCB5BDF4F78
S11326600FB6F894DEBF0FBECDBFDF91CF911F919F
S11326700F91FF90EF9008952F923F924F925F92A7
S11326806F927F928F929F92AF92BF92CF92DF927E
S1132690EF92FF920F931F93CF93DF93CDB7DEB7E3
S11326A06F970FB6F894DEBF0FBECDBF3C017D8F90
S11326B06C8F4B8F3F8F2E8F1B861C861D861E862C
S11326C0188A1F867A876987CE0101960E94A41E04
S11326D0F3014481558166817781CE0101960E9480
S11326E03E1EF30185899689A789B08D892B8A2B93
S11326F08B2B09F49AC0C3010CDA8B019C01F30102
S11327004085518560E070E0CE014B964C01FE019E
S113271039965F01C12CD12C7601C39420E0F301DA
S1132720848595850E945B1CAB01BC0114161506BB
S1132730160617060CF07EC09E012F5F3F4FC301A3
S113274003DA1B012C01672B682B692B09F07BC072
S11327509E012F5F3F4F49E050E060E070E0C3010D
S11327609EDE693071058105910509F068C01D8AF6
S11327701E8A1F8A188E8FEF9FEFDC01898B9A8B3C
S1132780AB8BBC8BF301A284B384C12CD12CE68423
S1132790F7848E010F5E1F4F9E012B5E3F4F41E079
S11327A050E060E070E0CE0149960E94F91C61306F
S11327B071058105910529F449895A896B897C89B8
S11327C002C0B201A101403851056105710511F53E
S11327D029C0FC01EE0FFF1FEE0FFF1FE60DF71DD2
S11327E0218D328D232B91F4880F991F880F991F07
S11327F0F301E80FF91F8C8D9D8D928F818F8E8D43
S11328009F8D948F838FB201A1010CC00196A11DED
S1132810B11D03C080E090E0DC0185309105A10585
S1132820B105BCF21A012B010EC022242A94322CC9
S1132830210109C022242A94322C210104C022241B
S11328402A94322C2101C201B1016F960FB6F8947B
S1132850DEBF0FBECDBFDF91CF911F910F91FF90CF
S1132860EF90DF90CF90BF90AF909F908F907F902C
S11328706F905F904F903F902F9008954F925F928A
S11328806F927F928F929F92AF92BF92CF92DF927C
S1132890EF92FF920F931F93CF93DF93CDB7DEB7E1
S11328A064970FB6F894DEBF0FBECDBF4C015A013A
S11328B01B861C861D861E86188A1F867A87698752
S11328C0CE0101960E94A41EF401448155816681C3
S11328D07781CE0101960E943E1EF4018589968976
S11328E0A789B08D892B8A2B8B2B09F4A6C0F501FF
S11328F080818150823028F4C4010BD9F50174839E
S11329006383F5014780508425813681C380D48058
S1132910E1800081F4014085518560E070E08485A8
S113292095851F921F925F924F923F932F932DB7DD
S11329303EB7285031090FB6F8943EBF0FBE2DBFE5
S1132940ADB7BEB7119628E0FE01399601900D92FD
S11329502A95E1F720E07FD6AB01BC010FB6F894CD
S1132960DEBF0FBECDBF14161506160617060CF0F3
S113297069C09E012F5F3F4FC401E6D82B013C0183
S1132980672B682B692B09F06BC0F50180818130BE
S113299051F59E012F5F3F4F44E050E060E070E04E
S11329A0C4017DDD643071058105910509F04FC0D6
S11329B0F401E284F38400E010E026853785AE015B
S11329C04F5E5F4FBE016C5E7F4FCE01439607D3CF
S11329D0613071058105910509F442C044244A948B
S11329E0542C32013DC08230D9F59E012F5F3F4FF8
S11329F047E050E060E070E0C40151DD67307105EC
S1132A008105910549F5F401E284F38400E010E0C6
S1132A1026853785AE014F5E5F4FBE016C5E7F4FEA
S1132A20CE014396DCD26130710581059105C1F078
S1132A3044244A94542C320113C044244A94542C00
S1132A4032010EC044244A94542C320109C0442457
S1132A504A94542C320104C044244A94542C320124
S1132A60C301B20164960FB6F894DEBF0FBECDBFAA
S1132A70DF91CF911F910F91FF90EF90DF90CF9056
S1132A80BF90AF909F908F907F906F905F904F908A
S1132A9008958F929F92AF92BF92CF92DF92EF925E
S1132AA0FF92CF93DF93EC018E81833031F0843039
S1132AB061F0C12CD12C76010FC00F2EFCE0CF2E7B
S1132AC0D12CE12CF12CF02D07C00F2EFAE0CF2EE3
S1132AD0D12CE12CF12CF02D2F81388549855A8594
S1132AE06B857C858D859E8506D5DC01CB010296A0
S1132AF0A11DB11DC80ED91EEA1EFB1E8A8988239A
S1132B0031F1298D3A8D4B8D5C8D6D8D7E8D8F8D40
S1132B1098A1F1D44B015C0122E0820E911CA11C0E
S1132B20B11C29A13AA14BA15CA16DA17EA18FA1E9
S1132B3098A5E1D4DC01CB01880D991DAA1DBB1D0C
S1132B400296A11DB11DC80ED91EEA1EFB1E8BA53F
S1132B509CA5892B21F489A99AA9892B91F02BA5ED
S1132B603CA54DA55EA56FA578A989A99AA9C3D44A
S1132B70DC01CB010296A11DB11DC80ED91EEA1EAF
S1132B80FB1E8BA99CA9892B21F489AD9AAD892BB5
S1132B9091F02BA93CA94DA95EA96FA978AD89AD87
S1132BA09AADA9D4DC01CB010296A11DB11DC80EBA
S1132BB0D91EEA1EFB1EC701B601DF91CF91FF901B
S1132BC0EF90DF90CF90BF90AF909F908F9008953B
S1132BD04F925F926F927F92AF92BF92DF92EF9289
S1132BE0FF920F931F93CF93DF9300D000D0CDB704
S1132BF0DEB75C012A013B0179019A838983C9010B
S1132C0048DF6B837C838D839E8333D346165706BC
S1132C10680679060CF4B2C060E1CE0101967AD35D
S1132C204B815C816D817E8189819A8144D2298125
S1132C303A81620F731F7A836983F7018681843036
S1132C4051F46CE073E0CE0101969CD364E0CE01B4
S1132C50019660D309C061E173E0CE01019692D37D
S1132C6063E0CE01019656D3D12CF701818980FB14
S1132C70D1F8928981E0911101C080E080FBD2F803
S1132C80D2FE0DC0F70182A58370880F880F880FCC
S1132C909D2D977ED92ED82A81A580FBD5F8F701E2
S1132CA083A594A5892B21F481A992A9892B11F0DC
S1132CB06894D7F8F70183A994A9892B21F481ADED
S1132CC092AD892B11F06894D6F86D2DCE01019642
S1132CD021D3F7014785508960E070E0CE01019669
S1132CE023D3F701078110852185328543855485D7
S1132CF065857685CE0101966DD3F7018289882397
S1132D00B9F0018D128D238D348D458D568D678DCF
S1132D1070A1CE0101965ED3F70101A112A123A1F6
S1132D2034A145A156A167A170A5CE01019652D345
S1132D307D2CDD2064F4F70103A514A525A536A593
S1132D4047A550A961A972A9CE01019643D376FE85
S1132D500CC0F70103A914A925A936A947A950ADA8
S1132D6061AD72ADCE01019635D369817A816A195C
S1132D707B09072E000C880B990B04C06EEF7FEFC4
S1132D808FEF9FEF26960FB6F894DEBF0FBECDBF30
S1132D90DF91CF911F910F91FF90EF90DF90BF9043
S1132DA0AF907F906F905F904F900895EF92FF9255
S1132DB00F931F93CF93DF9300D000D0CDB7DEB72E
S1132DC07C018B015A834983CE0101969BD2807F7B
S1132DD0803219F5BE016D5F7F4F89819A8177D268
S1132DE029813A81260F371F3A8329832B813C811D
S1132DF022303105ACF0CE01019684D287FB8827BE
S1132E0080F9F7018083CE0101967CD2F80180839A
S1132E1061E070E080E090E003C060E070E0CB012E
S1132E2026960FB6F894DEBF0FBECDBFDF91CF91CB
S1132E301F910F91FF90EF9008950F931F93CF93DD
S1132E40DF931F921F92CDB7DEB79A8389834230F6
S1132E50510561057105C4F08C01622F6295607F94
S1132E60CE01019657D240E050E0BA0189819A819F
S1132E7022D129813A81620F731F601B710B072EC7
S1132E80000C880B990B04C06EEF7FEF8FEF9FEF60
S1132E900F900F90DF91CF911F910F9108952CE027
S1132EA0CCCF08952F923F924F925F926F927F9270
S1132EB08F929F92AF92BF92CF92DF92EF92FF9246
S1132EC00F931F93CF93DF93CDB7DEB728970FB639
S1132ED0F894DEBF0FBECDBF3C011B012A01388729
S1132EE02F83BA82A9821B821C821D821E82CE017C
S1132EF0019608D2982F907F903309F052C083FB3B
S1132F00992790F9F3019083982F96959370F10186
S1132F1090838170F2018083BE016D5F7F4F898150
S1132F209A81D5D14B015C0169807A80660E771E47
S1132F307A8269828B819C81680E791EA301BE010D
S1132F406F5F7F4FC80199D2672B682B692B61F1A2
S1132F5089819A819301281B390BC901992324F192
S1132F60F1018081882339F0CE010196B8D1EF8137
S1132F70F8857183608329813A81C301821B930B95
S1132F80092E000CAA0BBB0BF60180839183A2834C
S1132F90B383F70131832083812C912C54018394D2
S1132FA003C0812C912C5401C501B40128960FB69D
S1132FB0F894DEBF0FBECDBFDF91CF911F910F916B
S1132FC0FF90EF90DF90CF90BF90AF909F908F9045
S1132FD07F906F905F904F903F902F900895CF9285
S1132FE0DF92EF92FF920F931F93CF93DF9300D062
S1132FF000D0CDB7DEB77C016B018A013A83298307
S1133000CE0101967FD183FB992790F9F601908335
S113301082958F70F7018083BE016D5F7F4F898138
S11330209A8155D129813A81260F371F3A83298302
S11330302B813C812230310554F0CE0101964FD1D1
S1133040F8017183608361E070E080E090E026968F
S11330500FB6F894DEBF0FBECDBFDF91CF911F91A5
S11330600F91FF90EF90DF90CF9008950F931F93EF
S1133070CF93DF93EC0100E010E0980110C0E091E1
S11330801104F0911204DF011196B0931204A0937D
S11330901104908198830F5F1F4F2F4F3F4F0417E8
S11330A01507260737075CF3CB01BA01DF91CF91EF
S11330B01F910F9108958F929F92AF92BF92CF92DA
S11330C0DF92EF92FF920F931F93C12CD12C7601C4
S11330D002C0750164018A019B010F771127222721
S11330E03078332364F4015011092109310900684F
S11330F01F6F2F6F3F6F0F5F1F4F2F4F3F4F4A01BF
S11331005B0177232CF42FE7820E911CA11CB11CC8
S1133110B501A401689416F8759567955795479578
S11331201694D1F714161506160617060CF4006843
S1133130460157012FEF821A920AA20AB20AFC0131
S1133140EC0DFD1D008314161506160617060CF269
S1133150C501B4011F910F91FF90EF90DF90CF90C4
S1133160BF90AF909F908F9008954F925F926F920F
S11331707F929F92AF92BF92CF92DF92EF92FF9293
S11331800F931F93CF93DF931F92CDB7DEB75C01EC
S11331908B01DB011D921D921D921C921397412CF1
S11331A0512C3201C12CD12C7601C394BFEF4B1AA0
S11331B05B0A6B0A7B0AE5E04E1651046104710454
S11331C00CF044C041E050E060E070E0CE010196B4
S11331D0F50119956130710581059105B9F599805D
S11331E0A92DAF77B0E0A70196010E942233D80140
S11331F02D913D914D915C91DC01CB01820F931F88
S1133200A41FB51FF80180839183A283B383CC0CE0
S1133210DD1CEE1CFF1CCC0CDD1CEE1CFF1CCC0CBE
S1133220DD1CEE1CFF1CCC0CDD1CEE1CFF1CCC0CAE
S1133230DD1CEE1CFF1CCC0CDD1CEE1CFF1CCC0C9E
S1133240DD1CEE1CFF1C99200CF4B0CFC301B201AD
S11332500F90DF91CF911F910F91FF90EF90DF902E
S1133260CF90BF90AF909F907F906F905F904F9062
S113327008950F931F938B019C010F5F1F4F2F4FD6
S11332803F4F00381105210531052CF46E5F7F4F47
S11332908F4F9F4F19C0011540E4140721053105D4
S11332A02CF46D5F7F4F8F4F9F4F0EC00F3F1F4F0A
S11332B02F4131052CF46C5F7F4F8F4F9F4F04C01B
S11332C06B5F7F4F8F4F9F4F1F910F910895909386
S11332D012048093110486E398E147CF0895DC013A
S11332E0ED91FC911197608170E0762F66278181C2
S11332F0680F711D072E000C880B990B3296ED9305
S1133300FC930895DC01ED91FC9111978191ED936B
S1133310FC930895FC01A081B1816C93808191811B
S11333200196918380830895CF93DF93FC01C0813C
S1133330D181DB01CA01772324F481509F4FAF4F21
S1133340BF4F9883A081B181CD0101969183808381
S113335055276627707877235CF441505109610939
S113336071095F6F6F6F7F6F4F5F5F4F6F4F7F4F5D
S113337011964C9380819181019691838083DF9192
S1133380CF910895EF92FF920F931F93CF93DF9302
S11333908C017B01EB0109900020E9F72197C61B02
S11333A0D70BAE0160E070E0BFDFAE01B701F801FA
S11333B0808191810E947334F80180819181C80FCA
S11333C0D91FD183C083DF91CF911F910F91FF90BB
S11333D0EF900895AF92BF92CF92DF92EF92FF9257
S11333E00F931F93CF93DF93CDB7DEB728970FB614
S11333F0F894DEBF0FBECDBF5C0109831A832B8313
S11334003C834D835E836F837887CB80DC80ED8043
S1133410FE801C141D041E041F049CF4B701A601A5
S113342083DF6F817885A601F501808191810E94F7
S11334307334F50180819181C80ED91ED182C08276
S11334400BC069817A816115710511F09BDF04C09D
S113345040E050E0BA0168DF28960FB6F894DEBF6A
S11334600FBECDBFDF91CF911F910F91FF90EF90D1
S1133470DF90CF90BF90AF900895EF92FF920F939B
S11334801F93CF93DF938C01EB017A01888199819B
S11334909A01281B390B22303105E4F0CB011FDFE0
S11334A0F801628373838483958328813981A90118
S11334B0460F571FE416F50688F0378326832881C4
S11334C03981620F731F7983688361E070E080E063
S11334D090E007C060E070E0CB0103C060E070E002
S11334E0CB01F80111821082DF91CF911F910F91CE
S11334F0FF90EF900895CF93DF93CDB7DEB7289771
S11335000FB6F894DEBF0FBECDBF29833A834B8339
S11335105C836D837E838F839887E981FA813097FA
S113352049F0DF010D900020E9F71197BD016E1BF2
S11335307F0B02C06B817C81072E000C880B990BDA
S113354028960FB6F894DEBF0FBECDBFDF91CF91A2
S113355008950F931F93CF93DF93EB01FC01A08198
S1133560B181109759F0FD0101900020E9F73197DE
S1133570AF014A1B5B0B60E070E007C0FC01A68151
S1133580B7814281538164817581FE0101900020DD
S1133590E9F731978F010C1B1D0B20E030E0401739
S11335A051076207730749F4BE01CD010E947C34C0
S11335B0892B31F060E070E005C060E070E002C08B
S11335C061E070E0072E000C880B990BDF91CF911E
S11335D01F910F910895BF92CF92DF92EF92FF92C5
S11335E00F931F93CF93DF93CDB7DEB728970FB612
S11335F0F894DEBF0FBECDBFB82EB22FA32FF42F89
S1133600E52F862F972F202F312F4B2F5A2F6F2FD7
S11336107E2F71DFDC01CB010296A11DB11DBC011F
S1133620CD016C0D7D1D8E1D9F1DBB2021F06E5F95
S11336307F4F8F4F9F4F28960FB6F894DEBF0FBE73
S1133640CDBFDF91CF911F910F91FF90EF90DF904D
S1133650CF90BF9008953F924F925F926F927F9266
S11336608F929F92AF92BF92CF92DF92EF92FF928E
S11336700F931F93CF93DF9300D01F92CDB7DEB784
S11336804C012A013B01322EB02EAE2CDC82CB82BF
S11336909A838983CBA0DCA0EDA0FEA0098D1A8DAE
S11336A02B8D3C8D4D8D5E8D6F8D78A18B2D93DF91
S11336B06B017C01DEDD46165706680679060CF4BC
S11336C042C060E330FA63F98B2D8370880F697F01
S11336D0682BA0FA60F9CE0101961CDEB701A601A1
S11336E089819A81E8DC29813A81620F731F7A8388
S11336F06983098D1A8D2B8D3C8D4D8D5E8D6F8D5B
S113370078A1CE01019666DEBB2041F08B819C81BD
S1133710AC0160E070E0CE01019606DE4BA15CA135
S113372069A17AA189819A810E94733469817A811D
S11337308BA19CA1680F791F68197909072E000CC9
S1133740880B990B04C06EEF7FEF8FEF9FEF0F9004
S11337500F900F900F90DF91CF911F910F91FF90D9
S1133760EF90DF90CF90BF90AF909F908F907F901D
S11337706F905F904F903F900895EF92FF920F9358
S11337801F93CF93DF931F921F92CDB7DEB7FC0137
S1133790FA83E98344305105610571057CF1822F78
S11337A08295807F00FB83F991E0263009F090E058
S11337B08F01990F682F697F862F892B682FCE017F
S11337C00196A8DD42E050E060E070E089819A81D2
S11337D072DC29813A81620F731F7A836983A7019E
S11337E060E070E0CE0101969FDD69817A81601B03
S11337F0710B072E000C880B990B04C06EEF7FEF42
S11338008FEF9FEF0F900F90DF91CF911F910F914A
S1133810FF90EF9008954F925F926F927F928F92F4
S11338209F92AF92BF92CF92DF92EF92FF92CF938B
S1133830DF932B013C01EA01C12CD12C7601812CB0
S1133840912C5401689481F820C0F601EE0FFF1FFB
S1133850EE0FFF1FEE0FFF1FEC0FFD1F20813181C4
S113386042815381648175818681978144DEDC01C4
S1133870CB010396A11DB11D880E991EAA1EBB1E65
S11338808FEFC81AD80AE80AF80AC414D504E60463
S1133890F704DCF2C501B401DF91CF91FF90EF9002
S11338A0DF90CF90BF90AF909F908F907F906F905C
S11338B05F904F9008952F923F924F925F926F9234
S11338C07F928F929F92AF92BF92CF92DF92EF92AC
S11338D0FF920F931F93CF93DF93CDB7DEB7279754
S11338E00FB6F894DEBF0FBECDBF1C012A013B0109
S11338F02F839A838983A501C701B6018CDF6B836B
S11339007C838D839E83B5DC46165706680679064C
S11339100CF452C060E88F8180FB63F9697F6260B8
S1133920CE010196F7DC4B815C816D817E818981BA
S11339309A81C1DB29813A81620F731F7A8369837B
S1133940A80160E070E0CE010196EEDC412C512C20
S1133950320124C0F201EE0FFF1FEE0FFF1FEE0F26
S1133960FF1FEA0DFB1D00811181228133814481F7
S1133970558166817781CE0101962CDDF201EE0F2F
S1133980FF1FEE0FFF1FE80DF91D6081CE010196A8
S1133990C1DC8FEF481A580A680A780A4C145D048F
S11339A06E047F04BCF269817A8162197309072E5F
S11339B0000C880B990B04C06EEF7FEF8FEF9FEF25
S11339C027960FB6F894DEBF0FBECDBFDF91CF911F
S11339D01F910F91FF90EF90DF90CF90BF90AF9029
S11339E09F908F907F906F905F904F903F902F901B
S11339F008954F925F926F927F928F929F92AF92AF
S1133A00BF92CF92DF92EF92FF920F931F93CF93C7
S1133A10DF9300D000D0CDB7DEB74C012A013B01C3
S1133A206901FA82E982CE0101966CDC807F8039DB
S1133A3009F053C0BE016D5F7F4F89819A8147DCD5
S1133A4029813A81260F371F3A832983AB80BC80B2
S1133A50A20EB31EA501421B530B423051050CF4B8
S1133A6043C0CE0101963BDCF40171836083F6010F
S1133A70108211821282138226C0F6018081918104
S1133A80A281B381481659066A067B0654F1AC013B
S1133A90BD014F5F5F4F6F4F7F4F40835183628300
S1133AA07383880F991F880F991F7801E80EF91EF8
S1133AB0CE01019627DC90E0A0E0B0E0F70180831E
S1133AC09183A283B38389819A818A159B05A8F285
S1133AD061E070E080E090E007C060E070E0CB015E
S1133AE003C06FEF7FEFCB0126960FB6F894DEBFCD
S1133AF00FBECDBFDF91CF911F910F91FF90EF903B
S1133B00DF90CF90BF90AF909F908F907F906F90F9
S1133B105F904F900895CF92DF92EF92FF920F93B0
S1133B201F93CF93DF93EC018B0169017A018881A4
S1133B309981AA81BB81880F991FAA1FBB1F880F77
S1133B40991FAA1FBB1F0196A11DB11D880F991FA4
S1133B50AA1FBB1F880F991FAA1FBB1F880F991F7D
S1133B60AA1FBB1FBC01CD017D5F8F4F9F4F0E94D9
S1133B70AF06873159F488810E94E908892B51F0F6
S1133B80A601B80188810E94F00507C060E070E0DA
S1133B90CB0103C060E070E0CB01DF91CF911F91B6
S1133BA00F91FF90EF90DF90CF900895CF92DF9226
S1133BB0EF92FF920F931F93CF93DF93EC018B014E
S1133BC069017A0188819981AA81BB81880F991F33
S1133BD0AA1FBB1F880F991FAA1FBB1F0196A11DF7
S1133BE0B11D880F991FAA1FBB1F880F991FAA1FF9
S1133BF0BB1F880F991FAA1FBB1FBC01CD017D5F8E
S1133C008F4F9F4F0E94AF06873131F4A601B80150
S1133C1088810E94DD0403C060E070E0CB01DF9185
S1133C20CF911F910F91FF90EF90DF90CF90089567
S1133C30FC0180810C9469040895CF92DF92EF9285
S1133C40FF92FC01C480D580E680F780CCD2092E97
S1133C50000CAA0BBB0BA7019601281B390B4A0BBE
S1133C605B0BDA01C9018827B7FD83959927AA2739
S1133C70BB27FF90EF90DF90CF900895CF92DF9213
S1133C80EF92FF92CF93DF93EC016A017B01ABD2F9
S1133C90092E000CAA0BBB0BC80ED91EEA1EFB1E74
S1133CA0CC82DD82EE82FF82DF91CF91FF90EF9094
S1133CB0DF90CF900895CF92DF92EF92FF920F930F
S1133CC01F93CF93DF93EC016A017B018CD28C01AB
S1133CD0A8EEB3E0A70196010E942233012E000C46
S1133CE0220B330BDC01CB01800F911FA21FB31FEA
S1133CF08C839D83AE83BF83DF91CF911F910F91FE
S1133D00FF90EF90DF90CF900895CF92DF92EF92E3
S1133D10FF92FC01C480D580E680F78064D2092E2E
S1133D20000CAA0BBB0BA7019601281B390B4A0BED
S1133D305B0BCA01B9011AF460E070E0CB01FF909B
S1133D40EF90DF90CF900895FC01148215821682C3
S1133D5017820895FC018BE89DE19583848386EDA9
S1133D609DE19783868388E19EE19187808708950A
S1133D70EF92FF920F931F93CF93DF93EC018B018C
S1133D807A0120E049E350E361E088810E949902CE
S1133D90A701B80188810E94960360E070E0CB011E
S1133DA0DF91CF911F910F91FF90EF9008951092A2
S1133DB08104089508950F931F93CF938C01C0E05D
S1133DC00AC0D8011796ED91FC911897EC0FF11DDC
S1133DD0808115D5CF5FF8018185C81790F381E004
S1133DE0CF911F910F91089520918104211120C03A
S1133DF02CE6EEE1F2E0A4E1B4E001900D922A9504
S1133E00E1F7E2E8F4E09683858382E087838087A4
S1133E10818784E194E09387828784E0848787EDB7
S1133E209EE196878587CF01D1D681E08093810476
S1133E300895DC0190E00EC0292F30E01796ED9133
S1133E40FC911897E20FF31F8081F901E951FB4FB0
S1133E5080839F5F19968C911997981768F38D91B9
S1133E609C91C2DF81E08093E60408950F931F9331
S1133E70CF93DF938C01C0E0D0E010C0E7D48091F1
S1133E8013048D3619F481E090E0AEDF80911304C1
S1133E908D3618F48F5F809313042196C017D107D1
S1133EA068F383E994E00E947E2E83E994E00E9403
S1133EB0C82EDF91CF911F910F91089580E090E07B
S1133EC0BDD586E990E0C1D58FE00E94492D81E0FF
S1133ED00E94452D69E17FE181E0BED56BED7EE175
S1133EE082E0BAD5E3E9F4E084E190E0A0E0B0E058
S1133EF086839783A087B18712868AED9EE1948793
S1133F00838708958091A004811104C0D7DF81E0E4
S1133F108093A0040895CF93DF931F921F92CDB78F
S1133F20DEB78091F91C9091FA1C009711F09C0166
S1133F3002C024E03DE1CE010196821B930B0F9059
S1133F400F90DF91CF9108958BB18F7E8BB9089537
S1133F508BB180618BB908951EBC0DB407FEFDCFF3
S1133F608EB508958EBD0DB407FEFDCF0895FC01F6
S1133F7020E030E009C01EBC0DB407FEFDCF8EB5B5
S1133F8080832F5F3F4F319626173707A0F308959C
S1133F90FC0120E030E00AC0CF01019640814EBD13
S1133FA00DB407FEFDCF2F5F3F4FFC0126173707E7
S1133FB098F30895CF92DF92EF92FF920F931F939D
S1133FC0CF93DF93CDB7DEB7C05CD1090FB6F894B9
S1133FD0DEBF0FBECDBF20918702309188023A83A5
S1133FE02983FE0133964EE3DF011D924A95E9F7DA
S1133FF08E010F5B1F4FF8013183208332962EE729
S1134000DF011D922A95E9F7FC01C080D18002806E
S1134010F381E02D4281538164817581868197818A
S1134020BC01CE0101967C010E948A34D60115960A
S11340306D917C91169717964D915C911897C801D4
S11340400E948A341F930F93FF92EF928BED93E0BB
S11340509F938F930E94F3340F900F900F900F90C3
S11340600F900F90C054DF4F0FB6F894DEBF0FBE11
S1134070CDBFDF91CF911F910F91FF90EF90DF9013
S1134080CF900895AF92BF92CF92DF92EF92FF92BA
S11340900F931F93CF93DF93CDB7DEB729970FB656
S11340A0F894DEBF0FBECDBF8C017B016A015901BC
S11340B0A8958091E2049091E304A091E404B09166
S11340C0E5040196A11DB11D8093E2049093E304DD
S11340D0A093E404B093E504BF93AF939F938F93AD
S11340E087EC93E09F938F930E94F334198280911D
S11340F0CE1B9091CF1B9C012F5F3F4F3093CF1B62
S11341002093CE1B9D838C83B986A886DF82CE82C2
S1134110AE014F5F5F4FB701C8010E943E140F907C
S11341200F900F900F900F900F90672B682B692BB7
S113413059F41092E1048FEB93E09F938F930E94C4
S1134140F3340F900F9019C084EB93E09F938F93F7
S11341500E94F3348091E10491E0980F9093E1047C
S11341600F900F90853148F087E793E09F938F93EA
S11341700E94F3340F900F90FFCF29960FB6F89456
S1134180DEBF0FBECDBFDF91CF911F910F91FF9086
S1134190EF90DF90CF90BF90AF9008951F920F9251
S11341A00FB60F9211248F939F93AF93BF93809177
S11341B0CA199091CB19A091CC19B091CD1901963F
S11341C0A11DB11D8093CA199093CB19A093CC194A
S11341D0B093CD19BF91AF919F918F910F900FBE66
S11341E00F901F901895F8946091CA197091CB198B
S11341F08091CC199091CD1978940895CF93DF9341
S1134200CDB7DEB728970FB6F894DEBF0FBECDBF8B
S113421088E0E7ECF2E0DE01119601900D928A95B8
S1134220E1F768EA7FE184EA9FE10E945E0A62EBBB
S11342307FE18CEA9FE10E94750A68EC7FE187EBDD
S11342409FE10E94920ABE016F5F7F4FCB010E94E3
S11342501B0B81E392E00E94110D28960FB6F8948F
S1134260DEBF0FBECDBFDF91CF910895F89414BC8B
S113427015BCEEE6F0E0108282E084BD83E085BDEB
S113428089EF87BD8081826080837894089599E264
S113429088E10FB6F894A895809360000FBE9093C0
S11342A06000A895E3DF80E096E90E94322F83E264
S11342B092E09093001D8093FF1C789408950F93CF
S11342C01F93CF93DF93CDB7DEB76D970FB6F894F6
S11342D0DEBF0FBECDBF8E010F5F1F4F86E0F8011A
S11342E011928A95E9F7B80188E00E94860C8BEA5E
S11342F092E09F938F930E94F3341F930F9386E968
S113430092E09F938F930E94F3348CE692E09F9304
S11343108F930E94F334CE0107960E944A0D8D8D2F
S11343200FB6F894DEBF0FBECDBF813049F480E6EE
S113433092E09F938F930E94F3340F900F9008C0E4
S113434086E592E09F938F930E94F3340F900F9031
S11343505C854B853A85298598858F811F925F936B
S11343601F924F931F923F931F922F931F929F93DD
S11343701F928F9388E193E09F938F930E94E03480
S113438038892F859E858D851F923F931F922F9389
S11343901F929F931F928F9385E493E09F938F9333
S11343A00E94E0343C892B899A8989891F923F9322
S11343B01F922F931F929F931F928F9380E693E0F7
S11343C09F938F930E94E034388D2F899E898D8925
S11343D00FB6F894DEBF0FBECDBF1F923F931F925E
S11343E02F931F929F931F928F938BE793E09F933A
S11343F08F930E94E0343C8D2B8D9A8D898D1F9272
S11344003F931F922F931F929F931F928F9386E93E
S113441093E09F938F930E94E0340FB6F894DEBF2D
S11344200FBECDBF6D960FB6F894DEBF0FBECDBFE5
S1134430DF91CF911F910F910895CF93DF93CDB763
S1134440DEB7C45FD1090FB6F894DEBF0FBECDBF8F
S11344500E94162E1CDF77D15EDD9F938F938CE52F
S113446093E09F938F930E94F3340F900F900F90DB
S11344700F9083E01AC085B18F7E85B92FEF30E7A6
S113448082E0215030408040E1F700C0000085B157
S1134490806185B92FEF33EC89E0215030408040B2
S11344A0E1F700C00000A895892F9FEF980F8111B4
S11344B0E2CFA4DE04DF85E090E0A0E0B0E0A996BE
S11344C08CAF9DAFAEAFBFAFA997E8E4F2E0338104
S11344D02281918180811F923F931F922F931F927B
S11344E09F931F928F938AE293E09F938F930E94EE
S11344F0F334CE018B599F4F2DDC4BE557E068E434
S113450072E0CE018B599F4F33DCA12C6894BB24FD
S1134510B1F80F2EFEECCF2EF9E1DF2EF02D0F2E89
S1134520F4E6EF2EF12CF02D8E010F5F1F4F28EED5
S113453033E040E050E0BE016B597F4FCE0181591A
S11345409F4F0E94090E8BE3E1EDF2E0DE01A855D6
S1134550BF4F01900D928A95E1F7C654DF4F188240
S1134560CA5BD04084E0C255DF4F8883CE5AD04026
S113457081EB93E0C155DF4F99838883CF5AD040B4
S113458082EC93E0CD52DF4F99838883C35DD040A2
S11345908FEC92E0C552DF4F99838883CB5DD04086
S11345A08CE390E0C954DF4F99838883C75BD04084
S11345B081E0C754DF4F8883C95BD040BE01685592
S11345C07F4FCE0181599F4F0E9481120FB6F894FC
S11345D0DEBF0FBECDBF611571058105910509F0E0
S11345E041C09F938F937F936F938AE093E09F934F
S11345F08F930E94F3347E0133EEE30EF11C82E1CB
S1134600EAEDF3E0D70101900D928A95E1F72AEDE6
S11346103FE140E0B701CE0181599F4F0E943C1316
S11346209F938F937F936F93FF92EF9285EF92E026
S11346309F938F930E94F334D6DD4B015C01D3DD4D
S11346406B017C012FE030E04BEC53E06AED73E04A
S1134650CE0181599F4F16DD0FB6F894DEBF0FBE11
S1134660CDBF11C09F938F937F936F9387ED92E09B
S11346709F938F930E94F3340F900F900F900F909D
S11346800F900F90FFCF0E941D2E79D13BDCA8958F
S11346908091E604882311F187EE94E09F938F9331
S11346A08CEE93E09F938F9381EA94E09F938F9392
S11346B00E941A350F900F900F900F900F900F904B
S11346C0181619064CF49C0141EA54E06AED73E0B3
S11346D0CE0181599F4FD6DC1092E60484DDDC01C3
S11346E0CB0188199909AA09BB0989389341A10505
S11346F0B10568F078DD4B015C0144E650E060E010
S113470070E0CE0181599F4F0E940B12A8956BDD7A
S1134710DC01CB018C199D09AE09BF09893E934088
S1134720A105B10508F4AFCF5EDD6B017C010E94E9
S1134730DC0B813021F485B18F7E85B9A4CF85B19E
S1134740806185B9A0CF8AB180618AB98BB180615B
S11347508BB984B1866084B985B1866085B98AB124
S113476080648AB980E58CBD1DBC089514BE0FB663
S1134770F894A895809160008861809360001092FD
S113478060000FBEE1E6F0E080E880831082789458
S113479001C008951092D01C80E197E29093A90083
S11347A08093A800E1EAF0E088E080838081826061
S11347B08083E2E7F0E080818260808308951F9225
S11347C00F920FB60F9211248F938091D01C8F5F9C
S11347D08093D01C8F910F900FBE0F901F9018954F
S11347E01F920F920FB60F9211248F9381E0809342
S11347F005058F910F900FBE0F901F901895CF93C2
S1134800DF93E2E1F5E02681378164817581261723
S11348103707C9F0C085D18542815381DA011196E9
S1134820B383A283FE01E40FF51F80836A177B071D
S113483021F410921505109214052F5F3F4F309309
S1134840190520931805DF91CF9108954FB7F89477
S1134850E8E0F5E02085318580819181BC016F5FBE
S11348607F4F71836083D901A80FB91F8C91608138
S11348707181248135816217730721F4109209052F
S113488010920805E8E0F5E02681378121503109CE
S1134890378326834FBF08951F920F920FB60F924E
S11348A011240BB60F928F93EF93FF9381E08093C3
S11348B00705E9ECF0E080818F7D8083FF91EF9123
S11348C08F910F900BBE0F900FBE0F901F901895F5
S11348D01F920F920FB60F9211240BB60F922F93C3
S11348E03F934F935F936F937F938F939F93AF9374
S11348F0BF93EF93FF938091C8002091CE008C71F9
S113490059F5E8E0F5E0468157818481958148179F
S1134910590711F14085518582819381BC016F5FF4
S11349207F4F73836283DA01A80FB91F2C9322810E
S11349303381848195812817390721F410920B055E
S113494010920A05E8E0F5E0868197810196978345
S1134950868381E080930605FF91EF91BF91AF912B
S11349609F918F917F916F915F914F913F912F9183
S11349700F900BBE0F900FBE0F901F901895809153
S1134980180590911905009769F1209107052223D4
S113499049F1E2E1F5E06085718520813181A90169
S11349A04F5F5F4F51834083DB01A20FB31F2C91F4
S11349B0648175814617570721F4109213051092EC
S11349C01205019790931905809318059FB7F894E1
S11349D02093CE00E9ECF0E0808180628083109225
S11349E007059FBF2FB7F89490910605109206050E
S11349F040910E0550910F052FBF992311F0CA0164
S1134A0035CA0895E1EDFCE1148215821182108209
S1134A1017A216A280E00AC0E82FF0E03396EE0F4A
S1134A20FF1FEF52F34E118210828F5F8031A0F38B
S1134A303AD68DD506D1C5D0BDC108959093D21C68
S1134A408093D11C0C945F2D08959093D41C809373
S1134A50D31C0C944D2D0895E82FF0E03396EE0FFF
S1134A60FF1FEF52F34E718360830895C3D546D779
S1134A70D1C00895A0911C05B0911D05A817B907D0
S1134A8041F42D913C9130931D0520931C050BC0DE
S1134A90DF01ED91FC9111978E179F07C9F72081D3
S1134AA031812D933C93E1EDFCE126A137A1215006
S1134AB0310937A326A3DC011D96ED91FC911E97C5
S1134AC0199508950F931F93CF93DF938C01C6D04C
S1134AD0EC01009729F482E0F8018483878750C0B1
S1134AE0F8019383828381E08483FE01E957FF4FB9
S1134AF085EC95E291838083F801818582FB882788
S1134B0080F9FE01EA57FF4F8083F80191858B8578
S1134B1090FB80F98B87918593FB992790F990FB03
S1134B2082F98B87E1EDFCE184818F5F84838C873C
S1134B30808191819E878D87F80185819681988BEC
S1134B408F878085982F9F708989807F892B898B97
S1134B5097819295907F8F70892B898B448562858C
S1134B607385FE01EF57FF4F50E0808191810E94D1
S1134B707334F80184859981890F8983CE01B6D570
S1134B80DF91CF911F910F910895E0911C05F09151
S1134B901D0513C0228133812817390759F4DC011C
S1134BA0AD57BF4F2C91278713962C91208B22E071
S1134BB0248305C00190F081E02D309759F77FC020
S1134BC0089510921D0510921C050895FC0114828D
S1134BD0178613821282A1EDBCE196968D919C9169
S1134BE09797019697969C938E93969780911C0520
S1134BF090911D05009739F411821082F0931D05E0
S1134C00E0931C05089591838083F0931D05E09340
S1134C101C050895E0911C05F0911D050FC08481C9
S1134C20882319F0823021F006C0CF014BCF0895BC
S1134C30CF0120CF08950190F081E02D309779F7CE
S1134C40089580E008C099E8899FF0011124E25E8C
S1134C50FA4F10828F5F8E31B0F3089580E02AC03E
S1134C60282F30E099E8929FF001939FF00D1124D2
S1134C70E25EFA4F908191111CC069E8629FA00125
S1134C80639F500D1124CF0111926A95E9F720E139
S1134C90FC012183405D5A4FEF57FF4F51834083FE
S1134CA0E1EDFCE126A137A12F5F3F4F37A326A3F7
S1134CB008958F5F8E31A0F280E090E00895FC01AA
S1134CC01082E1EDFCE186A197A1019797A386A349
S1134CD00895009721F0FC01E757FF4F08C0EEE16B
S1134CE0F5E005C08081811109C0E757FF4F85E1D8
S1134CF0EC32F807B8F380E090E008958E2F9F2FF0
S1134D000895FC01DC01AD57BF4F1C92A1EDBCE13D
S1134D1014969C9114979F5F14969C931497948770
S1134D208D919C9196878587089590E012C0292FD4
S1134D3030E0F901EE0FFF1FEE0FFF1FEE0FFF1F14
S1134D40E21BF30BE45DFA4E858186958F5F8583C4
S1134D509F5F943660F30895DF92EF92FF920F9372
S1134D601F93CF93DF938C017B01D42E77DFEC016B
S1134D700097C1F0C6DF89818A5F8983FE01E95704
S1134D80FF4F11821082188B0F8736970190F081A4
S1134D90E02D81E0808312830183F482E382D58253
S1134DA0CE01A4D4DF91CF911F910F91FF90EF908A
S1134DB0DF90089580E016C0282F30E0F901EE0F4F
S1134DC0FF1FEE0FFF1FEE0FFF1FE21BF30BE45D4F
S1134DD0FA4E2FEF3FEF3283218390819E7F9083A1
S1134DE015828F5F843640F30895CF93DF93EC01EF
S1134DF090E02AC0292F30E0F901EE0FFF1FEE0FDB
S1134E00FF1FEE0FFF1FE21BF30BE45DFA4E41811F
S1134E1052814C175D07B9F4F901EE0FFF1FEE0F35
S1134E20FF1FEE0FFF1FE21BF30BE45DFA4E8081C0
S1134E3081FBAA27A0F9B0E0462F50E0A417B507DC
S1134E4011F4CF0105C09F5F9436A0F280E090E09A
S1134E50DF91CF91089580E0A0E0B0E0ECE2F5E1CD
S1134E6013C0908190FD0EC09581992381F0109715
S1134E7031F015962C911597921718F003C0DF01A5
S1134E8001C0DF018F5F3796843658F3FD018081BE
S1134E908D708063808380E88583CF010895FC0151
S1134EA0808180FD05C08FEF9FEF928381831582FF
S1134EB008959BDF009721F0FC018381948108957C
S1134EC08FEF9FEF089591DF009709F0E8CF0895E1
S1134ED00F931F93CF93DF93FC0101851285112358
S1134EE034F4858596850817190709F050C0858123
S1134EF09681019609F44BC0EF0160E085859685A3
S1134F0074DFDC01892B79F18F819885019659F43E
S1134F102091D11C3091D21C8F859889281739078C
S1134F2021F080E003C080E001C081E0982F9170FF
S1134F3013962D913C9114970217130749F0FE0123
S1134F40ED57FF4F208116968C911697821710F01B
S1134F509923B9F014961C930E9313978C918F7028
S1134F6080638C930EC077DFDC018D859E8512965D
S1134F709C938E93119789859A8514969C938E930E
S1134F801397FE01ED57FF4F808116968C93DF91A6
S1134F90CF911F910F910895CF93DF93FC018785E3
S1134FA090898F3F2FEF920781F1EF01638563FBB7
S1134FB0662760F91ADFDC01892B39F18C9180FDB9
S1134FC024C0FE01ED57FF4F808181110EC08C91EA
S1134FD08F7080638C9315968C9115978F5F1596BF
S1134FE08C938F3F91F4A1DE10C09C91892F829500
S1134FF08F70815F8F70282F2295207F9F70922B56
S11350009C93811102C0CD014ADFDF91CF910895B5
S1135010CF93DF93FC01878590898F3F2FEF920711
S113502029F48FEF9FEF908787830EC0238522FF9B
S113503003C09087878308C0EF01638563FB6627FD
S113504060F937DF98878F83DF91CF910895EF92CE
S1135050FF921F93CF93DF93EC011B8513FB112762
S113506010F9EF84F888612FC70123DF019659F006
S1135070FE01E957FF4F11821082319782E080834D
S1135080CE0134D307C0412FB7018D859E8564DEE0
S1135090CE0115DEDF91CF911F91FF90EF9008951F
S11350A0DC011796ED91FC91189719968C91863036
S11350B031F465818381948106DF81E0089580E085
S11350C00895EF92FF920F931F93CF93DF93CDB781
S11350D0DEB72C970FB6F894DEBF0FBECDBFDC0150
S11350E051968C91519782958F70E82FF0E033960A
S11350F0EE0FFF1FEF52F34EE080F180E114F10454
S113510009F467C01D964D915C911E975A8349839B
S11351101F966D917C9150977C836B8351969C91E3
S113512051979F709D838E83CD018F579F4FFC01B4
S1135130808191819987888711962C9111978D018F
S11351400E5F1F4F801B910B281B2A87CD018D57A3
S11351509F4FFC0180818B87CD018C579F4FFC01B1
S113516080818C871B962C911B97922F9170822F94
S11351708270982B22FF02C080E201C080E0982B4D
S113518023FF02C080E401C080E0982B6F3F7F4F73
S113519011F484E001C080E0982B19962D913C9184
S11351A01A974217530711F488E001C080E0982B46
S11351B015962D913C9116972F3F3F4F11F480E1A6
S11351C001C080E0892B8F83CE010196F7011995E8
S11351D001C080E02C960FB6F894DEBF0FBECDBFA1
S11351E0DF91CF911F910F91FF90EF900895DC0113
S11351F019962C911997222371F01796ED91FC9131
S113520018972081222319F0213019F006C004C315
S1135210089546CF089580E0089580E00895BC0184
S113522090E080E01CC0292F30E0F901EE0FFF1F51
S1135230EE0FFF1FE20FF31FEA50F84E44814423A0
S113524069F0F901EE0FFF1FEE0FFF1F2E0F3F1F36
S1135250F901EA50F84E4150448381E09F5F9A304F
S113526010F3882311F0CB0193C508950F931F9376
S1135270CF93DF93EC0190E060E070E080C0292FD1
S113528030E0F901EE0FFF1FEE0FFF1FE20FF31FD7
S1135290EA50F84E4481442309F46DC00B851C8503
S11352A0A081B1810A171B0709F065C0F901EE0F4F
S11352B0FF1FEE0FFF1FE20FF31FEA50F84E82812B
S11352C09A85891B8830E0F5F901EE0FFF1FEE0F78
S11352D0FF1FE20FF31FEA50F84E9381492F50E06D
S11352E0082E02C0559547950A94E2F740FF13C073
S11352F02091D11C3091D21C8D819E8128173907B1
S113530009F053C0698563FB662760F98D859E8526
S1135310DADD81E04DC041E050E002C0440F551F8A
S11353208A95E2F7F901EE0FFF1FEE0FFF1F2E0F14
S11353303F1FF901EA50F84E942B938380E038C064
S11353408195F901EE0FFF1FEE0FFF1F2E0F3F1F78
S1135350F901EA50F84E9283238130E0A90102C09A
S1135360440F551F8A95E2F7CA01816083838FE158
S1135370848380E01DC0411101C0BF019F5F9A304A
S113538008F47DCF6115710591F08B859C85FB0137
S1135390918380838A85828381E083838FE1848300
S11353A088EE97E1F5D480E003C081E001C081E09C
S11353B0DF91CF911F910F9108950F931F93CF9376
S11353C0DF93FC018C010E5F1F4F84E28083838591
S11353D081FD54C083FD52C0258136812F3F3F4F4C
S11353E079F42091D11C3091D21C8785908928179B
S11353F0390719F0019609F041C082E280833EC06A
S1135400278530892F3F3F4F11F480FD37C020910D
S1135410D11C3091D21C858596852817390771F1E6
S1135420EF01CF0155DDC80121DF811127C08F8134
S11354309885019671F42091D11C3091D21C8F85EE
S113544098892817390729F08B8582FD02C0CE017F
S11354509FD12091D11C3091D21C8F859889281717
S1135460390711F0019619F482E2888307C08F810D
S113547098852817390711F483E28883DF91CF9147
S11354801F910F9108950F931F93CF93DF938C0176
S1135490E5DBEC01009731F134DC89818D5F898390
S11354A0FE01E957FF4F11821082D8011B968C919F
S11354B01B97869581709B8580FB91F99B871D9630
S11354C08D919C911E97988B8F8736970190F081D0
S11354D0E02D10828091F51782831C968C91818334
S11354E0CE0104D1DF91CF911F910F910895CF93F5
S11354F0DF93EC011092F517E4DD9B8590FF80E0CB
S11355002F8138852F3F3F4F59F44091D11C509142
S1135510D21C2F8538894217530711F493FF81E079
S11355202D813E812F3F3F4F09F480E02091D11C13
S11355303091D21C2F3F3F4F09F480E0882311F0B3
S1135540CE01A1DF84E28883DF91CF91089520E02A
S11355500EC0822F90E0FC01EE0FFF1FEE0FFF1F25
S11355608E0F9F1FFC01EA50F84E14822F5F2A30E1
S113557080F3E8EEF7E184E690E0A0E0B0E0868313
S11355809783A087B18712868FE099E294878387F7
S113559067EF78E280E060CA0895CF93DF93DC017F
S11355A0ED91FC912181283811F52081213611F0EB
S11355B02134E9F4FC0122812031C8F0EC014EDBF6
S11355C00097A9F020E2DC012C932A8111962C93F8
S11355D02B81FC01ED57FF4F20832C8131962083D2
S11355E04A816881798150E002960E947334DF9188
S11355F0CF910895CF93DF93C0E0D0E017C08881A6
S1135600823261F018F4803231F010C0833249F0F4
S1135610843251F00BC0CE01D0DE08C0CE0167DF6A
S113562005C0CE0114DD02C0CE0149DBCE0151DB41
S1135630EC01892B21F7DF91CF910895813051F04E
S113564018F0823019F004C080E0089581E20895D2
S113565081E0089580E208951F93CF93DF93EC01D6
S113566010E080E090E014C0FC012081213181F43D
S1135670EC57FF4F20813181215031093183208340
S1135680232B29F423E1FC01208311E001C011E064
S113569020DB009749F7112311F0CE0179D3DF9174
S11356A0CF911F9108951092431810924218E5E388
S11356B0F8E182E390E0A0E0B0E086839783A087DE
S11356C0B187128687E39CE294878387E8E2F8E156
S11356D08AE090E0A0E0B0E086839783A087B1875A
S11356E012868CE29BE2948783870895CF93DF939D
S11356F0EC01FC01EA57FF4F808181FF03C092E176
S1135700988302C092E19883FE01ED57FF4F108207
S1135710982F917080FF05C02FEF3FEF3E832D83BC
S113572006C02091D31C3091D41C3E832D8382FD6E
S113573005C0911103C0CE016BDC04C08F8598892C
S113574098878F83E1EDFCE1808191819A87898735
S113575085818F5F85838C838F819885019669F419
S113576081E498E89B838A83CDD787709927019633
S1135770CC57DF4F9983888308C081E698E89B83E0
S11357808A83CC57DF4F19821882DF91CF91089515
S11357900F931F93CF93DF938C0160DAEC01892B75
S11357A0B1F182E18883F80181818983FE01ED579B
S11357B0FF4F1082A7D7877099270196FE01EC57F7
S11357C0FF4F91838083339611821082F8014181C7
S11357D0B8016E5F7F4F50E0CE0102960E94733491
S11357E081E498E89B838A838FEF9FEF98878F8368
S11357F0F801858196819E838D83E1EDFCE18081B2
S113580091819A87898785818F5F85838C83DF91D6
S1135810CF911F910F910895CF93DF93FC01C7811E
S1135820D08581858330C1F480E090E010C0FC0114
S11358302081263161F434852981321308C027E19F
S113584020832A81EA57FF4F208381E006C041DA92
S1135850009769F780E001C080E0DF91CF9108955F
S113586027E1FC012083ED57FF4F60830895EF92F9
S1135870FF921F93CF93DF937C0110E0C0E0D0E050
S113588013C08881863181F4FE01EC57FF4F80817B
S11358909181019791838083892B29F460E1CE0162
S11358A0DFDF11E001C011E0CE0113DAEC01892B36
S11358B041F7112311F0C7016BD2DF91CF911F91F2
S11358C0FF90EF900895CF93DF93C0914218D09149
S11358D04318B4DEFE01ED57FF4F808385E18883D2
S11358E01092431810924218E1EDFCE186A197A1B1
S11358F0019797A386A3DF91CF910895CF93DF9368
S1135900C0E0D0E068C088818331D1F018F48231DE
S113591039F061C0853169F1873109F44DC05BC04C
S1135920FE01EC57FF4F80819181892B31F081E199
S1135930888388E298E12CD24EC083E188834BC0EF
S11359408091421890914318892B09F044C0D09358
S11359504318C093421884E188836981CE0102967A
S1135960C5D0E1EDFCE186A197A1019697A386A39A
S113597032C0FE01ED57FF4F808181111AC02D8581
S11359803E858091D11C9091D21C2817390771F45F
S11359908B8580FF0BC086E1888389E290E0319695
S11359A09183808385E398E1F3D115C087E18883EF
S11359B012C087E188830FC0CE01EEDAFE01E957F9
S11359C0FF4F0190F081E02D309719F4CE0177D983
S11359D002C0CE011995CE017CD9EC01892B09F0C6
S11359E092CFDF91CF91089580914418982F9F70A2
S11359F0E4E5F1E08081807F892B808380914418E5
S1135A00882329F08091451880935301089580914B
S1135A104518982F9F71E8E4F1E08081807E892BFE
S1135A208083089593E090934201909141019F7186
S1135A309830D9F780934201909141019F71891365
S1135A40FBCF089588E0EEDF8FEF80934F018091C4
S1135A504618882311F086E1E5CF0895E9E3F1E0E3
S1135A60808181608083109246181092441881E0EE
S1135A708093C71888E0D6DF8BEE80935601ECE460
S1135A80F1E0808180688083089580934618DACF9E
S1135A90089580934518A8CF0895CF93DF931F925C
S1135AA01F92CDB7DEB79A838983809362018A817E
S1135AB0809363010F900F90DF91CF910895CF935E
S1135AC0DF931F921F92CDB7DEB79A8389838093A9
S1135AD060018A818093610199818A81890F809311
S1135AE06D010F900F90DF91CF9108950F931F9345
S1135AF0CF938C01C62F89E195DF8FEF80934F01FF
S1135B0082E08C0F8093800120E00BC0822F90E014
S1135B10FC01EF57FE4FD801A80FB91F8C91808369
S1135B202F5F2C1798F383E08093C71882E080934B
S1135B304201CF911F910F9108951F93CF93DF934B
S1135B4000D01F921F92CDB7DEB78091C718823064
S1135B5009F463C080914F0183FF3CC0A0917B0195
S1135B6020E009C0FC01E058FE4F3081FC01E95BF4
S1135B70F74E30832F5F822F90E04A2F50E0BA0116
S1135B806F5F7F4F861797076CF387E498E19A83DA
S1135B908983A250AB83FA01E95BF74E80818C8341
S1135BA0809147018A558D83CE010196F6DC809160
S1135BB041018F718631D9F7EFE4F1E0808188608B
S1135BC08083ECE4F1E080818F778083808180683A
S1135BD0808323C080914F0186FF1FC080914101C3
S1135BE08F718931A9F4109142011295169517709D
S1135BF049F0133021F0153021F412E003C011E014
S1135C0001C013E01FDF81E08093C718812F5BDEA2
S1135C10EFE4F1E08081806480830F900F900F9017
S1135C200F900F90DF91CF911F9108950E94B6239A
S1135C3060D014DF0C94022508957FDF0E9436257E
S1135C40B2C008950F931F93CF93DF93EC0180911B
S1135C50C8189091C9180097C9F14E815F81688571
S1135C607985FC01A0E0B0E01AC00281138124818F
S1135C703581401751076207730748F4041B150B5D
S1135C80260B370B02831383248335830AC0401BFE
S1135C90510B620B730BDF010190F081E02D309703
S1135CA021F74A835B836C837D83109741F08D9148
S1135CB09C91119799838883CD93DC9315C0998324
S1135CC08883D093C918C093C8180EC0198218824B
S1135CD08E819F81A885B9858A839B83AC83BD838C
S1135CE0D093C918C093C818DF91CF911F910F9119
