:1000000025C1000053C1000051C100004FC10000D4
:100010004DC100004BC1000049C1000047C10000B4
:1000200045C1000043C1000041C100003FC10000C4
:100030003DC100003BC1000039C1000037C10000D4
:1000400035C1000033C1000031C100002FC10000E4
:100050002DC100000C94191429C1000027C1000013
:1000600025C1000023C1000021C100001FC1000004
:100070001DC100001BC1000019C1000017C1000014
:1000800015C1000013C1000011C100000FC1000024
:100090000DC100000BC1000009C1000007C1000034
:1000A00005C1000003C1000001C10000FFC0000045
:1000B000FDC00000FBC00000F9C00000F7C0000058
:1000C000F5C00000F3C00000F1C00000EFC0000068
:1000D000EDC00000EBC00000E9C00000E7C0000078
:1000E000E5C00000E3C00000E1C00000DFC0000088
:1000F000DDC00000DBC00000D9C00000D7C0000098
:10010000D5C00000D3C00000D1C00000CFC00000A7
:10011000CDC00000CBC00000C9C00000C7C00000B7
:10012000C5C00000C3C00000C1C00000BFC00000C7
:10013000BDC00000E212E512F412EF12F912FE1235
:10014000031311132513341337133B134E133F13AB
:1001500042134813444843502049500D0A00535459
:10016000415449432049500D0A003D3D3D3D3D3D30
:100170003D3D3D3D3D3D3D3D3D3D3D3D3D3D3D3DAF
:100180003D3D3D3D3D3D3D3D3D3D3D3D3D3D3D3D9F
:100190003D0D0A002057495A6E65742063686970E6
:1001A0003A20202573200D0A000D0A3D3D3D3D3DBE
:1001B0003D3D3D3D3D3D3D3D3D3D3D3D3D3D3D3D6F
:1001C0003D3D3D3D3D3D3D3D3D3D3D3D3D3D3D3D5F
:1001D0003D3D0D0A000D0A3E3E3E2050494E47204F
:1001E000444E530D0A000D0A3E3E2050494E472012
:1001F0006D792050430D0A003E3E20467265652011
:1002000052414D2069733A202564206279746573E8
:100210000D0A003C3C2050494E4720257320667251
:100220006F6D2025642E25642E25642E25642049BB
:10023000443A2578205365713A25782064617461C9
:100240003A25752062797465730D0A0011241FBE6A
:10025000CFEFD1E8DEBFCDBF00E00CBF84B7809305
:10026000F70614BE0FB6F894A895809160008861D7
:1002700080936000109260000FBE14E0A0E0B2E036
:10028000E6E7F3E300E00BBF02C007900D92A8334E
:10029000B107D9F726E0A8E3B4E001C01D92A73F5B
:1002A000B207E1F70E947D150C94B919A9CE4F92BF
:1002B0005F926F927F92AF92BF92DF92EF92FF9226
:1002C0000F931F93CF93DF9300D01F92CDB7DEB76C
:1002D000D82E7B01A42EB52E082F10E0000F111F81
:1002E000000F111F0F5F1F4F000F111F000F111F75
:1002F000000F111FB8017D5F072E000C880B990BB2
:100300000E94AB0C833109F4B0C020F4882309F4B7
:10031000CDC0E5C0873121F08C3109F488C0DFC041
:1003200028012EEF521A052C000C66087708C3012D
:10033000B2010E94AB0C80FF43C0B801745F072E6E
:10034000000C880B990B24E030E0AE014F5F5F4F4B
:100350000E94840DB801705F072E000C880B990B6A
:100360000E94AB0CA82EB12CBA2CAA24B8017F5E37
:10037000072E000C880B990B0E94AB0CA80EB11C29
:100380003C812B819A818981BF92AF921F923F93CA
:100390001F922F931F929F931F928F931F92DF9212
:1003A0008FE492E09F938F930E94D21641E0C301A5
:1003B000B2010E94120D0FB6F894DEBF0FBECDBF82
:1003C0008D2D0E94E50E009709F48EC0813028E043
:1003D000920710F080E098E0AC01B7018D2DF0D6C7
:1003E00016161706180619060CF083C05B0100E00C
:1003F00010E015C0A501401B510BB701600F711F24
:100400008D2DCBD52B013C0199233CF48D2D8AD326
:10041000442D352D262D972D7EC0060F171F0A154A
:100420001B0541F741E030E020E090E074C08D2DE5
:1004300040D5082E000C990BAA0BBB0B81309105FF
:10044000A105B10509F059C01F92DF9281E792E042
:100450009F938F930E94D2160F900F900F900F9042
:1004600041E030E020E090E056C0BF92AF921F9292
:10047000DF9284E892E09F938F930E94D2168D2D95
:10048000BED4082E000C990BAA0BBB0B0F900F903B
:100490000F900F900F900F9081309105A105B1053D
:1004A00089F1482F392F2A2F9B2F35C020E04A2D64
:1004B0005B2D61E08D2DA6D3082E000C990BAA0BA5
:1004C000BB0B4D2D50E060E070E084179507A60748
:1004D000B707E9F0482F392F2A2F9B2F1CC041E086
:1004E00030E020E090E017C041E030E020E090E014
:1004F00012C0462F372F282F0EC0482F392F2A2FF2
:100500009B2F09C041E030E020E090E004C041E0D2
:1005100030E020E090E0642F732F822F0F900F9037
:100520000F900F90DF91CF911F910F91FF90EF905F
:10053000DF90BF90AF907F906F905F904F90089545
:100540004F925F926F927F928F929F92AF92BF92E3
:10055000DF92EF92FF920F931F93CF93DF9300D020
:1005600000D0CDB7DEB7D82E7B01142F052F682F12
:1005700070E0660F771F660F771F6F5F7F4F660F04
:10058000771F660F771F660F771F7D5F072E000CA2
:10059000880B990B0E94AB0C882309F46AC0823245
:1005A00009F090C08D2D0E94E50E009709F48FC0D0
:1005B000813028E0920710F080E098E08E010B5F18
:1005C0001F4F9E012F5F3F4FAC01B7018D2DE5D727
:1005D0004B015C011616170618061906B4F0BF92F7
:1005E000AF929F926F931F92DF9281E093E09F936F
:1005F0008F930E94D2160FB6F894DEBF0FBECDBF08
:10060000382D292D8A2D9B2D6BC0A12CB12C29C0F2
:100610000D811E819E012F5F3F4FA4014A195B0986
:10062000B7016A0D7B1D8D2D8AD62B013C019923C4
:10063000B4F47F926F925F926F931F92DF928BE17F
:1006400093E09F938F930E94D2160FB6F894DEBF6B
:100650000FBECDBF342D252D862D972D41C0A60E62
:10066000B71EA814B904A1F631E020E080E090E0C4
:1006700037C020E0412F502F62E08D2DC3D2482F8C
:10068000880F550B660B770B8D2D90E0A0E0B0E046
:10069000481759076A077B07F9F40F931F931F92B6
:1006A000DF9283E393E09F938F930E94D2160F9083
:1006B0000F900F900F900F900F9031E020E080E0AE
:1006C00090E00EC031E020E080E090E009C031E031
:1006D00020E080E090E004C0342F252F862F972F54
:1006E000632F722F26960FB6F894DEBF0FBECDBFD4
:1006F000DF91CF911F910F91FF90EF90DF90BF900E
:10070000AF909F908F907F906F905F904F900895E3
:10071000CF92DF92EF92FF92DB01B695A795C12CA5
:10072000D12C760140E050E012C0FA01EE0FFF1F1D
:10073000E80FF91F208130E0322F2227E1812E0FB0
:10074000311DC20ED31EE11CF11C4F5F5F4F4A17D3
:100750005B0758F360FF0DC0440F551FFC01E40F09
:10076000F51F808190E0982F8827C80ED91EE11CC4
:10077000F11CC701AA27BB278C0D9D1D8095909564
:10078000FF90EF90DF90CF900895982789279827C2
:100790000895DF92EF92FF920F931F93CF93DF9311
:1007A000D82E7B01C9E5D4E088E088831982809146
:1007B0000202909103029C012F5F3F4F309303028E
:1007C00020930202E2DF9D838C838091000290914E
:1007D00001029C012F5F3F4F3093010220930002E2
:1007E000D4DF9F838E8380E090E007C0FC01E75A4E
:1007F000FB4F282F27702087019680329105B0F398
:10080000C9E5D4E01B821A8268E270E0CE0180DF85
:10081000BCDF9B838A8308EB1BE0970148E250E032
:10082000BE018D2D8CD580E0DF91CF911F910F916E
:10083000FF90EF90DF900895AF92BF92DF92EF921A
:10084000FF920F931F93CF93DF93D82E5B017A0112
:10085000C1EAD4E018821B821A82BA01CE0158DFA5
:1008600094DF9B838A8308EB1BE09501A701BE01FF
:100870008D2D65D580E0DF91CF911F910F91FF9075
:10088000EF90DF90BF90AF9008954F925F926F927C
:100890007F92BF92CF92DF92EF92FF920F931F93BE
:1008A000CF93DF93CDB7DEB7C258D1090FB6F89416
:1008B000DEBF0FBECDBFB82E6B0188EB9BE0CF57DC
:1008C000DF4F99838883C158D0408E010F571F4F47
:1008D0009B01BE016F5F7F4F8B2D5FD62B013C01CB
:1008E000498141113DC0E1EAF4E040838A8181837E
:1008F0008C8190E0982F88272B81820F911D938304
:1009000082832E8130E0322F22278D81280F311DE6
:1009100035832483088510E0102F00278F81080F6E
:10092000111D1783068380E090E00EC0FC0138960D
:10093000A1E0B0E0AC0FBD1FEA0FFB1F5081FC012E
:10094000EF55FB4F508701967B01B8E0EB1AF10899
:100950008E159F0558F3B6018B2D0E94711443C06C
:10096000483009F040C0E1EAF4E040838A818183A5
:100970008C8190E0982F88272B81820F911D938383
:1009800082832E8130E0322F22278D81280F311D66
:1009900035832483088510E0102F00278F81080FEE
:1009A000111D1783068380E090E00EC0FC0138968D
:1009B000A1E0B0E0AC0FBD1FEA0FFB1F5081FC01AE
:1009C000EF55FB4F508701967B01B8E0EB1AF10819
:1009D0008E159F0558F3B6018B2D0E947114A2014C
:1009E000B6018B2D29DFCE57DF4F0FB6F894DEBF4F
:1009F0000FBECDBFDF91CF911F910F91FF90EF9070
:100A0000DF90CF90BF907F906F905F904F90089550
:100A10008F929F92BF92CF92DF92EF92FF920F93AD
:100A20001F93CF93DF9300D01F92CDB7DEB7B82EC0
:100A300019821A821B821C82082F10E0B801660FEF
:100A4000771F660F771F6F5F7F4F4B01880C991CD4
:100A5000880C991C880C991C64018DEFD81A0D2CF8
:100A6000000CEE08FF08C701B60175D7882321F0F6
:100A7000823309F43CC046C08B2D54D0B4017C5E57
:100A8000072E000C880B990B41E0CCD720E048EBF7
:100A90005BE063E08B2DB6D0082E000C990B081795
:100AA000190769F01F92BF9288E593E09F938F9397
:100AB0000E94D2160F900F900F900F9023C0C70185
:100AC000B60149D78233D9F78FEC97E00197F1F758
:100AD00000C000001F92BF928DE693E09F938F931A
:100AE0000E94D2160F900F900F900F900BC08B2D7D
:100AF0000E94E50E009731F0AC01BE016F5F7F4FA1
:100B00008B2DC3DE0F900F900F900F90DF91CF9140
:100B10001F910F91FF90EF90DF90CF90BF909F902B
:100B20008F900895BF92CF92DF92EF92FF920F9332
:100B30001F93CF93DF93893008F059C0B82E082F48
:100B400010E0E801CC0FDD1FCC0FDD1F2196CC0F8C
:100B5000DD1FCC0FDD1FCC0FDD1F6E01D3940D2CDC
:100B6000000CEE08FF0840E1C701B6015BD7C701E2
:100B7000B601F1D68111FBCFBE017E5F072E000CBE
:100B8000880B990B4FE14ED781E090E002C0880FAF
:100B9000991FBA94E2F78095909520915204309174
:100BA0005304282339233093530420935204209173
:100BB00050043091510482239323909351048093E5
:100BC0005004F801EE0FFF1FE05CFB4F1182108212
:100BD000F801E85CFB4F1082BE017D5F072E000C20
:100BE000880B990BB8D68111F7CF81E001C08FEF48
:100BF000DF91CF911F910F91FF90EF90DF90CF90F9
:100C0000BF9008954F925F926F927F92AF92BF9282
:100C1000CF92DF92EF92FF920F931F93CF93DF93C8
:100C200000D01F92CDB7DEB7F82E562E3A01E22E35
:100C300028E0281708F4C5C081E0681739F0681764
:100C400008F4C1C024E02617A8F4BDC024E030E0B9
:100C5000AE014F5F5F4F60E07FE080E090E054D7EF
:100C600089819A81AB81BC81892B8A2B8B2B11F4D2
:100C70008DEFB2C0E2FCA9C0EE20A9F081E05816C9
:100C800021F022E0521629F00EC08E2D817259F407
:100C90009EC0E5FE03C0EE200CF09BC0E4FE03C046
:100CA000EE200CF098C08F2D3DDFCF2CD12C86018B
:100CB000000F111F000F111F0F5F1F4F000F111F9B
:100CC000000F111F000F111F4E2D407F4529B80145
:100CD000012E000C880B990BA5D66114710491F4B8
:100CE0006090040270900502C30101969093050282
:100CF00080930402409631F480E090EC90930502DA
:100D000080930402B8017C5F072E000C880B990BBE
:100D1000472D88D6B8017B5F072E000C880B990BF6
:100D2000462D80D628015394052C000C66087708C0
:100D300041E0C301B20176D6C301B2010CD68111E4
:100D4000FBCF81E090E00F2C02C0880F991F0A941E
:100D5000E2F7809590952091520430915304282316
:100D60003923E0FAAA24A0F8B12C0F2C02C0AA0C57
:100D7000BB1C0A94E2F7A22AB32AB0925304A092B1
:100D80005204209150043091510482239323909374
:100D9000510480935004F601EE0FFF1FE05CFB4FFF
:100DA00011821082F601E85CFB4F1082B8017D5F72
:100DB000072E000C880B990BCED58823B9F38F2D05
:100DC0000BC08FEF09C08BEF07C08AEF05C08AEF19
:100DD00003C08AEF01C08AEF0F900F900F900F9021
:100DE000DF91CF911F910F91FF90EF90DF90CF9007
:100DF000BF90AF907F906F905F904F9008958F92CB
:100E00009F92AF92BF92CF92DF92EF92FF92CF93D9
:100E1000893008F03FC0C82FC82ED12CCC0CDD1C67
:100E2000CC0CDD1C8FEFC81AD80ACC0CDD1CCC0C06
:100E3000DD1CCC0CDD1CB6010D2C000C880B990BB5
:100E40008AD58F70813041F546018DEF981A092CB3
:100E5000000CAA08BB08C501B4017DD58331F1F4AB
:100E6000D3940D2C000CEE08FF0842E0C701B60138
:100E7000D9D5C701B6016FD58111FBCF04C08C2F26
:100E800051DE8CEF0CC0C501B40165D58431B9F7D2
:100E900081E005C08FEF03C08BEF01C08DEFCF91D4
:100EA000FF90EF90DF90CF90BF90AF909F908F908A
:100EB0000895CF92DF92EF92FF921F93CF93DF932B
:100EC000893008F05DC0182FC82FD0E0CC0FDD1F8F
:100ED000CC0FDD1F2196CC0FDD1FCC0FDD1FCC0FFB
:100EE000DD1FBE010D2E000C880B990B34D58F70C1
:100EF000813009F047C06E01D3940D2C000CEE0830
:100F0000FF0848E0C701B6018DD5C701B60123D55A
:100F10008111FBCF81E090E0012E02C0880F991F64
:100F20000A94E2F79C01209530954091500450912D
:100F300051042423352330935104209350042091ED
:100F400052043091530482239323892B71F01CC0E7
:100F5000BE017E5F072E000C880B990BFCD483FF2B
:100F600004C0812FDFDD83EF10C0BE017D5F072E3F
:100F7000000C880B990BEFD48111EACF81E005C0FA
:100F80008FEF03C08BEF01C080E0DF91CF911F9105
:100F9000FF90EF90DF90CF9008952F923F924F9265
:100FA0005F926F927F928F929F92AF92BF92CF92F9
:100FB000DF92EF92FF920F931F93CF93DF9300D0B6
:100FC00000D0CDB7DEB7893008F0C7C05E834D834F
:100FD0001B01F82EC82ED12CCC0CDD1CCC0CDD1C3A
:100FE0002FEFC21AD20ACC0CDD1CCC0CDD1CCC0CB1
:100FF000DD1CB6010D2C000C880B990BACD48F7046
:10100000813009F0AEC04D815E81452B09F4AEC040
:1010100026015DEF551A052C000C66087708C30100
:10102000B20199D4873119F08C3109F0A4C081E064
:1010300090E04C010F2C02C0880C991C0A94E2F736
:101040005401809150049091510488219921892B59
:1010500061F1C6019E5F9C01990F440B550B2983DA
:101060003A834B835C83CA01B90175D484FF14C0F1
:1010700040E169817A818B819C81D4D42091500494
:1010800030915104C40180959095822393239093CD
:1010900051048093500409C083FF72C08F2D42DD3C
:1010A00063EF7FEF8FEF9FEF72C0B601715E072E87
:1010B000000C880B990B4FD4082F10E0102F00273D
:1010C000110F110F4D815E810417150708F08A0179
:1010D0008F2D23D69A838983C301B2013CD48731F3
:1010E00049F08C3139F08F2D1DDD69EF7FEF8FEFE7
:1010F0009FEF4DC080915204909153048A219B210F
:10110000892B31F089819A818017910708F43CC0BE
:1011100029813A8120173107D8F2A801B1018F2D1A
:10112000ACD6D3940D2C000CEE08FF0840E2C701AA
:10113000B60178D4C701B6010ED48111FBCF8091DE
:10114000500490915104882A992A909251048092D7
:101150005004B80180E090E01AC06FEF7FEFCB0140
:1011600016C06BEF7FEF8FEF9FEF11C062EF7FEF45
:101170008FEF9FEF0CC069EF7FEF8FEF9FEF07C0FE
:1011800060E070E0CB0103C060E070E0CB01269628
:101190000FB6F894DEBF0FBECDBFDF91CF911F9188
:1011A0000F91FF90EF90DF90CF90BF90AF909F9006
:1011B0008F907F906F905F904F903F902F90089509
:1011C0007F928F929F92AF92BF92CF92DF92EF92D7
:1011D000FF920F931F93CF93DF93893008F090C055
:1011E000EA014B01782EC82ED12C8601000F111F69
:1011F000000F111F0F5F1F4F000F111F000F111F56
:10120000000F111FB801012E000C880B990BA3D3FE
:101210008F70813009F078C0209709F47AC0B80146
:10122000725E072E000C880B990B95D3A82EB12C5B
:10123000BA2CAA24BB0CBB0CAC16BD0608F05E0190
:10124000872DC3D5EC01B8017D5F072E000C880BFC
:10125000990B81D3873121F18C31D9F42097A9F5ED
:10126000872D5BD57C01B801715E072E000C880BC1
:10127000990B71D390E0982F8827990F990FE81652
:10128000F90671F4872D4EDC69EF7FEF8FEF9FEF4A
:1012900048C0872D47DC69EF7FEF8FEF9FEF41C09C
:1012A00081E090E00C2C02C0880F991F0A94E2F7AD
:1012B000209152043091530482239323892B11F0FF
:1012C000209761F1209709F4BBCFCA15DB0508F020
:1012D000E501AE01B401872D57D66801D3940D2CDA
:1012E000000CEE08FF0840E4C701B6019BD3C7011C
:1012F000B60131D38111FBCFBE0180E090E011C077
:101300006FEF7FEFCB010DC06BEF7FEF8FEF9FEFA4
:1013100008C062EF7FEF8FEF9FEF03C060E070E0E7
:10132000CB01DF91CF911F910F91FF90EF90DF9054
:10133000CF90BF90AF909F908F907F9008952F9205
:101340003F925F926F927F928F929F92AF92BF92E5
:10135000CF92DF92EF92FF920F931F93CF93DF9381
:10136000893008F0E3C0E9013A011B01582EC82E6C
:10137000D12C7601EE0CFF1CEE0CFF1C8FEFE81A4F
:10138000F80AEE0CFF1CEE0CFF1CEE0CFF1C4701D4
:101390000F2C000CAA08BB08C501B401DCD28F7069
:1013A0008250833008F0C6C06114710409F4C7C0CC
:1013B000888190E0A0E0B0E0BA2FA92F982F88276D
:1013C0002981820F911DA11DB11DBA2FA92F982F20
:1013D00088272A81820F911DA11DB11DBA2FA92F27
:1013E000982F88272B81820F911DA11DB11D892B5C
:1013F0008A2B8B2B29F4C501B401ADD282FFA4C086
:101400000115110529F4C501B401A5D282FFA1C0BF
:1014100047018DEF981A092C000CAA08BB08C501DA
:10142000B40199D2823429F0823219F0823309F062
:1014300095C0B701745F072E000C880B990B24E050
:1014400030E0AE01E3D3B701705F072E000C880BCC
:10145000990B412FE7D2B7017F5E072E000C880B56
:10146000990B402FDFD2B701715E072E000C880B5D
:10147000990B71D2082F10E0102F0027110F110FB8
:101480000615170508F08301852D47D4EC01C50129
:10149000B40161D2882309F466C081E090E00C2C8D
:1014A00002C0880F991F0A94E2F7209152043091EC
:1014B000530482239323892B21F0C017D10708F40A
:1014C00057C0C017D10700F3A801B101852DD5D4AD
:1014D00047019394092C000CAA08BB0840E2C501FF
:1014E000B401A0D2C501B40136D28111FBCF4701AE
:1014F0008EEF981A092C000CAA08BB08C501B4018C
:101500002AD284FF08C040E1C501B4018BD2B801E2
:1015100080E090E030C083FFEACF48E0C501B4012D
:1015200081D263EF7FEF8FEF9FEF25C06FEF7FEFEB
:10153000CB0121C06BEF7FEF8FEF9FEF1CC062EFFD
:101540007FEF8FEF9FEF17C064EF7FEF8FEF9FEF7D
:1015500012C065EF7FEF8FEF9FEF0DC069EF7FEF58
:101560008FEF9FEF08C06CEF7FEF8FEF9FEF03C00F
:1015700060E070E0CB01DF91CF911F910F91FF9060
:10158000EF90DF90CF90BF90AF909F908F907F9023
:101590006F905F903F902F9008952F923F924F92BF
:1015A0005F926F927F928F929F92AF92BF92CF92F3
:1015B000DF92EF92FF920F931F93CF93DF93CDB7FC
:1015C000DEB72C970FB6F894DEBF0FBECDBF8930C3
:1015D00008F092C1280139015A014B01382EC82E5A
:1015E000D12C8601000F111F000F111F0F5F1F4F1D
:1015F000000F111F000F111F000F111FB801012E46
:10160000000C880B990BA7D1282E8F708250833045
:1016100008F076C1A114B10409F477C1F601EE0F08
:10162000FF1FE05CFB4F80819181892B29F5832D81
:10163000CCD37C01B8017D5F072E000C880B990B81
:101640008AD1882309F466C181E090E00C2C02C0A5
:10165000880F991F0A94E2F72091520430915304A5
:1016600082239323892B21F0E114F10409F457C15B
:10167000E114F104E1F202C0E12CF12C822D87701B
:10168000833009F4B1C0843009F461C0823009F0BC
:10169000FEC0F601EE0FFF1FE05CFB4F80819181E1
:1016A000892B09F044C048E050E0BE016F5F7F4FD6
:1016B000832D6AD4C80193959C01990F440B550B57
:1016C00029873A874B875C8740E469857A858B85D3
:1016D0009C85A8D169857A858B859C853CD18111B3
:1016E000F9CF8981F30180838A8181838B81828311
:1016F0008C8183838D8190E0982F88272E81820FA3
:10170000911DF201918380838F8190E0F601EE0FAD
:10171000FF1FE05CFB4F982F88272885820F911DC3
:101720009183808380E8F601E85CFB4F8083F601BB
:10173000EE0FFF1FE05CFB4FE080F180AE14BF04B2
:1017400008F47501A701B401832D1ED4AAC0F601C7
:10175000EE0FFF1FE05CFB4F80819181892BA1F58B
:1017600042E050E0BE016F5F7F4F832D0DD4280112
:101770005394052C000C6608770840E4C301B201BD
:1017800051D1C301B201E7D08111FBCF898190E033
:10179000F601EE0FFF1FE05CFB4F982F88272A8190
:1017A000820F911D0297918380838B3E954038F084
:1017B000832DB8D967E17CEF8FEF9FEFB3C080E84E
:1017C000F601E85CFB4F8083F601EE0FFF1FE05C43
:1017D000FB4FE080F180AE14BF0408F47501A7014F
:1017E000B401832DD1D35DC0F601EE0FFF1FE05C85
:1017F000FB4F80819181892BD1F546E050E0BE01FD
:101800006F5F7F4F832DC0D3C80193959C01990FC3
:10181000440B550B29873A874B875C8740E46985E1
:101820007A858B859C85FED069857A858B859C859C
:1018300092D08111F9CF8981F30180838A818183DC
:101840008B8182838C8183838D8190E0F601EE0F02
:10185000FF1FE05CFB4F982F88272E81820F911D80
:101860009183808380E8F601E85CFB4F8083F6017A
:10187000EE0FFF1FE05CFB4FE080F180AE14BF0471
:1018800008F47501A701B401832D7ED30AC0B70106
:10189000832D01D4F601EE0FFF1FE05CFB4FF182B8
:1018A000E08248019394092C000CAA08BB0840E48C
:1018B000C501B401B7D0C501B4014DD08111FBCF32
:1018C000F601EE0FFF1FE05CFB4F808191818E19C6
:1018D0009F0991838083892B39F0F601E85CFB4FE7
:1018E00080818160808304C0F601E85CFB4F108238
:1018F000B70180E090E016C06FEF7FEFCB0112C020
:101900006BEF7FEF8FEF9FEF0DC062EF7FEF8FEFF9
:101910009FEF08C06CEF7FEF8FEF9FEF03C060E099
:1019200070E0CB012C960FB6F894DEBF0FBECDBF92
:10193000DF91CF911F910F91FF90EF90DF90CF90AB
:10194000BF90AF909F908F907F906F905F904F90DF
:101950003F902F900895DF92EF92FF920F931F9385
:10196000CF93DF9300D0CDB7DEB7F62EE72ED82E7B
:1019700006E012E0D8011896ED91FC91199719959F
:10198000D8011C96ED91FC911D971995F801848959
:101990009589892B31F0E0911C02F0911D0230975E
:1019A000C1F406E012E0D8015296ED91FC915397F4
:1019B0008D2D1995D8015296ED91FC9153978E2D4E
:1019C0001995D8015296ED91FC9153978F2D199549
:1019D00008C0D982EA82FB8263E070E0CE01019602
:1019E000199506E012E0D8015096ED91FC915197BF
:1019F0001995F82ED8011E96ED91FC911F97199517
:101A0000D8011A96ED91FC911B9719958F2D0F9087
:101A10000F900F90DF91CF911F910F91FF90EF905A
:101A2000DF9008954F925F926F927F92BF92CF9214
:101A3000DF92EF92FF920F931F93CF93DF9300D02B
:101A40001F92CDB7DEB76B017C01B42E06E012E029
:101A5000D8011896ED91FC9119971995D8011C960B
:101A6000ED91FC911D97199526013701689442F874
:101A7000D8015696ED91FC9157973097E1F4529624
:101A8000ED91FC9153978E2D1995D8015296ED91B9
:101A9000FC9153978D2D1995D8015296ED91FC919B
:101AA0005397842D1995D8015296ED91FC91539737
:101AB0008B2D199509C0E982DA824B82BC8264E0E1
:101AC00070E0CE010196199506E012E0D8011E964D
:101AD000ED91FC911F971995D8011A96ED91FC9103
:101AE0001B9719950F900F900F900F90DF91CF914A
:101AF0001F910F91FF90EF90DF90CF90BF907F905C
:101B00006F905F904F9008959F92AF92BF92CF9247
:101B1000DF92EF92FF920F931F93CF93DF9300D04A
:101B2000CDB7DEB7F62EE72E982E5A01690106E0F2
:101B300012E0D8011896ED91FC9119971995D801EA
:101B40001C96ED91FC911D971995F8018489958952
:101B5000892B31F0E0911C02F0911D02309751F574
:101B600006E012E0D8015296ED91FC915397892D31
:101B70001995D8015296ED91FC9153978E2D199598
:101B8000D8015296ED91FC9153978F2D199500E055
:101B900010E00CC07501E00EF11EE0911602F0910C
:101BA00017021995F70180830F5F1F4F0C151D0554
:101BB00088F30FC09982EA82FB8263E070E0CE0175
:101BC00001961995E0911A02F0911B02B601C50128
:101BD000199506E012E0D8011E96ED91FC911F9731
:101BE0001995D8011A96ED91FC911B9719950F90B4
:101BF0000F900F90DF91CF911F910F91FF90EF9079
:101C0000DF90CF90BF90AF909F9008954F925F92DA
:101C10006F927F928F929F92AF92BF92CF92DF92FC
:101C2000EF92FF920F931F93CF93DF9300D0CDB726
:101C3000DEB76B017C014A01590106E012E0D801D0
:101C40001896ED91FC9119971995D8011C96ED9174
:101C5000FC911D97199526013701689442F8D80127
:101C60005696ED91FC915797309731F55296ED913C
:101C7000FC9153978E2D1995D8015296ED91FC91B8
:101C800053978D2D1995D8015296ED91FC9153974C
:101C9000842D199500E010E00BC0E0911802F0913E
:101CA0001902D401A00FB11F8C9119950F5F1F4F1E
:101CB0000A151B0590F30FC0E982DA824B8263E0BC
:101CC00070E0CE0101961995E0911C02F0911D0281
:101CD000B501C401199506E012E0D8011E96ED91F8
:101CE000FC911F971995D8011A96ED91FC911B97BD
:101CF00019950F900F900F90DF91CF911F910F9139
:101D0000FF90EF90DF90CF90BF90AF909F908F901B
:101D10007F906F905F904F9008957F928F929F92E7
:101D2000AF92BF92CF92DF92EF92FF920F931F93E9
:101D3000CF93DF93782E00E010E0C72CD12CCC0C91
:101D4000DD1CCC0CDD1C8FEFC81AD80ACC0CDD1CB6
:101D5000CC0CDD1CCC0CDD1C460180EE981A092C45
:101D6000000CAA08BB08C501B401F5DDC82FD0E0FE
:101D7000DC2FCC278FEDD81A0D2C000CEE08FF08B5
:101D8000C701B601E8DDC80FD11D209761F0C5017C
:101D9000B401E1DD082F10E0102F0027C701B601C4
:101DA000DADD080F111D0C171D0739F6C801DF9188
:101DB000CF911F910F91FF90EF90DF90CF90BF9048
:101DC000AF909F908F907F9008957F928F929F9277
:101DD000AF92BF92CF92DF92EF92FF920F931F9339
:101DE000CF93DF93782E00E010E0C72CD12CCC0CE1
:101DF000DD1CCC0CDD1C8FEFC81AD80ACC0CDD1C06
:101E0000CC0CDD1CCC0CDD1C46018AED981A092C8B
:101E1000000CAA08BB08C501B4019DDDC82FD0E0A5
:101E2000DC2FCC2789EDD81A0D2C000CEE08FF080A
:101E3000C701B60190DDC80FD11D209761F0C50123
:101E4000B40189DD082F10E0102F0027C701B6016B
:101E500082DD080F111D0C171D0739F6C801DF912F
:101E6000CF911F910F91FF90EF90DF90CF90BF9097
:101E7000AF909F908F907F9008952F923F924F92B6
:101E80005F926F927F928F929F92AF92BF92CF920A
:101E9000DF92EF92FF920F931F93CF93DF9300D0C7
:101EA0001F92CDB7DEB74115510509F456C03A016E
:101EB0007A836983282E312C220C331C220C331C8C
:101EC00061012FEFC21AD20ACC0CDD1CCC0CDD1C38
:101ED000CC0CDD1C46013CED931A092C000CAA0821
:101EE000BB08C501B40137DD082F10E0102F002713
:101EF0008BEDD81A0D2C000CEE08FF08C701B601B7
:101F00002ADD080F111DC801A0E0B0E04427582FBA
:101F1000692F7A2FC10102961C01220C331C220C5E
:101F2000331C220C331CC101330CAA0BBB0B1A014E
:101F30002B01280E391E4A1E5B1EC201B1019301FE
:101F400049815A8163DE060D171D412FC501B40179
:101F500069DD402FC701B60165DD0F900F900F902E
:101F60000F90DF91CF911F910F91FF90EF90DF9035
:101F7000CF90BF90AF909F908F907F906F905F9029
:101F80004F903F902F9008952F923F924F925F92E3
:101F90006F927F928F929F92AF92BF92CF92DF9279
:101FA000EF92FF920F931F93CF93DF9300D01F9276
:101FB000CDB7DEB74115510509F456C03A017A8311
:101FC0006983282E312C220C331C220C331C610116
:101FD0002FEFC21AD20ACC0CDD1CCC0CDD1CCC0CB1
:101FE000DD1C460138ED931A092C000CAA08BB0829
:101FF000C501B401B0DC082F10E0102F002787EDD9
:10200000D81A0D2C000CEE08FF08C701B601A3DC9E
:10201000080F111DC801A0E0B0E04427582F692F18
:102020007A2FC10103961C01220C331C220C331C95
:10203000220C331CC101330CAA0BBB0B1A012B0160
:10204000280E391E4A1E5B1EC201B101930149814F
:102050005A815ADD060D171D412FC501B401E2DC7E
:10206000402FC701B601DEDC0F900F900F900F904C
:10207000DF91CF911F910F91FF90EF90DF90CF9064
:10208000BF90AF909F908F907F906F905F904F9098
:102090003F902F9008958F929F92AF92BF92CF92D0
:1020A000DF92EF92FF920F931F93CF93DF93EB0199
:1020B000C82ED12CCC0CDD1CCC0CDD1C8FEFC81A2B
:1020C000D80ACC0CDD1CCC0CDD1CCC0CDD1C460174
:1020D00088ED981A092C000CAA08BB08C501B401A8
:1020E0003ADC082F10E0102F002787EDD81A0D2CAE
:1020F000000CEE08FF08C701B6012DDC080F111D0A
:10210000C00FD11F4D2FC501B4018CDC4C2FC7016E
:10211000B60188DCDF91CF911F910F91FF90EF9076
:10212000DF90CF90BF90AF909F908F9008950895CB
:10213000089508950895FB0180810895FB0140836F
:10214000089580E00895089508950895009719F07E
:102150006115710559F4E6E0F2E089E990E19587AF
:1021600084878AE990E1978786870895E6E0F2E020
:102170009587848777876687089520910602309136
:10218000070231FFFACF009719F06115710559F474
:10219000E6E0F2E081EA90E1918B808B83EA90E1C6
:1021A000938B828B0895E6E0F2E0918B808B738BAA
:1021B000628B0895209106023091070231FFFACF19
:1021C000009719F06115710559F4E6E0F2E084EA30
:1021D00090E1958B848B85EA90E1978B868B0895AF
:1021E000E6E0F2E0958B848B778B668B0895CF9336
:1021F000DF93CDB7DEB762970FB6F894DEBF0FBEA0
:10220000CDBF26E030E0AE01435F5F4F60E079E094
:1022100080E090E079DC24E030E0AE014F5F5F4F7A
:1022200060E071E080E090E06FDC24E030E0AE013F
:102230004B5F5F4F60E075E080E090E065DC24E09C
:1022400030E0AE01475F5F4F60E07FE080E090E00C
:102250005BDC40E860E070E0CB01E4DB60E070E074
:10226000CB0179DB26E030E0AE01435F5F4F60E0F9
:1022700079E080E090E0CADC24E030E0AE014F5F1E
:102280005F4F60E071E080E090E0C0DC24E030E08F
:10229000AE014B5F5F4F60E075E080E090E0B6DC40
:1022A00024E030E0AE01475F5F4F60E07FE080E018
:1022B00090E0ACDC62960FB6F894DEBF0FBECDBFE7
:1022C000DF91CF910895FF920F931F93CF93DF93E8
:1022D000EC018B018CDF209769F430C0FE01E80F20
:1022E000F11D87FDFA952081920F91310CF05BC0B2
:1022F0008F5F02C090E080E0883084F3F12C1BC037
:102300006F2D0F2C000C770BFE01E60FF71F660FE9
:10231000771F660F771F6F5F7F4F660F771F660F00
:10232000771F660F771F715E072E000C880B990BC5
:10233000408178DBF39487E08F1514F701151105C0
:1023400069F480E033C0F801E80FF11D87FDFA95CC
:102350002081920F91314CF58F5F02C090E080E0B8
:1023600088308CF3C0E01BC06C2F0C2E000C770B58
:10237000F801E60FF71F660F771F660F771F6F5F75
:102380007F4F660F771F660F771F660F771F725E8E
:10239000072E000C880B990B408144DBCF5FC830BF
:1023A0001CF380E003C08FEF01C08FEFDF91CF916E
:1023B0001F910F91FF900895CF93C92F482F407F11
:1023C00060E075E180E090E02DDB4C2F60E077E18C
:1023D00080E090E027DBCF910895CF9360E075E136
:1023E00080E090E0B8DAC82FC07F60E077E180E05D
:1023F00090E0B1DA90E0982F88278C0F911DCF9153
:102400000895CF93C92F482F60E076E180E090E0F7
:1024100009DB4C2F60E078E180E090E003DBCF91B6
:102420000895CF9360E076E180E090E094DAC82FE1
:1024300060E078E180E090E08EDA90E0982F8827E5
:102440008C0F911DCF91089560E07EE280E090E0D6
:1024500082DA80FD02C080E0089581E0089560E0A6
:102460007EE280E090E077DA8873803311F481E0D7
:10247000089580E0089560E07EE280E090E06BDA0D
:10248000482F4F7760E07EE280E090E0CBDA60E0BA
:102490007EE280E090E05FDA482F406860E07EE214
:1024A00080E090E0BFCA0895FC018081813011F482
:1024B00040E401C040E08181813011F448630EC0E6
:1024C0008381813039F48281813011F4486106C002
:1024D000486004C08281813009F4406160E07EE29E
:1024E00080E090E09FDAC7CF0895CF93DF93EC01AF
:1024F00060E07EE280E090E02EDA86FB992790F99A
:1025000098838873803211F0883319F491E09983AD
:1025100001C01982883121F0803211F0803119F424
:1025200091E09A8301C01A82883121F0803211F043
:10253000883019F481E08B8301C01B82DF91CF9139
:102540000895CF93C82F60E07EE280E090E003DA48
:1025500086FF1DC0877CC13019F4482F406302C03C
:10256000482F486360E07EE280E090E05BDA83DF42
:1025700060E07EE280E090E0EED9C13021F480732B
:1025800041F48FEF09C0887331F48FEF05C08FEFEE
:1025900003C080E001C080E0CF9108950F931F93A6
:1025A000CF93DF9300E010E0980190E08031910537
:1025B00038F4EB01FC018827E656FF4F8F4FC8C364
:1025C0008FEF71C014DE80E06EC0CD2B21F08B0147
:1025D0009B01285F3F4FB901C80175DE64C0888147
:1025E0009981EADE80E05FC0F8DE9983888380E02D
:1025F0005AC08881998105DF80E055C012DF998338
:10260000888380E050C0498160E073E180E090E021
:1026100009DA488160E074E180E090E003DA80E06C
:1026200042C060E073E180E090E095D9082F10E0AF
:10263000102F002760E074E180E090E08CD9080F53
:10264000111D1983088380E02EC0E6E0F2E082814C
:1026500088838381898384818A8385818B83868132
:102660008C831D8280E01FC006DF80E01CC0CB0190
:102670001BDF80E018C0CB0138DF80E014C0888108
:1026800060DF11C0ECDE8F3F59F0888380E00BC023
:10269000DBDE8F3F39F0888380E005C080E003C037
:1026A0008FEF01C08FEFDF91CF911F910F910895B0
:1026B000CF93DF93EC0126E030E0AC0160E079E0FD
:1026C00080E090E0A3DAAE01425F5F4F24E030E0AB
:1026D00060E071E080E090E099DAAE01465F5F4F24
:1026E00024E030E060E075E080E090E08FDAAE0159
:1026F0004A5F5F4F24E030E060E07FE080E090E000
:1027000085DA8A89E5E5F4E080838B8981838C8989
:1027100082838D8983838E8980935404DF91CF9146
:102720000895CF93DF93EC0126E030E0AC0160E048
:1027300079E080E090E0E8D9AE01425F5F4F24E0AD
:1027400030E060E071E080E090E0DED9AE01465F0D
:102750005F4F24E030E060E075E080E090E0D4D9A5
:10276000AE014A5F5F4F24E030E060E07FE080E050
:1027700090E0CAD9E5E5F4E080818A8B81818B8B7A
:1027800082818C8B83818D8B809154048E8BDF9121
:10279000CF910895CF93DF931F921F92CDB7DEB7ED
:1027A0008091ED069091EE06009711F09C0102C019
:1027B00028EF36E0CE010196821B930B0F900F900D
:1027C000DF91CF9108958BB18F7E8BB908958BB136
:1027D00080618BB908951EBC0DB407FEFDCF8EB588
:1027E00008958EBD0DB407FEFDCF0895FC0120E0D5
:1027F00030E009C01EBC0DB407FEFDCF8EB580834E
:102800002F5F3F4F319626173707A0F30895FC013D
:1028100020E030E00AC0CF01019640814EBD0DB4EA
:1028200007FEFDCF2F5F3F4FFC012617370798F3B8
:1028300008951F920F920FB60F9211248F939F93BA
:10284000AF93BF938091E9059091EA05A091EB05C4
:10285000B091EC050196A11DB11D8093E9059093FF
:10286000EA05A093EB05B093EC05BF91AF919F9162
:102870008F910F900FBE0F901F901895CF93DF93FD
:10288000CDB7DEB728970FB6F894DEBF0FBECDBF29
:1028900088E0E7E4F2E0DE01119601900D928A955E
:1028A000E1F767EE73E183EE93E150DC61EF73E1F2
:1028B0008BEE93E162DC67E074E186EF93E17ADC12
:1028C000BE016F5F7F4FCB01FEDC8CE292E0F0DE59
:1028D00028960FB6F894DEBF0FBECDBFDF91CF9123
:1028E0000895EF92FF920F931F93FB01A3817281D2
:1028F00061815081442319F081E993E002C089E9A4
:1029000093E0FF92EF921F930F933F932F931F92A9
:10291000AF931F927F931F926F931F925F939F932A
:102920008F9383E192E09F938F934FD28DB79EB7A1
:1029300042960FB6F8949EBF0FBE8DBF1F910F91A8
:10294000FF90EF900895F89414BC15BCEEE6F0E00B
:10295000108282E084BD83E085BD89EF87BD8081E0
:10296000826080837894089599E288E10FB6F894A4
:10297000A895809360000FBE90936000A895E3DF58
:1029800080E096E9A8D18EE192E09093F4068093DE
:10299000F306789408950F931F93CF93DF93CDB7E9
:1029A000DEB76D970FB6F894DEBF0FBECDBF8E01B8
:1029B0000F5F1F4F86E0F80111928A95E9F7B80181
:1029C00088E0ECDD89EA91E09F938F93FED11F931D
:1029D0000F9384E991E09F938F93F7D18AE691E07A
:1029E0009F938F93F2D1CE0107969BDE8D8D0FB60C
:1029F000F894DEBF0FBECDBF813041F48EE591E08B
:102A00009F938F93E2D10F900F9007C084E591E0E0
:102A10009F938F93DAD10F900F905C854B853A8509
:102A2000298598858F811F925F931F924F931F92E4
:102A30003F931F922F931F929F931F928F938FE923
:102A400093E09F938F93AED138892F859E858D8596
:102A50001F923F931F922F931F929F931F928F93CA
:102A60008CEC93E09F938F939DD13C892B899A891D
:102A700089891F923F931F922F931F929F931F92BA
:102A80008F9387EE93E09F938F938CD1388D2F890E
:102A90009E898D890FB6F894DEBF0FBECDBF1F9201
:102AA0003F931F922F931F929F931F928F9382E0C9
:102AB00094E09F938F9376D13C8D2B8D9A8D898D49
:102AC0001F923F931F922F931F929F931F928F935A
:102AD0008DE194E09F938F9365D10FB6F894DEBF9C
:102AE0000FBECDBF6D960FB6F894DEBF0FBECDBF43
:102AF000DF91CF911F910F91089536DFD9D04ADE33
:102B00009F938F9388EF91E09F938F935ED10F9067
:102B10000F900F900F9083E01AC085B18F7E85B91A
:102B20002FEF30E782E0215030408040E1F700C0D5
:102B3000000085B1806185B92FEF33EC89E0215029
:102B400030408040E1F700C00000A895892F9FEF3A
:102B5000980F8111E2CF92DE1EDFF8944090E905D4
:102B60005090EA056090EB057090EC057894F8942D
:102B70008090E9059090EA05A090EB05B090EC05F7
:102B80007894F894C090E905D090EA05E090EB05C0
:102B9000F090EC057894A89548E853E16DEE75E067
:102BA00080E00E94570148EB5BE06DEE75E081E04C
:102BB0000E94A00282E00E940805F8948091E90535
:102BC0009091EA05A091EB05B091EC0578948819F5
:102BD0009909AA09BB0981319742A105B105B0F055
:102BE000F8948090E9059090EA05A090EB05B090EC
:102BF000EC05789486EE91E09F938F93E6D063E4A2
:102C000072E082E00E94C9030F900F90F8948091C7
:102C1000E9059091EA05A091EB05B091EC05789457
:102C20008C199D09AE09BF0989399A43A105B105DF
:102C3000B0F0F894C090E905D090EA05E090EB057B
:102C4000F090EC05789485ED91E09F938F93BDD043
:102C50006EE372E082E00E94C9030F900F90F89437
:102C60008091E9059091EA05A091EB05B091EC0502
:102C7000789484199509A609B709893E9340A1055E
:102C8000B10508F488CFF8944090E9055090EA0522
:102C90006090EB057090EC057894D6DB813021F4E0
:102CA00085B18F7E85B977CF85B1806185B973CFC6
:102CB0008AB180618AB98BB180618BB984B1866039
:102CC00084B985B1866085B98AB180648AB980E5A6
:102CD0008CBD1DBC08959C0140E050E060E271EAAB
:102CE00087E090E019D021501092CD002093CC00C5
:102CF000E9ECF0E088E1808386E08093CA0080817F
:102D00008068808308959091C80095FFFCCF8093E0
:102D1000CE0080E090E00895052E97FB16F4009415
:102D20000FD057FD05D01CD007FC02D046F408C0D8
:102D300050954095309521953F4F4F4F5F4F0895E7
:102D400090958095709561957F4F8F4F9F4F089517
:102D5000EE0FFF1F881F8BBF0790F691E02D19948F
:102D6000A1E21A2EAA1BBB1BFD010DC0AA1FBB1F8F
:102D7000EE1FFF1FA217B307E407F50720F0A21B01
:102D8000B30BE40BF50B661F771F881F991F1A946E
:102D900069F760957095809590959B01AC01BD0198
:102DA000CF010895CF93DF93CDB7DEB7AE014A5F71
:102DB0005F4FFA0161917191AF018091F30690919B
:102DC000F4062AD0DF91CF9108950F931F93CF93EC
:102DD000DF93CDB7DEB7AE01485F5F4FDA016D918B
:102DE0007D91AD0101EF16E0F80182819381DC0154
:102DF00013962C911397286013962C930DD0D8011D
:102E00001296ED91FC9113972381277F2383DF9105
:102E1000CF911F910F9108952F923F924F925F9201
:102E20006F927F928F929F92AF92BF92CF92DF92DA
:102E3000EF92FF920F931F93CF93DF93CDB7DEB73F
:102E40002B970FB6F894DEBF0FBECDBF6C017B0190
:102E50008A01FC0117821682838181FFBFC1CE01E6
:102E600001963C01F6019381F70193FD859193FF53
:102E700081917F01882309F4ADC1853239F493FD36
:102E8000859193FF81917F01853221F4B60190E015
:102E9000D6D1E8CF912C212C312CFFE1F315D8F0BD
:102EA0008B3279F038F4803279F08332A1F4232D1B
:102EB00020611DC08D3261F0803369F4232D2160C3
:102EC00016C0832D8260382EE32DE4603E2E2AC08A
:102ED000F32DF8601DC037FC2DC020ED280F2A30DF
:102EE00040F08E32B9F436FC75C1232D2064322EA9
:102EF00019C036FE06C08AE0989E200D1124922E3D
:102F000011C0EAE02E9E200D1124222EF32DF06236
:102F10003F2E08C08C3621F4832D8068382E02C0E5
:102F2000883641F4F70193FD859193FF81917F01EC
:102F30008111B3CF982F9F7D9554933028F40C5F67
:102F40001F4F9FE399830DC0833631F0833771F0B3
:102F5000833509F055C020C0F801808189830E5F58
:102F60001F4F88248394912C530112C02801F2E052
:102F70004F0E511CF801A080B18036FE03C0692DB0
:102F800070E002C06FEF7FEFC5014ED14C018201AE
:102F9000F32DFF773F2E15C0280122E0420E511C71
:102FA000F801A080B18036FE03C0692D70E002C038
:102FB0006FEF7FEFC5012DD14C01F32DF0683F2E4F
:102FC000820133FC19C0822D90E088169906A0F486
:102FD000B60180E290E033D12A94F5CFF50137FCB9
:102FE000859137FE81915F01B60190E028D12110D3
:102FF0002A9421E0821A91088114910479F7E1C0A2
:10300000843611F0893639F5F80137FE07C0608142
:103010007181828193810C5F1F4F08C06081718133
:10302000072E000C880B990B0E5F1F4FF32DFF76B8
:103030003F2E97FF09C090958095709561957F4FC1
:103040008F4F9F4FF0683F2E2AE030E0A30133D12D
:10305000882E861844C0853731F4232D2F7EB22E5A
:103060002AE030E025C0932D997FB92E8F36C1F02C
:1030700018F4883579F0AEC0803719F0883721F020
:10308000A9C0E92FE061BE2EB4FE0DC0FB2DF46097
:10309000BF2E09C034FE0AC0292F2660B22E06C0FA
:1030A00028E030E005C020E130E002C020E132E05D
:1030B000F801B7FE07C060817181828193810C5F46
:1030C0001F4F06C06081718180E090E00E5F1F4F4E
:1030D000A301F1D0882E8618FB2DFF773F2E36FEF8
:1030E0000DC0232D2E7FA22E891458F434FE0BC060
:1030F00032FC09C0832D8E7EA82E05C0B82CA32CCF
:1031000003C0B82C01C0B92CA4FE0FC0FE01E80D0D
:10311000F11D8081803321F49A2D997EA92E09C05A
:10312000A2FE06C0B394B39404C08A2D867809F039
:10313000B394A3FC10C0A0FE06C0B21480F4280C07
:10314000922C9B180DC0B21458F4B60180E290E0A6
:1031500076D0B394F8CFB21418F42B1802C0982C80
:10316000212CA4FE0FC0B60180E390E068D0A2FE3F
:1031700016C0A1FC03C088E790E002C088E590E09B
:10318000B6010CC08A2D867851F0A1FE02C08BE2F8
:1031900001C080E2A7FC8DE2B60190E050D0891416
:1031A00030F4B60180E390E04AD09A94F8CF8A9444
:1031B000F301E80DF11D8081B60190E040D081104F
:1031C000F6CF222009F44ECEB60180E290E037D04F
:1031D0002A94F7CFF6018681978102C08FEF9FEF87
:1031E0002B960FB6F894DEBF0FBECDBFDF91CF9107
:1031F0001F910F91FF90EF90DF90CF90BF90AF9015
:103200009F908F907F906F905F904F903F902F9006
:103210000895FC010590615070400110D8F7809529
:1032200090958E0F9F1F0895FC0161507040019092
:103230000110D8F7809590958E0F9F1F08950F93DA
:103240001F93CF93DF93FB01238121FD03C08FEFF9
:103250009FEF2CC022FF16C0468157812481358103
:103260004217530744F4A081B1819D012F5F3F4F66
:10327000318320838C93268137812F5F3F4F3783A3
:10328000268314C08B01EC01FB010084F185E02D45
:103290001995892BE1F6D80116968D919C91179777
:1032A000019617969C938E931697CE01DF91CF913E
:1032B0001F910F910895FA01AA27283051F120316A
:1032C00081F1E8946F936E7F6E5F7F4F8F4F9F4FBA
:1032D000AF4FB1E03ED0B4E03CD0670F781F891FFC
:1032E0009A1FA11D680F791F8A1F911DA11D6A0FCA
:1032F000711D811D911DA11D20D009F468943F917D
:103300002AE0269F11243019305D3193DEF6CF017B
:103310000895462F4770405D4193B3E00FD0C9F741
:10332000F6CF462F4F70405D4A3318F0495D31FDAE
:103330004052419302D0A9F7EACFB4E0A695979501
:10334000879577956795BA95C9F7009761057105D7
:1033500008959B01AC010A2E069457954795379521
:103360002795BA95C9F7620F731F841F951FA01D7B
:063370000895F894FFCF60
:103376002143341200C00102573535303000971012
:10338600981099109A109B109E10000000000000E3
:103396000003000000008316000000000008DCABFC
:1033A600CDEFC0A835C7FFFFFF00C0A8350108084C
:1033B600080801C0A8356D020202020202020225B7
:1033C600643A436F6E6E6563746564202D202564D0
:1033D6002E25642E25642E2564203A2025640D0AA8
:1033E6000025643A536F636B657420436C6F736595
:1033F600640D0A0025643A4C697374656E2C20547A
:10340600435020736572766572206C6F6F706261CF
:10341600636B2C20706F7274205B25645D0D0A004F
:1034260025643A436F6E6E656374656420746F201D
:103436002D2025642E25642E25642E2564203A2011
:1034460025640D0A0025643A54727920746F20634E
:103456006F6E6E65637420746F20746865202564D2
:103466002E25642E25642E2564203A2025640D0A17
:103476000025643A207265637666726F6D20657208
:10348600726F722E20256C640D0A0025643A207333
:10349600656E64746F206572726F722E20256C647F
:1034A6000D0A0025643A4F70656E65642C205544FC
:1034B60050206C6F6F706261636B2C20706F72743A
:1034C600205B25645D0D0A000D0A20736F636B6532
:1034D60074202564206661696C20720A0025643AAE
:1034E6004F70656E65642C204950524157206D6FB0
:1034F6006465202849434D502070696E67290D0A7E
:103506000052657175657374005265706C79004D73
:10351600616320616464726573733A202530327882
:103526003A253032783A253032783A253032783AB0
:10353600253032783A253032780A0D00495020611C
:10354600646472657373203A2025642E25642E25E3
:10355600642E25640A0D00534D204D61736B0920BE
:1035660020203A2025642E25642E25642E25640A03
:103576000D0047617465207761792020203A202567
:10358600642E25642E25642E25640A0D00444E53B0
:1035960020536572766572203A2025642E25642EA6
:0835A60025642E25640A0D00C6
:00000001FF
