S013000050726F6A6563745F4C574D2E73726563EB
S113000025C1000053C1000051C100004FC10000D0
S11300104DC100004BC1000049C1000047C10000B0
S113002045C1000043C1000041C100003FC10000C0
S11300303DC100000C946E1739C1000037C10000A7
S113004035C1000033C1000031C100002FC10000E0
S11300502DC100000C94CD1429C1000027C100005B
S113006025C1000023C1000021C100001FC1000000
S11300701DC100001BC1000019C1000017C1000010
S113008015C1000013C1000011C100000FC1000020
S11300900C94E6170C94CA1709C1000007C10000AC
S11300A005C1000003C100000C945D17FFC00000EF
S11300B0FDC00000FBC00000F9C00000F7C0000054
S11300C0F5C00000F3C00000F1C00000EFC0000064
S11300D0EDC00000EBC00000E9C00000E7C0000074
S11300E0E5C00000E3C00000E1C00000DFC0000084
S11300F0DDC00000DBC00000D9C00000D7C0000094
S1130100D5C00000D3C00000D1C00000CFC00000A3
S1130110CDC00000CBC00000C9C00000C7C00000B3
S1130120C5C00000C3C00000C1C00000BFC00000C3
S1130130BDC00000E312E612F512F012FA12FF122B
S1130140041312132613351338133C134F1340139F
S113015043134913444843502049500D0A00535453
S1130160415449432049500D0A003D3D3D3D3D3D2C
S11301703D3D3D3D3D3D3D3D3D3D3D3D3D3D3D3DAB
S11301803D3D3D3D3D3D3D3D3D3D3D3D3D3D3D3D9B
S11301903D0D0A002057495A6E65742063686970E2
S11301A03A20202573200D0A000D0A3D3D3D3D3DBA
S11301B03D3D3D3D3D3D3D3D3D3D3D3D3D3D3D3D6B
S11301C03D3D3D3D3D3D3D3D3D3D3D3D3D3D3D3D5B
S11301D03D3D0D0A000D0A3E3E3E2050494E47204B
S11301E0444E530D0A000D0A3E3E2050494E47200E
S11301F06D792050430D0A003E3E2046726565200D
S113020052414D2069733A202564206279746573E4
S11302100D0A003C3C2050494E472025732066724D
S11302206F6D2025642E25642E25642E25642049B7
S1130230443A2578205365713A25782064617461C5
S11302403A25752062797465730D0A0011241FBE66
S1130250CFEFD1E8DEBFCDBF00E00CBF84B7809301
S11302607B1B14BE0FB6F894A8958091600088613A
S113027080936000109260000FBE14E0A0E0B2E032
S1130280E6EFFCE400E00BBF02C007900D92A0343F
S1130290B107D9F72BE1A0E4B4E001C01D92AB375C
S11302A0B207E1F70E943D160C947926A9CE4F922D
S11302B05F926F927F92AF92BF92DF92EF92FF9222
S11302C00F931F93CF93DF9300D01F92CDB7DEB768
S11302D0D82E7B01A42EB52E082F10E0000F111F7D
S11302E0000F111F0F5F1F4F000F111F000F111F71
S11302F0000F111FB8017D5F072E000C880B990BAE
S11303000E94AB0C833109F4B0C020F4882309F4B3
S1130310CDC0E5C0873121F08C3109F488C0DFC03D
S113032028012EEF521A052C000C66087708C30129
S1130330B2010E94AB0C80FF43C0B801745F072E6A
S1130340000C880B990B24E030E0AE014F5F5F4F47
S11303500E94840DB801705F072E000C880B990B66
S11303600E94AB0CA82EB12CBA2CAA24B8017F5E33
S1130370072E000C880B990B0E94AB0CA80EB11C25
S11303803C812B819A818981BF92AF921F923F93C6
S11303901F922F931F929F931F928F931F92DF920E
S11303A083E592E09F938F930E94732341E0C301FE
S11303B0B2010E94120D0FB6F894DEBF0FBECDBF7E
S11303C08D2D0E94E50E009709F48EC0813028E03F
S11303D0920710F080E098E0AC01B7018D2DF0D6C3
S11303E016161706180619060CF083C05B0100E008
S11303F010E015C0A501401B510BB701600F711F20
S11304008D2DCBD52B013C0199233CF48D2D8AD322
S1130410442D352D262D972D7EC0060F171F0A1546
S11304201B0541F741E030E020E090E074C08D2DE1
S113043040D5082E000C990BAA0BBB0B81309105FB
S1130440A105B10509F059C01F92DF9285E792E03A
S11304509F938F930E9473230F900F900F900F9090
S113046041E030E020E090E056C0BF92AF921F928E
S1130470DF9288E892E09F938F930E9473238D2DDF
S1130480BED4082E000C990BAA0BBB0B0F900F9037
S11304900F900F900F900F9081309105A105B10539
S11304A089F1482F392F2A2F9B2F35C020E04A2D60
S11304B05B2D61E08D2DA6D3082E000C990BAA0BA1
S11304C0BB0B4D2D50E060E070E084179507A60744
S11304D0B707E9F0482F392F2A2F9B2F1CC041E082
S11304E030E020E090E017C041E030E020E090E010
S11304F012C0462F372F282F0EC0482F392F2A2FEE
S11305009B2F09C041E030E020E090E004C041E0CE
S113051030E020E090E0642F732F822F0F900F9033
S11305200F900F90DF91CF911F910F91FF90EF905B
S1130530DF90BF90AF907F906F905F904F90089541
S11305404F925F926F927F928F929F92AF92BF92DF
S1130550DF92EF92FF920F931F93CF93DF9300D01C
S113056000D0CDB7DEB7D82E7B01142F052F682F0E
S113057070E0660F771F660F771F6F5F7F4F660F00
S1130580771F660F771F660F771F7D5F072E000C9E
S1130590880B990B0E94AB0C882309F46AC0823241
S11305A009F090C08D2D0E94E50E009709F48FC0CC
S11305B0813028E0920710F080E098E08E010B5F14
S11305C01F4F9E012F5F3F4FAC01B7018D2DE5D723
S11305D04B015C011616170618061906B4F0BF92F3
S11305E0AF929F926F931F92DF9285E093E09F9367
S11305F08F930E9473230FB6F894DEBF0FBECDBF56
S1130600382D292D8A2D9B2D6BC0A12CB12C29C0EE
S11306100D811E819E012F5F3F4FA4014A195B0982
S1130620B7016A0D7B1D8D2D8AD62B013C019923C0
S1130630B4F47F926F925F926F931F92DF928FE177
S113064093E09F938F930E9473230FB6F894DEBFB9
S11306500FBECDBF342D252D862D972D41C0A60E5E
S1130660B71EA814B904A1F631E020E080E090E0C0
S113067037C020E0412F502F62E08D2DC3D2482F88
S1130680880F550B660B770B8D2D90E0A0E0B0E042
S1130690481759076A077B07F9F40F931F931F92B2
S11306A0DF9287E393E09F938F930E9473230F90CD
S11306B00F900F900F900F900F9031E020E080E0AA
S11306C090E00EC031E020E080E090E009C031E02D
S11306D020E080E090E004C0342F252F862F972F50
S11306E0632F722F26960FB6F894DEBF0FBECDBFD0
S11306F0DF91CF911F910F91FF90EF90DF90BF900A
S1130700AF909F908F907F906F905F904F900895DF
S1130710CF92DF92EF92FF92DB01B695A795C12CA1
S1130720D12C760140E050E012C0FA01EE0FFF1F19
S1130730E80FF91F208130E0322F2227E1812E0FAC
S1130740311DC20ED31EE11CF11C4F5F5F4F4A17CF
S11307505B0758F360FF0DC0440F551FFC01E40F05
S1130760F51F808190E0982F8827C80ED91EE11CC0
S1130770F11CC701AA27BB278C0D9D1D8095909560
S1130780FF90EF90DF90CF900895982789279827BE
S11307900895DF92EF92FF920F931F93CF93DF930D
S11307A0D82E7B01C4EBD8E188E08883198280913C
S11307B00602909107029C012F5F3F4F309307027E
S11307C020930602E2DF9D838C8380910402909142
S11307D005029C012F5F3F4F3093050220930402D2
S11307E0D4DF9F838E8380E090E007C0FC01EC544B
S11307F0F74E282F27702087019680329105B0F399
S1130800C4EBD8E11B821A8268E270E0CE0180DF7B
S1130810BCDF9B838A8308EB1BE0970148E250E02E
S1130820BE018D2D8CD580E0DF91CF911F910F916A
S1130830FF90EF90DF900895AF92BF92DF92EF9216
S1130840FF920F931F93CF93DF93D82E5B017A010E
S1130850CCEFD8E118821B821A82BA01CE0158DF8C
S113086094DF9B838A8308EB1BE09501A701BE01FB
S11308708D2D65D580E0DF91CF911F910F91FF9071
S1130880EF90DF90BF90AF9008954F925F926F9278
S11308907F92BF92CF92DF92EF92FF920F931F93BA
S11308A0CF93DF93CDB7DEB7C258D1090FB6F89412
S11308B0DEBF0FBECDBFB82E6B0188EB9BE0CF57D8
S11308C0DF4F99838883C158D0408E010F571F4F43
S11308D09B01BE016F5F7F4F8B2D5FD62B013C01C7
S11308E0498141113DC0ECEFF8E140838A81818365
S11308F08C8190E0982F88272B81820F911D938300
S113090082832E8130E0322F22278D81280F311DE2
S113091035832483088510E0102F00278F81080F6A
S1130920111D1783068380E090E00EC0FC01389609
S1130930A1E0B0E0AC0FBD1FEA0FFB1F5081FC012A
S1130940E450F74E508701967B01B8E0EB1AF108AA
S11309508E159F0558F3B6018B2D0E94251543C0B3
S1130960483009F040C0ECEFF8E140838A8181838C
S11309708C8190E0982F88272B81820F911D93837F
S113098082832E8130E0322F22278D81280F311D62
S113099035832483088510E0102F00278F81080FEA
S11309A0111D1783068380E090E00EC0FC01389689
S11309B0A1E0B0E0AC0FBD1FEA0FFB1F5081FC01AA
S11309C0E450F74E508701967B01B8E0EB1AF1082A
S11309D08E159F0558F3B6018B2D0E942515A20193
S11309E0B6018B2D29DFCE57DF4F0FB6F894DEBF4B
S11309F00FBECDBFDF91CF911F910F91FF90EF906C
S1130A00DF90CF90BF907F906F905F904F9008954C
S1130A108F929F92BF92CF92DF92EF92FF920F93A9
S1130A201F93CF93DF9300D01F92CDB7DEB7B82EBC
S1130A3019821A821B821C82082F10E0B801660FEB
S1130A40771F660F771F6F5F7F4F4B01880C991CD0
S1130A50880C991C880C991C64018DEFD81A0D2CF4
S1130A60000CEE08FF08C701B60175D7882321F0F2
S1130A70823309F43CC046C08B2D54D0B4017C5E53
S1130A80072E000C880B990B41E0CCD720E048EBF3
S1130A905BE063E08B2DB6D0082E000C990B081791
S1130AA0190769F01F92BF928CE593E09F938F938F
S1130AB00E9473230F900F900F900F9023C0C701D3
S1130AC0B60149D78233D9F78FEC97E00197F1F754
S1130AD000C000001F92BF9281E793E09F938F9321
S1130AE00E9473230F900F900F900F900BC08B2DCB
S1130AF00E94E50E009731F0AC01BE016F5F7F4F9D
S1130B008B2DC3DE0F900F900F900F90DF91CF913C
S1130B101F910F91FF90EF90DF90CF90BF909F9027
S1130B208F900895BF92CF92DF92EF92FF920F932E
S1130B301F93CF93DF93893008F059C0B82E082F44
S1130B4010E0E801CC0FDD1FCC0FDD1F2196CC0F88
S1130B50DD1FCC0FDD1FCC0FDD1F6E01D3940D2CD8
S1130B60000CEE08FF0840E1C701B6015BD7C701DE
S1130B70B601F1D68111FBCFBE017E5F072E000CBA
S1130B80880B990B4FE14ED781E090E002C0880FAB
S1130B90991FBA94E2F78095909520915A04309168
S1130BA05B042823392330935B0420935A04209157
S1130BB058043091590482239323909359048093C9
S1130BC05804F801EE0FFF1FE85BFB4F11821082FF
S1130BD0F801E05CFB4F1082BE017D5F072E000C24
S1130BE0880B990BB8D68111F7CF81E001C08FEF44
S1130BF0DF91CF911F910F91FF90EF90DF90CF90F5
S1130C00BF9008954F925F926F927F92AF92BF927E
S1130C10CF92DF92EF92FF920F931F93CF93DF93C4
S1130C2000D01F92CDB7DEB7F82E562E3A01E22E31
S1130C3028E0281708F4C5C081E0681739F0681760
S1130C4008F4C1C024E02617A8F4BDC024E030E0B5
S1130C50AE014F5F5F4F60E07FE080E090E054D7EB
S1130C6089819A81AB81BC81892B8A2B8B2B11F4CE
S1130C708DEFB2C0E2FCA9C0EE20A9F081E05816C5
S1130C8021F022E0521629F00EC08E2D817259F403
S1130C909EC0E5FE03C0EE200CF09BC0E4FE03C042
S1130CA0EE200CF098C08F2D3DDFCF2CD12C860187
S1130CB0000F111F000F111F0F5F1F4F000F111F97
S1130CC0000F111F000F111F4E2D407F4529B80141
S1130CD0012E000C880B990BA5D66114710491F4B4
S1130CE06090080270900902C30101969093090272
S1130CF080930802409631F480E090EC90930902CE
S1130D0080930802B8017C5F072E000C880B990BB6
S1130D10472D88D6B8017B5F072E000C880B990BF2
S1130D20462D80D628015394052C000C66087708BC
S1130D3041E0C301B20176D6C301B2010CD68111E0
S1130D40FBCF81E090E00F2C02C0880F991F0A941A
S1130D50E2F78095909520915A0430915B04282302
S1130D603923E0FAAA24A0F8B12C0F2C02C0AA0C53
S1130D70BB1C0A94E2F7A22AB32AB0925B04A092A5
S1130D805A04209158043091590482239323909358
S1130D90590480935804F601EE0FFF1FE85BFB4FE4
S1130DA011821082F601E05CFB4F1082B8017D5F76
S1130DB0072E000C880B990BCED58823B9F38F2D01
S1130DC00BC08FEF09C08BEF07C08AEF05C08AEF15
S1130DD003C08AEF01C08AEF0F900F900F900F901D
S1130DE0DF91CF911F910F91FF90EF90DF90CF9003
S1130DF0BF90AF907F906F905F904F9008958F92C7
S1130E009F92AF92BF92CF92DF92EF92FF92CF93D5
S1130E10893008F03FC0C82FC82ED12CCC0CDD1C63
S1130E20CC0CDD1C8FEFC81AD80ACC0CDD1CCC0C02
S1130E30DD1CCC0CDD1CB6010D2C000C880B990BB1
S1130E408AD58F70813041F546018DEF981A092CAF
S1130E50000CAA08BB08C501B4017DD58331F1F4A7
S1130E60D3940D2C000CEE08FF0842E0C701B60134
S1130E70D9D5C701B6016FD58111FBCF04C08C2F22
S1130E8051DE8CEF0CC0C501B40165D58431B9F7CE
S1130E9081E005C08FEF03C08BEF01C08DEFCF91D0
S1130EA0FF90EF90DF90CF90BF90AF909F908F9086
S1130EB00895CF92DF92EF92FF921F93CF93DF9327
S1130EC0893008F05DC0182FC82FD0E0CC0FDD1F8B
S1130ED0CC0FDD1F2196CC0FDD1FCC0FDD1FCC0FF7
S1130EE0DD1FBE010D2E000C880B990B34D58F70BD
S1130EF0813009F047C06E01D3940D2C000CEE082C
S1130F00FF0848E0C701B6018DD5C701B60123D556
S1130F108111FBCF81E090E0012E02C0880F991F60
S1130F200A94E2F79C012095309540915804509121
S1130F3059042423352330935904209358042091D1
S1130F405A0430915B0482239323892B71F01CC0D3
S1130F50BE017E5F072E000C880B990BFCD483FF27
S1130F6004C0812FDFDD83EF10C0BE017D5F072E3B
S1130F70000C880B990BEFD48111EACF81E005C0F6
S1130F808FEF03C08BEF01C080E0DF91CF911F9101
S1130F90FF90EF90DF90CF9008952F923F924F9261
S1130FA05F926F927F928F929F92AF92BF92CF92F5
S1130FB0DF92EF92FF920F931F93CF93DF9300D0B2
S1130FC000D0CDB7DEB7893008F0C7C05E834D834B
S1130FD01B01F82EC82ED12CCC0CDD1CCC0CDD1C36
S1130FE02FEFC21AD20ACC0CDD1CCC0CDD1CCC0CAD
S1130FF0DD1CB6010D2C000C880B990BACD48F7042
S1131000813009F0AEC04D815E81452B09F4AEC03C
S113101026015DEF551A052C000C66087708C301FC
S1131020B20199D4873119F08C3109F0A4C081E060
S113103090E04C010F2C02C0880C991C0A94E2F732
S11310405401809158049091590488219921892B45
S113105061F1C6019E5F9C01990F440B550B2983D6
S11310603A834B835C83CA01B90175D484FF14C0ED
S113107040E169817A818B819C81D4D42091580488
S113108030915904C40180959095822393239093C1
S113109059048093580409C083FF72C08F2D42DD28
S11310A063EF7FEF8FEF9FEF72C0B601715E072E83
S11310B0000C880B990B4FD4082F10E0102F002739
S11310C0110F110F4D815E810417150708F08A0175
S11310D08F2D23D69A838983C301B2013CD48731EF
S11310E049F08C3139F08F2D1DDD69EF7FEF8FEFE3
S11310F09FEF4DC080915A0490915B048A219B21FB
S1131100892B31F089819A818017910708F43CC0BA
S113111029813A8120173107D8F2A801B1018F2D16
S1131120ACD6D3940D2C000CEE08FF0840E2C701A6
S1131130B60178D4C701B6010ED48111FBCF8091DA
S1131140580490915904882A992A909259048092BB
S11311505804B80180E090E01AC06FEF7FEFCB0134
S113116016C06BEF7FEF8FEF9FEF11C062EF7FEF41
S11311708FEF9FEF0CC069EF7FEF8FEF9FEF07C0FA
S113118060E070E0CB0103C060E070E0CB01269624
S11311900FB6F894DEBF0FBECDBFDF91CF911F9184
S11311A00F91FF90EF90DF90CF90BF90AF909F9002
S11311B08F907F906F905F904F903F902F90089505
S11311C07F928F929F92AF92BF92CF92DF92EF92D3
S11311D0FF920F931F93CF93DF93893008F090C051
S11311E0EA014B01782EC82ED12C8601000F111F65
S11311F0000F111F0F5F1F4F000F111F000F111F52
S1131200000F111FB801012E000C880B990BA3D3FA
S11312108F70813009F078C0209709F47AC0B80142
S1131220725E072E000C880B990B95D3A82EB12C57
S1131230BA2CAA24BB0CBB0CAC16BD0608F05E018C
S1131240872DC3D5EC01B8017D5F072E000C880BF8
S1131250990B81D3873121F18C31D9F42097A9F5E9
S1131260872D5BD57C01B801715E072E000C880BBD
S1131270990B71D390E0982F8827990F990FE8164E
S1131280F90671F4872D4EDC69EF7FEF8FEF9FEF46
S113129048C0872D47DC69EF7FEF8FEF9FEF41C098
S11312A081E090E00C2C02C0880F991F0A94E2F7A9
S11312B020915A0430915B0482239323892B11F0EB
S11312C0209761F1209709F4BBCFCA15DB0508F01C
S11312D0E501AE01B401872D57D66801D3940D2CD6
S11312E0000CEE08FF0840E4C701B6019BD3C70118
S11312F0B60131D38111FBCFBE0180E090E011C073
S11313006FEF7FEFCB010DC06BEF7FEF8FEF9FEFA0
S113131008C062EF7FEF8FEF9FEF03C060E070E0E3
S1131320CB01DF91CF911F910F91FF90EF90DF9050
S1131330CF90BF90AF909F908F907F9008952F9201
S11313403F925F926F927F928F929F92AF92BF92E1
S1131350CF92DF92EF92FF920F931F93CF93DF937D
S1131360893008F0E3C0E9013A011B01582EC82E68
S1131370D12C7601EE0CFF1CEE0CFF1C8FEFE81A4B
S1131380F80AEE0CFF1CEE0CFF1CEE0CFF1C4701D0
S11313900F2C000CAA08BB08C501B401DCD28F7065
S11313A08250833008F0C6C06114710409F4C7C0C8
S11313B0888190E0A0E0B0E0BA2FA92F982F882769
S11313C02981820F911DA11DB11DBA2FA92F982F1C
S11313D088272A81820F911DA11DB11DBA2FA92F23
S11313E0982F88272B81820F911DA11DB11D892B58
S11313F08A2B8B2B29F4C501B401ADD282FFA4C082
S11314000115110529F4C501B401A5D282FFA1C0BB
S113141047018DEF981A092C000CAA08BB08C501D6
S1131420B40199D2823429F0823219F0823309F05E
S113143095C0B701745F072E000C880B990B24E04C
S113144030E0AE01E3D3B701705F072E000C880BC8
S1131450990B412FE7D2B7017F5E072E000C880B52
S1131460990B402FDFD2B701715E072E000C880B59
S1131470990B71D2082F10E0102F0027110F110FB4
S11314800615170508F08301852D47D4EC01C50125
S1131490B40161D2882309F466C081E090E00C2C89
S11314A002C0880F991F0A94E2F720915A043091E0
S11314B05B0482239323892B21F0C017D10708F4FE
S11314C057C0C017D10700F3A801B101852DD5D4A9
S11314D047019394092C000CAA08BB0840E2C501FB
S11314E0B401A0D2C501B40136D28111FBCF4701AA
S11314F08EEF981A092C000CAA08BB08C501B40188
S11315002AD284FF08C040E1C501B4018BD2B801DE
S113151080E090E030C083FFEACF48E0C501B40129
S113152081D263EF7FEF8FEF9FEF25C06FEF7FEFE7
S1131530CB0121C06BEF7FEF8FEF9FEF1CC062EFF9
S11315407FEF8FEF9FEF17C064EF7FEF8FEF9FEF79
S113155012C065EF7FEF8FEF9FEF0DC069EF7FEF54
S11315608FEF9FEF08C06CEF7FEF8FEF9FEF03C00B
S113157060E070E0CB01DF91CF911F910F91FF905C
S1131580EF90DF90CF90BF90AF909F908F907F901F
S11315906F905F903F902F9008952F923F924F92BB
S11315A05F926F927F928F929F92AF92BF92CF92EF
S11315B0DF92EF92FF920F931F93CF93DF93CDB7F8
S11315C0DEB72C970FB6F894DEBF0FBECDBF8930BF
S11315D008F092C1280139015A014B01382EC82E56
S11315E0D12C8601000F111F000F111F0F5F1F4F19
S11315F0000F111F000F111F000F111FB801012E42
S1131600000C880B990BA7D1282E8F708250833041
S113161008F076C1A114B10409F477C1F601EE0F04
S1131620FF1FE85BFB4F80819181892B29F5832D76
S1131630CCD37C01B8017D5F072E000C880B990B7D
S11316408AD1882309F466C181E090E00C2C02C0A1
S1131650880F991F0A94E2F720915A0430915B0491
S113166082239323892B21F0E114F10409F457C157
S1131670E114F104E1F202C0E12CF12C822D877017
S1131680833009F4B1C0843009F461C0823009F0B8
S1131690FEC0F601EE0FFF1FE85BFB4F80819181D6
S11316A0892B09F044C048E050E0BE016F5F7F4FD2
S11316B0832D6AD4C80193959C01990F440B550B53
S11316C029873A874B875C8740E469857A858B85CF
S11316D09C85A8D169857A858B859C853CD18111AF
S11316E0F9CF8981F30180838A8181838B8182830D
S11316F08C8183838D8190E0982F88272E81820F9F
S1131700911DF201918380838F8190E0F601EE0FA9
S1131710FF1FE85BFB4F982F88272885820F911DB8
S11317209183808380E8F601E05CFB4F8083F601BF
S1131730EE0FFF1FE85BFB4FE080F180AE14BF04A7
S113174008F47501A701B401832D1ED4AAC0F601C3
S1131750EE0FFF1FE85BFB4F80819181892BA1F580
S113176042E050E0BE016F5F7F4F832D0DD428010E
S11317705394052C000C6608770840E4C301B201B9
S113178051D1C301B201E7D08111FBCF898190E02F
S1131790F601EE0FFF1FE85BFB4F982F88272A8185
S11317A0820F911D0297918380838B3E954038F080
S11317B0832DB8D967E17CEF8FEF9FEFB3C080E84A
S11317C0F601E05CFB4F8083F601EE0FFF1FE85B40
S11317D0FB4FE080F180AE14BF0408F47501A7014B
S11317E0B401832DD1D35DC0F601EE0FFF1FE85B7A
S11317F0FB4F80819181892BD1F546E050E0BE01F9
S11318006F5F7F4F832DC0D3C80193959C01990FBF
S1131810440B550B29873A874B875C8740E46985DD
S11318207A858B859C85FED069857A858B859C8598
S113183092D08111F9CF8981F30180838A818183D8
S11318408B8182838C8183838D8190E0F601EE0FFE
S1131850FF1FE85BFB4F982F88272E81820F911D75
S11318609183808380E8F601E05CFB4F8083F6017E
S1131870EE0FFF1FE85BFB4FE080F180AE14BF0466
S113188008F47501A701B401832D7ED30AC0B70102
S1131890832D01D4F601EE0FFF1FE85BFB4FF182AD
S11318A0E08248019394092C000CAA08BB0840E488
S11318B0C501B401B7D0C501B4014DD08111FBCF2E
S11318C0F601EE0FFF1FE85BFB4F808191818E19BB
S11318D09F0991838083892B39F0F601E05CFB4FEB
S11318E080818160808304C0F601E05CFB4F10823C
S11318F0B70180E090E016C06FEF7FEFCB0112C01C
S11319006BEF7FEF8FEF9FEF0DC062EF7FEF8FEFF5
S11319109FEF08C06CEF7FEF8FEF9FEF03C060E095
S113192070E0CB012C960FB6F894DEBF0FBECDBF8E
S1131930DF91CF911F910F91FF90EF90DF90CF90A7
S1131940BF90AF909F908F907F906F905F904F90DB
S11319503F902F900895DF92EF92FF920F931F9381
S1131960CF93DF9300D0CDB7DEB7F62EE72ED82E77
S11319700AE012E0D8011896ED91FC911997199597
S1131980D8011C96ED91FC911D971995F801848955
S11319909589892B31F0E0912002F0912102309752
S11319A0C1F40AE012E0D8015296ED91FC915397EC
S11319B08D2D1995D8015296ED91FC9153978E2D4A
S11319C01995D8015296ED91FC9153978F2D199545
S11319D008C0D982EA82FB8263E070E0CE010196FE
S11319E019950AE012E0D8015096ED91FC915197B7
S11319F01995F82ED8011E96ED91FC911F97199513
S1131A00D8011A96ED91FC911B9719958F2D0F9083
S1131A100F900F90DF91CF911F910F91FF90EF9056
S1131A20DF9008954F925F926F927F92BF92CF9210
S1131A30DF92EF92FF920F931F93CF93DF9300D027
S1131A401F92CDB7DEB76B017C01B42E0AE012E021
S1131A50D8011896ED91FC9119971995D8011C9607
S1131A60ED91FC911D97199526013701689442F870
S1131A70D8015696ED91FC9157973097E1F4529620
S1131A80ED91FC9153978E2D1995D8015296ED91B5
S1131A90FC9153978D2D1995D8015296ED91FC9197
S1131AA05397842D1995D8015296ED91FC91539733
S1131AB08B2D199509C0E982DA824B82BC8264E0DD
S1131AC070E0CE01019619950AE012E0D8011E9645
S1131AD0ED91FC911F971995D8011A96ED91FC91FF
S1131AE01B9719950F900F900F900F90DF91CF9146
S1131AF01F910F91FF90EF90DF90CF90BF907F9058
S1131B006F905F904F9008959F92AF92BF92CF9243
S1131B10DF92EF92FF920F931F93CF93DF9300D046
S1131B20CDB7DEB7F62EE72E982E5A0169010AE0EA
S1131B3012E0D8011896ED91FC9119971995D801E6
S1131B401C96ED91FC911D971995F801848995894E
S1131B50892B31F0E0912002F0912102309751F568
S1131B600AE012E0D8015296ED91FC915397892D29
S1131B701995D8015296ED91FC9153978E2D199594
S1131B80D8015296ED91FC9153978F2D199500E051
S1131B9010E00CC07501E00EF11EE0911A02F09104
S1131BA01B021995F70180830F5F1F4F0C151D054C
S1131BB088F30FC09982EA82FB8263E070E0CE0171
S1131BC001961995E0911E02F0911F02B601C5011C
S1131BD019950AE012E0D8011E96ED91FC911F9729
S1131BE01995D8011A96ED91FC911B9719950F90B0
S1131BF00F900F90DF91CF911F910F91FF90EF9075
S1131C00DF90CF90BF90AF909F9008954F925F92D6
S1131C106F927F928F929F92AF92BF92CF92DF92F8
S1131C20EF92FF920F931F93CF93DF9300D0CDB722
S1131C30DEB76B017C014A0159010AE012E0D801C8
S1131C401896ED91FC9119971995D8011C96ED9170
S1131C50FC911D97199526013701689442F8D80123
S1131C605696ED91FC915797309731F55296ED9138
S1131C70FC9153978E2D1995D8015296ED91FC91B4
S1131C8053978D2D1995D8015296ED91FC91539748
S1131C90842D199500E010E00BC0E0911C02F09136
S1131CA01D02D401A00FB11F8C9119950F5F1F4F16
S1131CB00A151B0590F30FC0E982DA824B8263E0B8
S1131CC070E0CE0101961995E0912002F091210275
S1131CD0B501C40119950AE012E0D8011E96ED91F0
S1131CE0FC911F971995D8011A96ED91FC911B97B9
S1131CF019950F900F900F90DF91CF911F910F9135
S1131D00FF90EF90DF90CF90BF90AF909F908F9017
S1131D107F906F905F904F9008957F928F929F92E3
S1131D20AF92BF92CF92DF92EF92FF920F931F93E5
S1131D30CF93DF93782E00E010E0C72CD12CCC0C8D
S1131D40DD1CCC0CDD1C8FEFC81AD80ACC0CDD1CB2
S1131D50CC0CDD1CCC0CDD1C460180EE981A092C41
S1131D60000CAA08BB08C501B401F5DDC82FD0E0FA
S1131D70DC2FCC278FEDD81A0D2C000CEE08FF08B1
S1131D80C701B601E8DDC80FD11D209761F0C50178
S1131D90B401E1DD082F10E0102F0027C701B601C0
S1131DA0DADD080F111D0C171D0739F6C801DF9184
S1131DB0CF911F910F91FF90EF90DF90CF90BF9044
S1131DC0AF909F908F907F9008957F928F929F9273
S1131DD0AF92BF92CF92DF92EF92FF920F931F9335
S1131DE0CF93DF93782E00E010E0C72CD12CCC0CDD
S1131DF0DD1CCC0CDD1C8FEFC81AD80ACC0CDD1C02
S1131E00CC0CDD1CCC0CDD1C46018AED981A092C87
S1131E10000CAA08BB08C501B4019DDDC82FD0E0A1
S1131E20DC2FCC2789EDD81A0D2C000CEE08FF0806
S1131E30C701B60190DDC80FD11D209761F0C5011F
S1131E40B40189DD082F10E0102F0027C701B60167
S1131E5082DD080F111D0C171D0739F6C801DF912B
S1131E60CF911F910F91FF90EF90DF90CF90BF9093
S1131E70AF909F908F907F9008952F923F924F92B2
S1131E805F926F927F928F929F92AF92BF92CF9206
S1131E90DF92EF92FF920F931F93CF93DF9300D0C3
S1131EA01F92CDB7DEB74115510509F456C03A016A
S1131EB07A836983282E312C220C331C220C331C88
S1131EC061012FEFC21AD20ACC0CDD1CCC0CDD1C34
S1131ED0CC0CDD1C46013CED931A092C000CAA081D
S1131EE0BB08C501B40137DD082F10E0102F00270F
S1131EF08BEDD81A0D2C000CEE08FF08C701B601B3
S1131F002ADD080F111DC801A0E0B0E04427582FB6
S1131F10692F7A2FC10102961C01220C331C220C5A
S1131F20331C220C331CC101330CAA0BBB0B1A014A
S1131F302B01280E391E4A1E5B1EC201B1019301FA
S1131F4049815A8163DE060D171D412FC501B40175
S1131F5069DD402FC701B60165DD0F900F900F902A
S1131F600F90DF91CF911F910F91FF90EF90DF9031
S1131F70CF90BF90AF909F908F907F906F905F9025
S1131F804F903F902F9008952F923F924F925F92DF
S1131F906F927F928F929F92AF92BF92CF92DF9275
S1131FA0EF92FF920F931F93CF93DF9300D01F9272
S1131FB0CDB7DEB74115510509F456C03A017A830D
S1131FC06983282E312C220C331C220C331C610112
S1131FD02FEFC21AD20ACC0CDD1CCC0CDD1CCC0CAD
S1131FE0DD1C460138ED931A092C000CAA08BB0825
S1131FF0C501B401B0DC082F10E0102F002787EDD5
S1132000D81A0D2C000CEE08FF08C701B601A3DC9A
S1132010080F111DC801A0E0B0E04427582F692F14
S11320207A2FC10103961C01220C331C220C331C91
S1132030220C331CC101330CAA0BBB0B1A012B015C
S1132040280E391E4A1E5B1EC201B101930149814B
S11320505A815ADD060D171D412FC501B401E2DC7A
S1132060402FC701B601DEDC0F900F900F900F9048
S1132070DF91CF911F910F91FF90EF90DF90CF9060
S1132080BF90AF909F908F907F906F905F904F9094
S11320903F902F9008958F929F92AF92BF92CF92CC
S11320A0DF92EF92FF920F931F93CF93DF93EB0195
S11320B0C82ED12CCC0CDD1CCC0CDD1C8FEFC81A27
S11320C0D80ACC0CDD1CCC0CDD1CCC0CDD1C460170
S11320D088ED981A092C000CAA08BB08C501B401A4
S11320E03ADC082F10E0102F002787EDD81A0D2CAA
S11320F0000CEE08FF08C701B6012DDC080F111D06
S1132100C00FD11F4D2FC501B4018CDC4C2FC7016A
S1132110B60188DCDF91CF911F910F91FF90EF9072
S1132120DF90CF90BF90AF909F908F9008950895C7
S1132130089508950895FB0180810895FB0140836B
S1132140089580E00895089508950895009719F07A
S11321506115710559F4EAE0F2E089E990E19587A7
S113216084878AE990E1978786870895EAE0F2E018
S11321709587848777876687089520910A0230912E
S11321800B0231FFFACF009719F06115710559F46C
S1132190EAE0F2E081EA90E1918B808B83EA90E1BE
S11321A0938B828B0895EAE0F2E0918B808B738BA2
S11321B0628B089520910A0230910B0231FFFACF0D
S11321C0009719F06115710559F4EAE0F2E084EA28
S11321D090E1958B848B85EA90E1978B868B0895AB
S11321E0EAE0F2E0958B848B778B668B0895CF932E
S11321F0DF93CDB7DEB762970FB6F894DEBF0FBE9C
S1132200CDBF26E030E0AE01435F5F4F60E079E090
S113221080E090E079DC24E030E0AE014F5F5F4F76
S113222060E071E080E090E06FDC24E030E0AE013B
S11322304B5F5F4F60E075E080E090E065DC24E098
S113224030E0AE01475F5F4F60E07FE080E090E008
S11322505BDC40E860E070E0CB01E4DB60E070E070
S1132260CB0179DB26E030E0AE01435F5F4F60E0F5
S113227079E080E090E0CADC24E030E0AE014F5F1A
S11322805F4F60E071E080E090E0C0DC24E030E08B
S1132290AE014B5F5F4F60E075E080E090E0B6DC3C
S11322A024E030E0AE01475F5F4F60E07FE080E014
S11322B090E0ACDC62960FB6F894DEBF0FBECDBFE3
S11322C0DF91CF910895FF920F931F93CF93DF93E4
S11322D0EC018B018CDF209769F430C0FE01E80F1C
S11322E0F11D87FDFA952081920F91310CF05BC0AE
S11322F08F5F02C090E080E0883084F3F12C1BC033
S11323006F2D0F2C000C770BFE01E60FF71F660FE5
S1132310771F660F771F6F5F7F4F660F771F660FFC
S1132320771F660F771F715E072E000C880B990BC1
S1132330408178DBF39487E08F1514F701151105BC
S113234069F480E033C0F801E80FF11D87FDFA95C8
S11323502081920F91314CF58F5F02C090E080E0B4
S113236088308CF3C0E01BC06C2F0C2E000C770B54
S1132370F801E60FF71F660F771F660F771F6F5F71
S11323807F4F660F771F660F771F660F771F725E8A
S1132390072E000C880B990B408144DBCF5FC830BB
S11323A01CF380E003C08FEF01C08FEFDF91CF916A
S11323B01F910F91FF900895CF93C92F482F407F0D
S11323C060E075E180E090E02DDB4C2F60E077E188
S11323D080E090E027DBCF910895CF9360E075E132
S11323E080E090E0B8DAC82FC07F60E077E180E059
S11323F090E0B1DA90E0982F88278C0F911DCF914F
S11324000895CF93C92F482F60E076E180E090E0F3
S113241009DB4C2F60E078E180E090E003DBCF91B2
S11324200895CF9360E076E180E090E094DAC82FDD
S113243060E078E180E090E08EDA90E0982F8827E1
S11324408C0F911DCF91089560E07EE280E090E0D2
S113245082DA80FD02C080E0089581E0089560E0A2
S11324607EE280E090E077DA8873803311F481E0D3
S1132470089580E0089560E07EE280E090E06BDA09
S1132480482F4F7760E07EE280E090E0CBDA60E0B6
S11324907EE280E090E05FDA482F406860E07EE210
S11324A080E090E0BFCA0895FC018081813011F47E
S11324B040E401C040E08181813011F448630EC0E2
S11324C08381813039F48281813011F4486106C0FE
S11324D0486004C08281813009F4406160E07EE29A
S11324E080E090E09FDAC7CF0895CF93DF93EC01AB
S11324F060E07EE280E090E02EDA86FB992790F996
S113250098838873803211F0883319F491E09983A9
S113251001C01982883121F0803211F0803119F420
S113252091E09A8301C01A82883121F0803211F03F
S1132530883019F481E08B8301C01B82DF91CF9135
S11325400895CF93C82F60E07EE280E090E003DA44
S113255086FF1DC0877CC13019F4482F406302C038
S1132560482F486360E07EE280E090E05BDA83DF3E
S113257060E07EE280E090E0EED9C13021F4807327
S113258041F48FEF09C0887331F48FEF05C08FEFEA
S113259003C080E001C080E0CF9108950F931F93A2
S11325A0CF93DF9300E010E0980190E08031910533
S11325B040F4EB01FC018827E656FF4F8F4F0C9443
S11325C00D238FEF71C013DE80E06EC0CD2B21F0A0
S11325D08B019B01285F3F4FB901C80174DE64C0C1
S11325E088819981E9DE80E05FC0F7DE9983888382
S11325F080E05AC08881998104DF80E055C011DFF2
S11326009983888380E050C0498160E073E180E071
S113261090E008DA488160E074E180E090E002DA5A
S113262080E042C060E073E180E090E094D9082F3C
S113263010E0102F002760E074E180E090E08BD977
S1132640080F111D1983088380E02EC0EAE0F2E030
S1132650828188838381898384818A8385818B8332
S113266086818C831D8280E01FC005DF80E01CC052
S1132670CB011ADF80E018C0CB0137DF80E014C043
S113268088815FDF11C0EBDE8F3F59F0888380E0E3
S11326900BC0DADE8F3F39F0888380E005C080E02C
S11326A003C08FEF01C08FEFDF91CF911F910F9186
S11326B00895CF93DF93EC0126E030E0AC0160E0B5
S11326C079E080E090E0A2DAAE01425F5F4F24E05F
S11326D030E060E071E080E090E098DAAE01465FBF
S11326E05F4F24E030E060E075E080E090E08EDA57
S11326F0AE014A5F5F4F24E030E060E07FE080E0BD
S113270090E084DA8A89EDE5F4E080838B89818323
S11327108C8982838D8983838E8980935C04DF9185
S1132720CF910895CF93DF93EC0126E030E0AC0124
S113273060E079E080E090E0E7D9AE01425F5F4F6E
S113274024E030E060E071E080E090E0DDD9AE01AB
S1132750465F5F4F24E030E060E075E080E090E0A9
S1132760D3D9AE014A5F5F4F24E030E060E07FE000
S113277080E090E0C9D9EDE5F4E080818A8B818125
S11327808B8B82818C8B83818D8B80915C048E8B6F
S1132790DF91CF9108951092CF04089508950F9377
S11327A01F93CF938C01C0E00AC0D8011796ED9116
S11327B0FC911897EC0FF11D80819FD3CF5FF80136
S11327C08185C81790F381E0CF911F910F910895EF
S11327D02091CF04211120C02DE6E5E9F3E0A2E623
S11327E0B4E001900D922A95E1F7E0EDF4E09683D0
S11327F0858382E087838087818782E694E093875C
S1132800828783E084878BEC93E196878587CF0169
S11328105BD581E08093CF0408950F931F93CF93EA
S11328208C01C0E00AC0D8011796ED91FC9118976D
S1132830EC0FF11D808161D3CF5FF8018185C8174A
S113284090F380819181C4DF81E0CF911F910F913A
S113285008950F931F93CF93DF938C01C0E0D0E0D2
S113286010C072D3809161048D3619F481E090E038
S1132870AFDF809161048D3618F48F5F809361041B
S11328802196C017D10768F381EE94E00E94FA21E3
S113289081EE94E00E944422DF91CF911F910F9129
S11328A0089580E090E048D486E990E04CD48FE02D
S11328B00E94C52081E00E94C1206DE074E181E0A6
S11328C049D46FEC73E182E045D4E1EEF4E084E1B5
S11328D090E0A0E0B0E086839783A087B18712865A
S11328E08EEC93E19487838708958091EE0481119F
S11328F004C0D7DF81E08093EE040895CF93DF9383
S11329001F921F92CDB7DEB78091711B9091721BFD
S1132910009711F09C0102C02CE73BE1CE01019627
S1132920821B930B0F900F90DF91CF9108958BB181
S11329308F7E8BB908958BB180618BB908951EBCCD
S11329400DB407FEFDCF8EB508958EBD0DB407FE00
S1132950FDCF0895FC0120E030E009C01EBC0DB499
S113296007FEFDCF8EB580832F5F3F4F319626172C
S11329703707A0F30895FC0120E030E00AC0CF013E
S1132980019640814EBD0DB407FEFDCF2F5F3F4F32
S1132990FC012617370798F308951F920F920FB67C
S11329A00F9211248F939F93AF93BF938091441AF6
S11329B09091451AA091461AB091471A0196A11D0B
S11329C0B11D8093441A9093451AA093461AB0936C
S11329D0471ABF91AF919F918F910F900FBE0F90A7
S11329E01F901895CF93DF93CDB7DEB728970FB616
S11329F0F894DEBF0FBECDBF88E0EBE4F2E0DE0169
S1132A00119601900D928A95E1F76BE974E187E9DB
S1132A1094E19CDB65EA74E18FE994E1AEDB6BEB56
S1132A2074E18AEA94E1C6DBBE016F5F7F4FCB019C
S1132A304ADC80E392E03DDE28960FB6F894DEBFD0
S1132A400FBECDBFDF91CF910895EF92FF920F9308
S1132A501F93FB01A381728161815081442319F08A
S1132A6088E993E002C080EA93E0FF92EF921F931B
S1132A700F933F932F931F92AF931F927F931F92B5
S1132A806F931F925F939F938F9383E192E09F9341
S1132A908F930E9486238DB79EB742960FB6F89403
S1132AA09EBF0FBE8DBF1F910F91FF90EF900895B1
S1132AB0F89414BC15BCEEE6F0E0108282E084BD0C
S1132AC083E085BD89EF87BD8081826080837894AF
S1132AD0089599E288E10FB6F894A8958093600070
S1132AE00FBE90936000A895E3DF80E096E90E9412
S1132AF0AE2282E292E09093781B8093771B7894C5
S1132B0008950F931F93CF93DF93CDB7DEB76D97DF
S1132B100FB6F894DEBF0FBECDBF8E010F5F1F4FFF
S1132B2086E0F80111928A95E9F7B80188E036DD6C
S1132B3089EA91E09F938F930E9486231F930F93BA
S1132B4084E991E09F938F930E9486238AE691E023
S1132B509F938F930E948623CE010796E3DD8D8D8C
S1132B600FB6F894DEBF0FBECDBF813049F48EE5B9
S1132B7091E09F938F930E9486230F900F9008C03B
S1132B8084E591E09F938F930E9486230F900F908A
S1132B905C854B853A85298598858F811F925F9343
S1132BA01F924F931F923F931F922F931F929F93B5
S1132BB01F928F9386EA93E09F938F930E947323CF
S1132BC038892F859E858D851F923F931F922F9361
S1132BD01F929F931F928F9383ED93E09F938F9304
S1132BE00E9473233C892B899A8989891F923F9378
S1132BF01F922F931F929F931F928F938EEE93E0B9
S1132C009F938F930E947323388D2F899E898D897A
S1132C100FB6F894DEBF0FBECDBF1F923F931F9235
S1132C202F931F929F931F928F9389E094E09F9319
S1132C308F930E9473233C8D2B8D9A8D898D1F92C7
S1132C403F931F922F931F929F931F928F9384E21F
S1132C5094E09F938F930E9473230FB6F894DEBF82
S1132C600FBECDBF6D960FB6F894DEBF0FBECDBFBD
S1132C70DF91CF911F910F9108950E94922129DF36
S1132C80E0D03CDE9F938F9388EF91E09F938F93E6
S1132C900E9486230F900F900F900F9083E01AC02C
S1132CA085B18F7E85B92FEF30E782E02150304027
S1132CB08040E1F700C0000085B1806185B92FEF45
S1132CC033EC89E0215030408040E1F700C000003F
S1132CD0A895892F9FEF980F8111E2CF83DE11DF32
S1132CE0F8944090441A5090451A6090461A709097
S1132CF0471A7894F8948090441A9090451AA090BA
S1132D00461AB090471A7894F894C090441AD09018
S1132D10451AE090461AF090471A78940E94992137
S1132D20ACD1E3DDA89548E853E168E47AE180E0BA
S1132D300E94570148EB5BE068E47AE181E00E947D
S1132D40A00282E00E940805F8948091441A9091B0
S1132D50451AA091461AB091471A7894881999098E
S1132D60AA09BB0981319742A105B105B8F0F894CD
S1132D708090441A9090451AA090461AB090471A31
S1132D80789486EE91E09F938F930E94862367E464
S1132D9072E082E00E94C9030F900F90F894809132
S1132DA0441A9091451AA091461AB091471A789402
S1132DB08C199D09AE09BF0989399A43A105B1054A
S1132DC0B8F0F894C090441AD090451AE090461A8E
S1132DD0F090471A789485ED91E09F938F930E9429
S1132DE0862362E472E082E00E94C9030F900F9090
S1132DF0F8948091441A9091451AA091461AB09182
S1132E00471A789484199509A609B709893E93400D
S1132E10A105B10508F482CFF8944090441A50906B
S1132E20451A6090461A7090471A78940DDB8130E9
S1132E3021F485B18F7E85B971CF85B1806185B963
S1132E406DCF8AB180618AB98BB180618BB984B14D
S1132E50866084B985B1866085B98AB180648AB98F
S1132E6080E58CBD1DBC089514BE0FB6F894A895DA
S1132E7080916000886180936000109260000FBEB2
S1132E80E1E6F0E080E880831082789401C0089540
S1132E901092481B80E197E29093A9008093A800C8
S1132EA0E1EAF0E088E08083808182608083E2E769
S1132EB0F0E080818260808308951F920F920FB6A4
S1132EC00F9211248F938091481B8F5F8093481B2E
S1132ED08F910F900FBE0F901F9018951F920F9215
S1132EE00FB60F9211248F9381E08093EF048F919A
S1132EF00F900FBE0F901F901895CF93DF93ECEFB8
S1132F00F4E0268137816481758126173707C9F07B
S1132F10C085D18542815381DA011196B383A2839E
S1132F20FE01E40FF51F80836A177B0721F41092DA
S1132F30FF041092FE042F5F3F4F3093030520934C
S1132F400205DF91CF9108954FB7F894E2EFF4E0D2
S1132F502085318580819181BC016F5F7F4F7183B2
S1132F606083D901A80FB91F8C916081718124817C
S1132F7035816217730721F41092F3041092F2045E
S1132F80E2EFF4E02681378121503109378326832B
S1132F904FBF08951F920F920FB60F9211240BB6D4
S1132FA00F928F93EF93FF9381E08093F104E9EC08
S1132FB0F0E080818F7D8083FF91EF918F910F905E
S1132FC00BBE0F900FBE0F901F9018951F920F927B
S1132FD00FB60F9211240BB60F922F933F934F937A
S1132FE05F936F937F938F939F93AF93BF93EF936D
S1132FF0FF938091C8002091CE008C7159F5E2EFC7
S1133000F4E046815781848195814817590711F16D
S11330104085518582819381BC016F5F7F4F7383AB
S11330206283DA01A80FB91F2C9322813381848132
S113303095812817390721F41092F5041092F404AD
S1133040E2EFF4E08681978101969783868381E09D
S11330508093F004FF91EF91BF91AF919F918F9175
S11330607F916F915F914F913F912F910F900BBE84
S11330700F900FBE0F901F901895809102059091AC
S11330800305009769F12091F104222349F1ECEF43
S1133090F4E06085718520813181A9014F5F5F4F24
S11330A051834083DB01A20FB31F2C91648175818E
S11330B04617570721F41092FD041092FC0401975F
S11330C090930305809302059FB7F8942093CE0054
S11330D0E9ECF0E08081806280831092F1049FBF6C
S11330E02FB7F8949091F0041092F0044091F804F2
S11330F05091F9042FBF992311F0CA01AACB089566
S1133100E9E4FBE1148215821182108217A216A24F
S113311080E00AC0E82FF0E03396EE0FFF1FE75B74
S1133120F44E118210828F5F8031A0F339D68DD591
S113313006D1C5D0BDC1089590934A1B8093491B05
S11331400C94DB20089590934C1B80934B1B0C94A0
S1133150C9200895E82FF0E03396EE0FFF1FE75BD8
S1133160F44E718360830895C2D544D7D1C00895C5
S1133170A0910605B0910705A817B90741F42D9150
S11331803C9130930705209306050BC0DF01ED91B8
S1133190FC9111978E179F07C9F7208131812D93D8
S11331A03C93E9E4FBE126A137A12150310937A37F
S11331B026A3DC011D96ED91FC911E9719950895A7
S11331C00F931F93CF93DF938C01C6D0EC0100972C
S11331D029F482E0F8018483878750C0F80193833F
S11331E0828381E08483FE01E957FF4F83E499E100
S11331F091838083F801818582FB882780F9FE0111
S1133200EA57FF4F8083F80191858B8590FB80F905
S11332108B87918593FB992790F990FB82F98B8793
S1133220E9E4FBE184818F5F84838C8780819181D1
S11332309E878D87F80185819681988B8F878085FD
S1133240982F9F708989807F892B898B978192958C
S1133250907F8F70892B898B448562857385FE01ED
S1133260EF57FF4F50E0808191810E946A23F8015B
S113327084859981890F8983CE01B5D5DF91CF915A
S11332801F910F910895E0910605F091070513C071
S1133290228133812817390759F4DC01AD57BF4F18
S11332A02C91278713962C91208B22E0248305C030
S11332B00190F081E02D309759F77FC00895109266
S11332C00705109206050895FC01148217861382DF
S11332D01282A9E4BBE196968D919C9197970196F1
S11332E097969C938E9396978091060590910705E7
S11332F0009739F411821082F0930705E0930605D4
S1133300089591838083F0930705E093060508955B
S1133310E0910605F09107050FC08481882319F018
S1133320823021F006C0CF014BCF0895CF0120CFCA
S113333008950190F081E02D309779F7089580E0A9
S113334008C099E8899FF0011124E85FFA4F1082C0
S11333508F5F8E31B0F3089580E02AC0282F30E0CB
S113336099E8929FF001939FF00D1124E85FFA4FC2
S1133370908191111CC069E8629FA001639F500D68
S11333801124CF0111926A95E9F720E1FC01218310
S1133390465E5A4FEF57FF4F51834083E9E4FBE108
S11333A026A137A12F5F3F4F37A326A308958F5F30
S11333B08E31A0F280E090E00895FC011082E9E4EF
S11333C0FBE186A197A1019797A386A3089500978F
S11333D021F0FC01E757FF4F08C0E8E0F5E005C025
S11333E08081811109C0E757FF4F85E1E631F80775
S11333F0B8F380E090E008958E2F9F2F0895FC018C
S1133400DC01AD57BF4F1C92A9E4BBE114969C911B
S113341014979F5F14969C93149794878D919C9115
S113342096878587089590E012C0292F30E0F9012E
S1133430EE0FFF1FEE0FFF1FEE0FFF1FE21BF30B3C
S1133440EA5EFA4E858186958F5F85839F5F943609
S113345060F30895DF92EF92FF920F931F93CF933F
S1133460DF938C017B01D42E77DFEC010097C1F050
S1133470C6DF89818A5F8983FE01E957FF4F118284
S11334801082188B0F8736970190F081E02D81E030
S1133490808312830183F482E382D582CE01A3D494
S11334A0DF91CF911F910F91FF90EF90DF900895DE
S11334B080E016C0282F30E0F901EE0FFF1FEE0F59
S11334C0FF1FEE0FFF1FE21BF30BEA5EFA4E2FEF16
S11334D03FEF3283218390819E7F908315828F5F9B
S11334E0843640F30895CF93DF93EC0190E02AC033
S11334F0292F30E0F901EE0FFF1FEE0FFF1FEE0F33
S1133500FF1FE21BF30BEA5EFA4E418152814C1716
S11335105D07B9F4F901EE0FFF1FEE0FFF1FEE0F69
S1133520FF1FE21BF30BEA5EFA4E808181FBAA27A0
S1133530A0F9B0E0462F50E0A417B50711F4CF016D
S113354005C09F5F9436A0F280E090E0DF91CF91B8
S1133550089580E0A0E0B0E0E6E1F5E113C09081D9
S113356090FD0EC09581992381F0109731F0159646
S11335702C911597921718F003C0DF0101C0DF01E9
S11335808F5F3796843658F3FD0180818D70806398
S1133590808380E88583CF010895FC01808180FDCC
S11335A005C08FEF9FEF92838183158208959BDF7F
S11335B0009721F0FC018381948108958FEF9FEFA0
S11335C0089591DF009709F0E8CF08950F931F93B2
S11335D0CF93DF93FC0101851285112334F4858593
S11335E096850817190709F050C0858196810196C0
S11335F009F44BC0EF0160E08585968574DFDC013A
S1133600892B79F18F819885019659F42091491B72
S113361030914A1B8F8598892817390721F080E05B
S113362003C080E001C081E0982F917013962D9122
S11336303C9114970217130749F0FE01ED57FF4F11
S1133640208116968C911697821710F09923B9F061
S113365014961C930E9313978C918F7080638C93A4
S11336600EC077DFDC018D859E8512969C938E9328
S1133670119789859A8514969C938E931397FE01CE
S1133680ED57FF4F808116968C93DF91CF911F9158
S11336900F910895CF93DF93FC01878590898F3F25
S11336A02FEF920781F1EF01638563FB662760F9D1
S11336B01ADFDC01892B39F18C9180FD24C0FE01D5
S11336C0ED57FF4F808181110EC08C918F70806304
S11336D08C9315968C9115978F5F15968C938F3FCD
S11336E091F4A1DE10C09C91892F82958F70815F27
S11336F08F70282F2295207F9F70922B9C9381118D
S113370002C0CD014ADFDF91CF910895CF93DF93BB
S1133710FC01878590898F3F2FEF920729F48FEF63
S11337209FEF908787830EC0238522FF03C0908775
S1133730878308C0EF01638563FB662760F937DF81
S113374098878F83DF91CF910895EF92FF921F9313
S1133750CF93DF93EC011B8513FB112710F9EF8442
S1133760F888612FC70123DF019659F0FE01E9575C
S1133770FF4F11821082319782E08083CE0133D3D0
S113378007C0412FB7018D859E8564DECE0115DE0D
S1133790DF91CF911F91FF90EF900895DC01179670
S11337A0ED91FC91189719968C91863031F46581CE
S11337B08381948106DF81E0089580E00895EF928B
S11337C0FF920F931F93CF93DF93CDB7DEB72C9760
S11337D00FB6F894DEBF0FBECDBFDC0151968C91BD
S11337E0519782958F70E82FF0E03396EE0FFF1F0C
S11337F0E75BF44EE080F180E114F10409F467C062
S11338001D964D915C911E975A8349831F966D9125
S11338107C9150977C836B8351969C9151979F70B8
S11338209D838E83CD018F579F4FFC0180819181B1
S11338309987888711962C9111978D010E5F1F4FE0
S1133840801B910B281B2A87CD018D579F4FFC01AC
S113385080818B87CD018C579F4FFC0180818C87A1
S11338601B962C911B97922F9170822F8270982B0C
S113387022FF02C080E201C080E0982B23FF02C037
S113388080E401C080E0982B6F3F7F4F11F484E007
S113389001C080E0982B19962D913C911A974217FC
S11338A0530711F488E001C080E0982B15962D9100
S11338B03C9116972F3F3F4F11F480E101C080E007
S11338C0892B8F83CE010196F701199501C080E001
S11338D02C960FB6F894DEBF0FBECDBFDF91CF910B
S11338E01F910F91FF90EF900895DC0119962C9190
S11338F01997222371F01796ED91FC911897208166
S1133900222319F0213019F006C002C3089546CFCE
S1133910089580E0089580E00895BC0190E080E07F
S11339201CC0292F30E0F901EE0FFF1FEE0FFF1F1F
S1133930E20FF31FE052F84E4481442369F0F90189
S1133940EE0FFF1FEE0FFF1F2E0F3F1FF901E05276
S1133950F84E4150448381E09F5F9A3010F38823EE
S113396011F0CB0191C508950F931F93CF93DF936B
S1133970EC0190E060E070E080C0292F30E0F901B4
S1133980EE0FFF1FEE0FFF1FE20FF31FE052F84E82
S11339904481442309F46DC00B851C85A081B18149
S11339A00A171B0709F065C0F901EE0FFF1FEE0FA0
S11339B0FF1FE20FF31FE052F84E82819A85891BA4
S11339C08830E0F5F901EE0FFF1FEE0FFF1FE20F45
S11339D0F31FE052F84E9381492F50E0082E02C0A5
S11339E0559547950A94E2F740FF13C02091491B6F
S11339F030914A1B8D819E812817390709F053C0E5
S1133A00698563FB662760F98D859E85DADD81E033
S1133A104DC041E050E002C0440F551F8A95E2F7C3
S1133A20F901EE0FFF1FEE0FFF1F2E0F3F1FF901CD
S1133A30E052F84E942B938380E038C08195F901CD
S1133A40EE0FFF1FEE0FFF1F2E0F3F1FF901E05275
S1133A50F84E9283238130E0A90102C0440F551F20
S1133A608A95E2F7CA01816083838FE1848380E0D1
S1133A701DC0411101C0BF019F5F9A3008F47DCF82
S1133A806115710591F08B859C85FB019183808381
S1133A908A85828381E083838FE1848382ED97E149
S1133AA0F3D480E003C081E001C081E0DF91CF91D5
S1133AB01F910F9108950F931F93CF93DF93FC01F0
S1133AC08C010E5F1F4F84E28083838581FD54C087
S1133AD083FD52C0258136812F3F3F4F79F42091D9
S1133AE0491B30914A1B878590892817390719F09B
S1133AF0019609F041C082E280833EC02785308967
S1133B002F3F3F4F11F480FD37C02091491B309166
S1133B104A1B858596852817390771F1EF01CF0176
S1133B2055DDC80121DF811127C08F819885019659
S1133B3071F42091491B30914A1B8F85988928176D
S1133B40390729F08B8582FD02C0CE019ED12091D8
S1133B50491B30914A1B8F8598892817390711F022
S1133B60019619F482E2888307C08F81988528170B
S1133B70390711F483E28883DF91CF911F910F916C
S1133B8008950F931F93CF93DF938C01E5DBEC0132
S1133B90009731F134DC89818D5F8983FE01E95717
S1133BA0FF4F11821082D8011B968C911B9786952A
S1133BB081709B8580FB91F99B871D968D919C91CB
S1133BC01E97988B8F8736970190F081E02D108295
S1133BD08091DF1782831C968C918183CE0103D15F
S1133BE0DF91CF911F910F910895CF93DF93EC0153
S1133BF01092DF17E4DD9B8590FF80E02F813885EC
S1133C002F3F3F4F59F44091491B50914A1B2F8538
S1133C1038894217530711F493FF81E02D813E81C7
S1133C202F3F3F4F09F480E02091491B30914A1BFC
S1133C302F3F3F4F09F480E0882311F0CE01A1DF2C
S1133C4084E28883DF91CF91089520E00EC0822F13
S1133C5090E0FC01EE0FFF1FEE0FFF1F8E0F9F1F62
S1133C60FC01E052F84E14822F5F2A3080F3E2ED1B
S1133C70F7E184E690E0A0E0B0E086839783A08734
S1133C80B18712868DE89CE19487838765E77CE1A0
S1133C9080E060CA0895CF93DF93DC01ED91FC913D
S1133CA02181283809F52081213611F02134E1F4ED
S1133CB0FC0122812031C0F0EC014EDB0097A1F021
S1133CC020E2DC012C932A8111962C932B81FC0198
S1133CD0ED57FF4F20832C81319620834A816881E0
S1133CE0798150E00296F6D4DF91CF910895CF9375
S1133CF0DF93C0E0D0E017C08881823261F018F40D
S1133D00803231F010C0833249F0843251F00BC05C
S1133D10CE01D1DE08C0CE0168DF05C0CE0115DDBD
S1133D2002C0CE014ADBCE0152DBEC01892B21F724
S1133D30DF91CF910895813051F018F0823019F05D
S1133D4004C080E0089581E2089581E0089580E24E
S1133D5008951F93CF93DF93EC0110E080E090E08F
S1133D6014C0FC012081213181F4EC57FF4F2081E4
S1133D7031812150310931832083232B29F423E11C
S1133D80FC01208311E001C011E021DB009749F719
S1133D90112311F0CE0178D3DF91CF911F910895B3
S1133DA010922D1810922C18EFE1F8E182E390E0C4
S1133DB0A0E0B0E086839783A087B187128683EB67
S1133DC09FE194878387E2E1F8E18AE090E0A0E054
S1133DD0B0E086839783A087B187128689EA9EE143
S1133DE0948783870895CF93DF93EC01FC01EA570E
S1133DF0FF4F808181FF03C092E1988302C092E16A
S1133E009883FE01ED57FF4F1082982F917080FF29
S1133E1005C02FEF3FEF3E832D8306C020914B1B3F
S1133E2030914C1B3E832D8382FD05C0911103C04C
S1133E30CE016CDC04C08F85988998878F83E9E470
S1133E40FBE1808191819A87898785818F5F858352
S1133E508C838F819885019669F481E498E89B832B
S1133E608A832AD4877099270196CC57DF4F998388
S1133E70888308C081E698E89B838A83CC57DF4F08
S1133E8019821882DF91CF9108950F931F93CF93D6
S1133E90DF938C0161DAEC01892BA9F182E188833B
S1133EA0F80181818983FE01ED57FF4F108204D40C
S1133EB0877099270196FE01EC57FF4F9183808309
S1133EC0339611821082F8014181B8016E5F7F4FF1
S1133ED050E0CE010296FED381E498E89B838A8366
S1133EE08FEF9FEF98878F83F801858196819E835A
S1133EF08D83E9E4FBE1808191819A8789878581BB
S1133F008F5F85838C83DF91CF911F910F910895EB
S1133F10CF93DF93FC01C781D08581858330C1F4C1
S1133F2080E090E010C0FC012081263161F43485EA
S1133F302981321308C027E120832A81EA57FF4FE1
S1133F40208381E006C043DA009769F780E001C06E
S1133F5080E0DF91CF91089527E1FC012083ED57A4
S1133F60FF4F60830895EF92FF921F93CF93DF93E7
S1133F707C0110E0C0E0D0E013C08881863181F478
S1133F80FE01EC57FF4F80819181019791838083DB
S1133F90892B29F460E1CE01DFDF11E001C011E0DB
S1133FA0CE0115DAEC01892B41F7112311F0C70179
S1133FB06BD2DF91CF911F91FF90EF900895CF9333
S1133FC0DF93C0912C18D0912D18B5DEFE01ED576A
S1133FD0FF4F808385E1888310922D1810922C184E
S1133FE0E9E4FBE186A197A1019797A386A3DF915A
S1133FF0CF910895CF93DF93C0E0D0E068C088816B
S11340008331D1F018F4823139F061C0853169F11E
S1134010873109F44DC05BC0FE01EC57FF4F80812E
S11340209181892B31F081E1888382E198E12CD25E
S11340304EC083E188834BC080912C1890912D1839
S1134040892B09F044C0D0932D18C0932C1884E117
S113405088836981CE010296C5D0E9E4FBE186A19B
S113406097A1019697A386A332C0FE01ED57FF4F97
S1134070808181111AC02D853E858091491B9091C4
S11340804A1B2817390771F48B8580FF0BC086E122
S1134090888389E290E03196918380838FE198E16F
S11340A0F3D115C087E1888312C087E188830FC0EC
S11340B0CE01F0DAFE01E957FF4F0190F081E02DC7
S11340C0309719F4CE0179D902C0CE011995CE01E9
S11340D07ED9EC01892B09F092CFDF91CF9108951D
S11340E080912E18982F9F70E4E5F1E08081807F05
S11340F0892B808380912E18882329F080912F1892
S113410080935301089580912F18982F9F71E8E4AC
S1134110F1E08081807E892B8083089593E09093E1
S11341204201909141019F719830D9F780934201E7
S1134130909141019F718913FBCF089588E0EEDFD0
S11341408FEF80934F0180913018882311F086E11E
S1134150E5CF0895E9E3F1E08081816080831092E6
S1134160301810922E1881E08093B11888E0D6DFC1
S11341708BEE80935601ECE4F1E0808180688083CB
S1134180089580933018DACF089580932F18A8CF1C
S11341900895CF93DF931F921F92CDB7DEB79A8312
S11341A08983809362018A81809363010F900F90C9
S11341B0DF91CF910895CF93DF931F921F92CDB7D4
S11341C0DEB79A838983809360018A818093610139
S11341D099818A81890F80936D010F900F90DF91EF
S11341E0CF9108950F931F93CF938C01C62F89E12C
S11341F095DF8FEF80934F0182E08C0F80938001D5
S113420020E00BC0822F90E0FC01EF57FE4FD80155
S1134210A80FB91F8C9180832F5F2C1798F383E02C
S11342208093B11882E080934201CF911F910F9146
S113423008951F93CF93DF9300D01F921F92CDB7A1
S1134240DEB78091B118823009F463C080914F01C8
S113425083FF3CC0A0917B0120E009C0FC01E05831
S1134260FE4F3081FC01EF5CF74E30832F5F822FCD
S113427090E04A2F50E0BA016F5F7F4F861797078F
S11342806CF381E398E19A838983A250AB83FA01AA
S1134290EF5CF74E80818C83809147018A558D8332
S11342A0CE010196F8DC809141018F718631D9F7F6
S11342B0EFE4F1E0808188608083ECE4F1E08081C8
S11342C08F77808380818068808323C080914F01B1
S11342D086FF1FC0809141018F718931A9F410912B
S11342E0420112951695177049F0133021F01530DC
S11342F021F412E003C011E001C013E01FDF81E0EC
S11343008093B118812F5BDEEFE4F1E0808180645B
S113431080830F900F900F900F900F90DF91CF91AB
S11343201F9108950E94341760D014DF0C948018F4
S113433008957FDF0E94B418B2C008950F931F93AD
S1134340CF93DF93EC018091B2189091B31800974A
S1134350C9F14E815F8168857985FC01A0E0B0E0F8
S11343601AC00281138124813581401751076207E5
S1134370730748F4041B150B260B370B02831383B6
S1134380248335830AC0401B510B620B730BDF017E
S11343900190F081E02D309721F74A835B836C8391
S11343A07D83109741F08D919C9111979983888317
S11343B0CD93DC9315C099838883D093B318C093AD
S11343C0B2180EC0198218828E819F81A885B98582
S11343D08A839B83AC83BD83D093B318C093B218F4
S11343E0DF91CF911F910F9108951092B3181092FD
S11343F0B2180895CF93DF93E091B218F091B318F7
S1134400A0E0B0E02BC0E817F90721F5109729F0D8
S1134410208131812D933C9306C0208131813093DA
S1134420B3182093B2180190F081E02D3097C1F0B9
S1134430EC018A819B81AC81BD814281538164817D
S11344407581840F951FA61FB71F82839383A4834E
S1134450B58306C0DF010190F081E02D309799F615
S1134460DF91CF910895E091B218F091B31806C08E
S1134470E817F90739F00190F081E02D3097C1F782
S113448080E0089581E00895CF93DF93EC01EBDFA2
S1134490811102C0CE0152DFDF91CF910895CF92F6
S11344A0DF92EF92FF92CF93DF938091481B882392
S11344B009F44DC08FB7F894C090481B1092481B64
S11344C08FBFD12CE12CF12CCC0CDD1CEE1CFF1C7D
S11344D0D701C601880F991FAA1FBB1F880F991FF8
S11344E0AA1FBB1FC80ED91EEA1EFB1E13C0C81A82
S11344F0D90AEA0AFB0A888199819093B3188093B8
S1134500B2188A85813011F4CE0118DFEB85FC8561
S1134510CE011995C091B218D091B318209749F0E3
S11345208A819B81AC81BD81C816D906EA06FB0647
S1134530F0F6209761F08A819B81AC81BD818C1952
S11345409D09AE09BF098A839B83AC83BD83DF9138
S1134550CF91FF90EF90DF90CF9008959C0140E0C1
S113456050E060E271EA87E090E03BD02150109285
S1134570CD002093CC00E9ECF0E088E1808386E074
S11345808093CA0080818068808308959091C800D8
S113459095FFFCCF8093CE0080E090E00895A1E2E7
S11345A01A2EAA1BBB1BFD010DC0AA1FBB1FEE1FA9
S11345B0FF1FA217B307E407F50720F0A21BB30BF4
S11345C0E40BF50B661F771F881F991F1A9469F770
S11345D060957095809590959B01AC01BD01CF01CC
S11345E00895052E97FB16F400940FD057FD05D0BF
S11345F0D6DF07FC02D046F408C0509540953095AC
S113460021953F4F4F4F5F4F08959095809570953A
S113461061957F4F8F4F9F4F0895EE0FFF1F881FA7
S11346208BBF0790F691E02D19948F929F92AF92D1
S1134630BF92CF92DF92EF92FF92CF93DF93EC0180
S1134640688179818A819B81611571058105910554
S113465021F464E279ED8BE597E02DE133EF41E05D
S113466050E0BFDF49015A019B01AC01A7EAB1E464
S113467021D36B017C01ACEEB4EFA501940126D3E8
S1134680DC01CB018C0D9D1DAE1DBF1DB7FF03C00A
S11346900197A109B04888839983AA83BB839F7734
S11346A0DF91CF91FF90EF90DF90CF90BF90AF90CC
S11346B09F908F900895B9CF80E092E0B6CFA0E0AC
S11346C0B0E08093000290930102A0930202B093A1
S11346D003020895FB01DC0102C001900D924150D8
S11346E05040D8F70895CF93DF93CDB7DEB7AE012E
S11346F04A5F5F4FFA0161917191AF018091771B1D
S11347009091781B2AD0DF91CF9108950F931F9336
S1134710CF93DF93CDB7DEB7AE01485F5F4FDA01C9
S11347206D917D91AD0105E71BE1F80182819381D3
S1134730DC0113962C911397286013962C930DD0BB
S1134740D8011296ED91FC9113972381277F23833F
S1134750DF91CF911F910F9108952F923F924F9225
S11347605F926F927F928F929F92AF92BF92CF92FD
S1134770DF92EF92FF920F931F93CF93DF93CDB706
S1134780DEB72B970FB6F894DEBF0FBECDBF6C011A
S11347907B018A01FC0117821682838181FFBFC1DC
S11347A0CE0101963C01F6019381F70193FD8591B9
S11347B093FF81917F01882309F4ADC1853239F4D7
S11347C093FD859193FF81917F01853221F4B60198
S11347D090E0D6D1E8CF912C212C312CFFE1F315B8
S11347E0D8F08B3279F038F4803279F08332A1F446
S11347F0232D20611DC08D3261F0803369F4232D97
S1134800216016C0832D8260382EE32DE4603E2E95
S11348102AC0F32DF8601DC037FC2DC020ED280FF1
S11348202A3040F08E32B9F436FC75C1232D206451
S1134830322E19C036FE06C08AE0989E200D11243F
S1134840922E11C0EAE02E9E200D1124222EF32D6B
S1134850F0623F2E08C08C3621F4832D8068382EF8
S113486002C0883641F4F70193FD859193FF81914D
S11348707F018111B3CF982F9F7D9554933028F4F5
S11348800C5F1F4F9FE399830DC0833631F083374C
S113489071F0833509F055C020C0F8018081898307
S11348A00E5F1F4F88248394912C530112C028015A
S11348B0F2E04F0E511CF801A080B18036FE03C017
S11348C0692D70E002C06FEF7FEFC5014ED14C013E
S11348D08201F32DFF773F2E15C0280122E0420EFE
S11348E0511CF801A080B18036FE03C0692D70E030
S11348F002C06FEF7FEFC5012DD14C01F32DF0689D
S11349003F2E820133FC19C0822D90E0881699064F
S1134910A0F4B60180E290E033D12A94F5CFF501FA
S113492037FC859137FE81915F01B60190E028D173
S113493021102A9421E0821A91088114910479F7B4
S1134940E1C0843611F0893639F5F80137FE07C025
S113495060817181828193810C5F1F4F08C06081E7
S11349607181072E000C880B990B0E5F1F4FF32DDE
S1134970FF763F2E97FF09C09095809570956195BD
S11349807F4F8F4F9F4FF0683F2E2AE030E0A30106
S113499033D1882E861844C0853731F4232D2F7ED9
S11349A0B22E2AE030E025C0932D997FB92E8F36A0
S11349B0C1F018F4883579F0AEC0803719F0883723
S11349C021F0A9C0E92FE061BE2EB4FE0DC0FB2D7D
S11349D0F460BF2E09C034FE0AC0292F2660B22E0F
S11349E006C028E030E005C020E130E002C020E14C
S11349F032E0F801B7FE07C0608171818281938142
S1134A000C5F1F4F06C06081718180E090E00E5FF3
S1134A101F4FA301F1D0882E8618FB2DFF773F2E60
S1134A2036FE0DC0232D2E7FA22E891458F434FE99
S1134A300BC032FC09C0832D8E7EA82E05C0B82C75
S1134A40A32C03C0B82C01C0B92CA4FE0FC0FE01D6
S1134A50E80DF11D8081803321F49A2D997EA92ED1
S1134A6009C0A2FE06C0B394B39404C08A2D86780C
S1134A7009F0B394A3FC10C0A0FE06C0B21480F4E5
S1134A80280C922C9B180DC0B21458F4B60180E285
S1134A9090E076D0B394F8CFB21418F42B1802C077
S1134AA0982C212CA4FE0FC0B60180E390E068D0BE
S1134AB0A2FE16C0A1FC03C088E790E002C088E50E
S1134AC090E0B6010CC08A2D867851F0A1FE02C098
S1134AD08BE201C080E2A7FC8DE2B60190E050D0E9
S1134AE0891430F4B60180E390E04AD09A94F8CF68
S1134AF08A94F301E80DF11D8081B60190E040D065
S1134B008110F6CF222009F44ECEB60180E290E067
S1134B1037D02A94F7CFF6018681978102C08FEFB0
S1134B209FEF2B960FB6F894DEBF0FBECDBFDF917B
S1134B30CF911F910F91FF90EF90DF90CF90BF9096
S1134B40AF909F908F907F906F905F904F903F9029
S1134B502F900895FC010590615070400110D8F722
S1134B60809590958E0F9F1F0895FC0161507040B1
S1134B7001900110D8F7809590958E0F9F1F08958E
S1134B800F931F93CF93DF93FB01238121FD03C078
S1134B908FEF9FEF2CC022FF16C0468157812481DE
S1134BA035814217530744F4A081B1819D012F5FE1
S1134BB03F4F318320838C93268137812F5F3F4F72
S1134BC03783268314C08B01EC01FB010084F1853B
S1134BD0E02D1995892BE1F6D80116968D919C91BB
S1134BE01797019617969C938E931697CE01DF9193
S1134BF0CF911F910F910895FA01AA27283051F1FE
S1134C00203181F1E8946F936E7F6E5F7F4F8F4FF9
S1134C109F4FAF4FB1E03ED0B4E03CD0670F781F58
S1134C20891F9A1FA11D680F791F8A1F911DA11D3D
S1134C306A0F711D811D911DA11D20D009F4689476
S1134C403F912AE0269F11243019305D3193DEF61E
S1134C50CF010895462F4770405D4193B3E00FD0D4
S1134C60C9F7F6CF462F4F70405D4A3318F0495DBF
S1134C7031FD4052419302D0A9F7EACFB4E0A695A2
S1134C809795879577956795BA95C9F700976105C4
S1134C90710508959B01AC010A2E0694579547951A
S1134CA037952795BA95C9F7620F731F841F951F0F
S1134CB0A01D08950FD0A59F900DB49F900DA49FA3
S1134CC0800D911D11240895B7FFF4CFF3DF821BEB
S1134CD0930B0895A29FB001B39FC001A39F700DD1
S1134CE0811D1124911DB29F700D811D1124911DF0
S1094CF00895F894FFCFC3
S1134CF6010000002143341200C00102573535304B
S1134D0630009710981099109A109B109E1000006E
S1134D1600000000000300000000C622000000009E
S1134D260008DCABCDEFC0A835C7FFFFFF00C0A865
S1134D3635010808080801C0A8356D0202020202FE
S1134D4602020225643A436F6E6E656374656420DD
S1134D562D2025642E25642E25642E2564203A20D4
S1134D6625640D0A0025643A536F636B657420430A
S1134D766C6F7365640D0A0025643A4C6973746537
S1134D866E2C2054435020736572766572206C6FC6
S1134D966F706261636B2C20706F7274205B256484
S1134DA65D0D0A0025643A436F6E6E65637465642F
S1134DB620746F202D2025642E25642E25642E252F
S1134DC664203A2025640D0A0025643A5472792039
S1134DD6746F20636F6E6E65637420746F207468DD
S1134DE6652025642E25642E25642E2564203A200C
S1134DF625640D0A0025643A207265637666726F2F
S1134E066D206572726F722E20256C640D0A002562
S1134E16643A2073656E64746F206572726F722EC5
S1134E2620256C640D0A0025643A4F70656E65642E
S1134E362C20554450206C6F6F706261636B2C207C
S1134E46706F7274205B25645D0D0A000D0A207371
S1134E566F636B6574202564206661696C20720A31
S1134E660025643A4F70656E65642C2049505241A2
S1134E7657206D6F6465202849434D502070696E34
S1134E8667290D0A004F4B005265717565737400EE
S1134E965265706C79004D61632061646472657358
S1134EA6733A20253032783A253032783A25303232
S1134EB6783A253032783A253032783A25303278C5
S1134EC60A0D0049502061646472657373203A20A8
S1134ED625642E25642E25642E25640A0D00534D63
S1134EE6204D61736B092020203A2025642E256409
S1134EF62E25642E25640A0D0047617465207761AA
S1134F06792020203A2025642E25642E25642E251A
S1134F16640A0D00444E5320536572766572203A36
S1134F262025642E25642E25642E25640A0D000092
S9030000FC
